:020000040800F2
:100000005007002049020008D11900087D18000897
:10001000CD190008011500087F2500080000000028
:10002000000000000000000000000000CD1B0008E0
:10003000FD15000800000000611A0008E51C00081A
:1000400063020008630200086302000863020008FC
:10005000630200086302000801160008630200083A
:100060003D16000879160008B5160008630200085E
:1000700063020008630200086302000863020008CC
:1000800063020008630200086302000863020008BC
:1000900063020008630200086302000863020008AC
:1000A000630200086302000863020008630200089C
:1000B00063020008151F00086302000863020008BD
:1000C000630200086302000863020008630200087C
:1000D000630200086123000863020008630200084D
:1000E000630200086302000863020008630200085C
:1000F000630200086302000863020008630200084C
:100100006302000863020008451F0008630200083C
:10011000630200086302000863020008630200082B
:10012000630200086302000863020008630200081B
:10013000630200086302000863020008630200080B
:1001400063020008630200086302000863020008FB
:1001500063020008630200086302000863020008EB
:1001600063020008630200086302000863020008DB
:1001700063020008630200086302000863020008CB
:10018000630200086302000800F002F800F04CF877
:100190000AA090E8000C82448344AAF10107DA45E2
:1001A00001D100F041F8AFF2090EBAE80F0013F0E8
:1001B000010F18BFFB1A43F0010318471C2B000066
:1001C0003C2B0000103A24BF78C878C1FAD85207F7
:1001D00024BF30C830C144BF04680C6070470000C1
:1001E0000023002400250026103A28BF78C1FBD840
:1001F000520728BF30C148BF0B607047662902F024
:100200001E85642900F08280002070471FB502F02F
:100210000CFD00F033FB04000020002102F04EFB37
:10022000E0601FBD10B510BD00F040FC1146FFF7A7
:10023000EDFF02F02FFA00F05EFC03B4FFF7F2FFCF
:1002400003BC02F0B6F9000009488047094800479E
:10025000FEE7FEE7FEE7FEE7FEE7FEE7FEE7FEE776
:10026000FEE7FEE704480549054A064B70470000D3
:10027000E91C0008890100085001002050070020F7
:100280005003002050030020704700000FB40449C1
:1002900010B503AA029800F0DFFA10BC5DF814FB59
:1002A000140000202DE9F0410E4604460020206293
:1002B0002046E168884730B3252805D0D4E90121DC
:1002C0009047206A401CF2E7E168204600278847F3
:1002D000050018D0A5F14100192802D820354FF4A7
:1002E00000673246294620462760FFF787FF40B166
:1002F000012804D0F61D26F007060836D8E7361D7B
:10030000D6E72846DAE7206ABDE8F0812DE9F0411A
:100310000646002410687529314616A510D0AFF3A3
:100320000080002802DA404213A507E031688A07FE
:1003300001D512A502E0490704D511A5012401E069
:10034000AFF3008000210A2206F1240709E0B0FB88
:10035000F2FCB0FBF2F302FB1C003030785418467C
:10036000491C0028F3D123462A463046BDE8F04117
:1003700000F00CB8000000002D0000002B00000071
:100380002000000070477047704770472DE9F04724
:100390000D4699469246044600F1240801688806F5
:1003A00004D5E06921F01001216000E00120A8429D
:1003B00001DD471B00E00027A1697A1902EB090063
:1003C000081AA0612078C00602D42046AFF300804E
:1003D000002608E0D4E901211AF806009047206AB7
:1003E000401C761C20624E45F4DB2078C0060AD5FE
:1003F0002046AFF3008006E0D4E901213020904789
:10040000206A401C2062381EA7F10107F4DC07E0D7
:10041000D4E9012118F805009047206A401C2062A9
:10042000281EA5F10105F3DC2046AFF300802078FB
:10043000000602D50220BDE8F0870120FBE77047E7
:100440002DE9FF4F0C461E464FF0FF378BB0D2E927
:100450000001DDF860800A908A46C1F30A5505B9AB
:100460003D46002108464FF00000BAF1000F00F4AD
:10047000400005DA00EB80004FF4400101EA500033
:100480004FEA9059B9F1010F00DDB9460A9850EAD8
:100490004A000ED044F61050A5F2FF3545432F1404
:1004A000B8F1000F1ED07542291E1EDDC9F10002F1
:1004B0001CE0B8F1010F4FF0000001D0302103E043
:1004C000F24305E02154401CB042FBDB30460022E1
:1004D000002121540B99C1F80880C1E900200FB018
:1004E000BDE8F08FBD1B6D1CDEE74A4600DA6942AD
:1004F00006A800F065FA06AB93E8070003AB83E8B3
:10050000070050460A9900F03FFB8DE80700A0F570
:1005100000501F3800900398002D09DD42F21F01A2
:100520004A46084403A90390684600F09EFD08E08F
:10053000A0F500504A461F3803A90390684600F012
:10054000A8FD8DE807000004000C03D04FF0FF3039
:10055000410800E01046B8F1000F03D000220092DD
:1005600015461EE0751E05D400F08CF93032625538
:100570006D1EF9D5B3460122084302D000227F1C2C
:1005800004E02078302801D100227F1E002A09973C
:1005900086D01DE0112D07DA00F074F93032625573
:1005A0006D1C50EA0102F5D1084302D00098C8B191
:1005B0000EE00021681E05E0235C625C6354225457
:1005C000401E491C8142F7DBAB46A81B401E099028
:1005D000002004F80B000B98099AC0F80880C0E9C5
:1005E000002B7CE711264FF0000859E72DE9F04F6A
:1005F00088460446D21D22F0070191B0D1E90001DE
:10060000CDE90A0101F0BDFF02460B98C00F01D0F1
:100610002D2007E02068810701D52B2002E0202152
:1006200001EAC000032A099001D0072A05DB03462E
:100630004146204600F084F90BE12078800601D580
:10064000E06900E00620B8F1650F814606D0B8F1F8
:10065000660F18D0B8F1670F70D131E00020B9F102
:10066000110F009001DB112301E009F101030AAA37
:1006700001A90CA8FFF7E4FEDDE90C70002609F1E2
:100680000105834647E001204B4600904FF00047AC
:100690000AAA01A90CA8FFF7D3FEDDE90DB00C9959
:1006A0005D46002610B909F101000D18B9EB0500EF
:1006B00003D4C0F1FF3609F10105A5EB09002BE0D9
:1006C000B9F1010F01DA4FF001090020B9F1110F62
:1006D0000090484601DD112300E003460AAA01A963
:1006E0000CA8FFF7ADFEDDE90C704D4600268346F1
:1006F000207800070AD4AB4500DA5D4601A8012D39
:1007000004DD411911F8011C302907D04F4502DAE8
:1007100017F1040F04DA012082460FE06D1EEEE7A8
:10072000002F02DCED1B3E4403E0781CA84200DDF4
:100730007D1CB81B00F1010A4FF00047207800072C
:1007400003D4AA4501DB4FF0FF3A0021B7F1004F77
:100750000DF143088DF8431024D002202B23002FE5
:1007600001DA7F422D230A21021EA0F1010000DCE4
:100770005FB197FBF1FC97FBF1F201FB1C7C174684
:100780000CF1300C08F801CDEEE7A8F10100037080
:100790002188090501D5452100E06521A0F1010866
:1007A00000F8011C09980FA9A1EB0807FF1D00B173
:1007B0000120411901EBEA70A1693844081A401E72
:1007C000A0612078C00602D42046AFF300800998CB
:1007D00028B1D4E901219047206A401C206220788A
:1007E000C00622D52046AFF300801EE0002E04DBB9
:1007F000B34502DD01A8805D00E03020D4E901218D
:100800009047206A401C2062761CAAF101005FEA32
:10081000000A0AD100F032F8C0680168405CD4E9EF
:1008200001219047206A401C2062281EA5F1010585
:10083000DCDC07E0D4E9012118F8010B9047206ABD
:10084000401C2062381EA7F10107F3DC2046AFF3FD
:100850000080032011B043E6074B70B50D467B4482
:1008600000F05BF80446284600F018F910B14FF08C
:10087000FF3070BD204670BD171E00000048704755
:100880001001002030B5B0F10A024FEA900E71F16C
:1008900000034EEA817EB0EB0E0061EB91014FEA5E
:1008A000101E4EEA017E10EB0E0041EB11114FEAD3
:1008B000102E4EEA016E10EB0E0041EB11214FEAB3
:1008C000104E4EEA014E10EB0E0041EB1141401864
:1008D00041F100014FEAD00040EA41704FEAD101F6
:1008E00010EB80054FEA810444EA907444EB010464
:1008F0006D1944EB0404521BA3414FF0000348BFA1
:100900000A3200D530BD401C41F1000130BD00006D
:1009100001694A1C02610878704700B58FB0CDE9C3
:1009200001310021059105497944CDE903101146B3
:100930006846FFF7B7FC0FB000BD0000E5FFFFFF02
:100940002DE9F0411F46044603260168072A01F4F9
:10095000006004DB08B116A505E016A503E008B1A8
:1009600015A500E015A521F010002060A069C01EAB
:10097000A0610FB1401EA0612046AFF300804FB1CF
:10098000D4E9012138469047206A401C2062C01CEF
:10099000206206E0206AFAE7D4E9012115F8010B8C
:1009A0009047761EF8D22046AFF30080BDE8F08174
:1009B0004E414E006E616E00494E4600696E660003
:1009C0002DE9F047814616468AB0334878440DC871
:1009D0008DE80D0030487844801C03AC0DC884E8D5
:1009E0000D0041F69B300844372190FBF1F290FB5B
:1009F000F1F5A5F1800501FB12041B3C02D5644210
:100A0000012000E00020DFF890A080460027FA4493
:100A1000AAF1BE0A0DE0E00709D03246684607EBAE
:100A200047010AEB810100F034FB8DE807006410F8
:100A30007F1C002CEFD1184F7F44AC3F18E0E80733
:100A400014D007EB04100DF1180A90E80E008AE8A4
:100A50000E00C068F04201D198190890324606A9EC
:100A600003A800F016FB03AB83E807006D10641CBD
:100A7000002DE4D132466946B8F1000F03A802D038
:100A800000F0F3FA01E000F004FBC9E90001C9F845
:100A900008200AB0BDE8F087F0220000007B00F0DB
:100AA0008000704700487047F00000207546FFF74F
:100AB000F9FFAE4605006946534620F0070085461B
:100AC00018B020B5FFF7CEFBBDE820404FF0000680
:100AD0004FF000074FF000084FF0000B21F0070126
:100AE000AC46ACE8C009ACE8C009ACE8C009ACE869
:100AF000C0098D46704710B50446AFF3008020460C
:100B0000BDE81040FFF799BB4FF0013C50F8042BB3
:100B100051F8043B9A4221D1A2EB0C03934313EA10
:100B2000CC1317D150F8042B51F8043B9A4215D13D
:100B3000A2EB0C03934313EACC130BD150F8042B14
:100B400051F8043B9A4209D1A2EB0C03934313EAF8
:100B5000CC13DBD04FF00000704700BFD01A01BAB1
:100B6000B1FA81F101F0180122FA01F0CB40C1F194
:100B70002001DBB2C0B2C01A2CFA01F3D11A9143A2
:100B800011EAC311E6D170475FEA400C08BF91F04B
:100B9000000F4FEA8C234FEAC12243EA51514FEA3A
:100BA0001C5018BF00F5F0404FEA300018BF41F06C
:100BB00000415FEA6C5C00F02980BCF1FF3F08BF98
:100BC00040F080407047130C06BF12044FF0100C29
:100BD0004FF0000C130E04BF12020CF1080C130F9F
:100BE00004BF12010CF1040C930F04BF92000CF12E
:100BF000020CD30F04BF52000CF1010C11464FF050
:100C00000002A0F11F00A0EB0C00704711F0004F94
:100C100008BF704731F000413FF4D5AF0B0C06BF61
:100C200009044FF0100C4FF0000C0B0E04BF09022A
:100C30000CF1080C0B0F04BF09010CF1040C8B0F15
:100C400004BF89000CF1020CCB0F04BF49000CF16A
:100C5000010CCCF12003A0EB0C0022FA03F302FA02
:100C60000CF241EA030100F10100704720F07F4CD3
:100C700080EA030023F07F47ACEB070303F57C53C6
:100C800000F0004003F1FF032DE980494FEA154BC6
:100C900009B44FEA144325EA0B4E24EA03480FF245
:100CA000042606EB132749083E785FEA320203FB6D
:100CB0000667C7F5000707FB06F64FEA54374FEA09
:100CC000D64606F1020607FB066CCCF1005C4FEA43
:100CD0001C472CEA074C07FB06F40CFB06F504EB5B
:100CE00015464FEA961634BF00204FF000404FEAF9
:100CF000D13706FB07FC4FEA1C4C0CFB0BF7D21B51
:100D000003FB0CF761EB07010CFB0EF7B0EB0740A0
:100D100072EB17420CFB08F734BFA2EB0742B2EBB1
:100D2000074261EB17414FEA0C444FEA910706FB7B
:100D300007FC4FEA1C4C0CFB0BF7B0EBC74072EB07
:100D4000573203FB0CF734BFA2EBC742B2EBC742EA
:100D500061EB57310CFB0EF7B0EBC70072EB57722B
:100D60000CFB08F734BFA2EBC702B2EBC70261EB82
:100D70005771039F4FEA816141EA921104EBCC0461
:100D80004FEAD1374FEA826206FB07FC42EA901233
:100D90004FEA80604FEA1C4C0CFB0BF7D21B03FBA5
:100DA0000CF761EB07010CFB0EF7B0EB074072EBA1
:100DB00017420CFB08F734BFA2EB0742B2EB074225
:100DC00061EB17414FEA8C554FEA910704EB9C24E5
:100DD00006FB07FC4FEA1C4C0CFB0BF7B0EBC740C3
:100DE00072EB573203FB0CF734BFA2EBC742B2EBF6
:100DF000C74261EB57310CFB0EF7B0EBC70072EB4B
:100E000057720CFB08F734BFA2EBC702B2EBC70264
:100E100061EB577115EB4C254FEA816141EA921164
:100E20004FEA82624FEAD13742EA901206FB07FC92
:100E300044F100044FEA80604FEA1C4C0CFB0BF7B6
:100E4000D21B03FB0CF761EB07010CFB0EF7B0EBB9
:100E5000074072EB17420CFB08F734BFA2EB0742C6
:100E6000B2EB074261EB174115EB1C154FEA8131DC
:100E700041EA92414FEA823242EA90424FEA8030A0
:100E80004FEA0C7644F1000448EA03434EEA0B486B
:100E90004FF0000EB2EB080C71EB030724BF624663
:100EA00039464EEB0E0E4FF0000B001852414941EF
:100EB0004BEB0B0BB2EB080C71EB03077BF1000B58
:100EC00024BF624639464EEB0E0E4FF0000B001861
:100ED000524149414BEB0B0BB2EB080C71EB030792
:100EE0007BF1000B24BF624639464EEB0E0E51EAF1
:100EF000020718BF46F0010616EB0E7655F1000208
:100F000054F1000103D5BDE88901BDE80088BDE8C2
:100F10008901BDE80048B619524141EB0101A3F136
:100F20000103704780807F7E7D7C7B7A797877763D
:100F300076757473727171706F6E6E6D6C6C6B6AB6
:100F40006A69686867666665646463636261616054
:100F5000605F5F5E5E5D5D5C5C5B5B5A5A595958D1
:100F6000585757565655555554545353525252513B
:100F7000515050504F4F4F4E4E4D4D4D4C4C4C4B91
:100F80004B4B4A4A4A4949494848484747474746D8
:100F90004646454545444444444343434342424214
:100FA00042414141002B26D4770021D01CB54FEAA5
:100FB000370703B44FF010004FF010014FF000005E
:100FC0000FBCBDE810400BF1010BBBF1010F08BFD6
:100FD0005FEA170722BF12F1010211F101014FF080
:100FE000004143F1000300F0004043EA0000704775
:100FF000F9D35708DAE746EA064613F1400F4FEAFD
:1010000016461FDD13F1200FDFBF16430A460021ED
:1010100020335B42C8D0C3F1200746EA064602FAF5
:1010200007F74FEA164646EA0706C3F1200722FAF9
:1010300003F201FA07F721FA03F14FF0000342EA45
:101040000702B1E746EA020646EA06464FEA1646B6
:1010500046EA0106BCBF46EA0646360C4FF00003DE
:101060004FF000024FF000019EE72DE9C048934683
:1010700030B491E8380007C831EA400C48BF34EA80
:10108000430C03D5FFF7F2FDFFF78CFFF0BCBDE882
:1010900000882DE9C048934630B491E8380007C86D
:1010A00010F0804F08BF13F0804F03D100F005F817
:1010B000FFF778FFF0BCBDE8008820F07F4780EAAA
:1010C000030023F07F4C07EB0C03A3F57C5300F0E7
:1010D0000040A3F1FE0392F0000F00F0B38095F002
:1010E000000F00F077802DE901494FEA11404FEAE7
:1010F000144621EA004800FB06FC24EA064708FBE8
:1011000006F607FB08F800FB07F718EB06484CEB60
:10111000164C4FEA124B18EB07484FEA15464CEBBA
:10112000174022EA0B4E0BFB06FC25EA06470EFB96
:1011300006F607FB0EFE0BFB07F71EEB064E4CEB0D
:10114000164C4FF000061EEB074E4CEB174B18EBFE
:101150000B0840F1000018EB0E0B58EB000840F1B3
:1011600000008F1A4FF000013CBFC943661B14BF3B
:10117000B5EB040C00213CBFC943F61B4FEA1744F2
:101180004EEA8E0E27EA04454FEA1C4704FB07622D
:101190002CEA074C05FB07F70CFB05F604FB0CFCDF
:1011A00016EB074642EB174216EB0C4642EB1C428D
:1011B0001BEB060658EB0202414146EA9E0601D5AA
:1011C000BDE80189B619524141EB0101A3F10103C8
:1011D000BDE801894FEA14454FEA114724EA054664
:1011E00021EA074C05FB07F406FB07F70CFB06F1A9
:1011F00005FB0CFC11EB074144EB17444FEA124787
:1012000011EB0C4144EB1C4422EA074C05FB07F2AE
:1012100006FB07F70CFB06F605FB0CFC16EB074676
:1012200042EB174216EB0C4642EB1C456A1854F190
:10123000000148BF7047B619524141EB0101A3F1CB
:101240000103704795F0000F37D04FEA11424FEA83
:10125000144721EA024624EA074C02FB07F106FB89
:1012600007F70CFB06F402FB0CFC14EB074441EB04
:1012700017414FEA154714EB0C4441EB1C4125EA9A
:10128000074C02FB07F506FB07F70CFB06F602FB13
:101290000CFC16EB074645EB174516EB0C4645EBE9
:1012A0001C42121951F1000148BF7047B619524152
:1012B00041EB0101A3F1010370474FEA14454FEAE6
:1012C000114724EA054621EA074C05FB07F106FB16
:1012D00007F70CFB06F24FF0000605FB0CFC12EBC7
:1012E000074241EB174112EB0C4251EB1C4148BF46
:1012F0007047921841EB0101A3F10103704721B13E
:10130000826842F00102826003E0826822F00102FA
:10131000826070470021084A1168084A1140D0E9EC
:1013200000231A4383681A43C3681A431143044ACB
:10133000C2F804137047000004230140E030FCFFB2
:10134000002001400146C86C80B270470246002070
:1013500013680B400BB1012000E000207047000033
:1013600030B50246002000235068104C20400D7913
:101370000C6844EA05242043506090680C4C2040DF
:10138000D1E903542C438D682C434D7944EA45043C
:1013900020439060D06A20F470000C7D641EE4B29B
:1013A000234340EA0350D06230BD0000FFFEFFFC43
:1013B000FDF7FFC0F0B504460D4600200021092DC1
:1013C00011DDE068A5F10A0606EB4607072606FAD6
:1013D00007F18843A5F10A0606EB460603FA06F173
:1013E0000843E0600CE0206905EB4507072606FA94
:1013F00007F1884305EB450603FA06F1084320612F
:10140000072A0FDA606B561E06EB86071F2606FAC0
:1014100007F18843561E06EB860605FA06F10843D7
:10142000606322E00D2A0FDA206BD61F06EB8607D9
:101430001F2606FA07F18843D61F06EB860605FA33
:1014400006F10843206310E0E06AA2F10D0606EB06
:1014500086071F2606FA07F18843A2F10D0606EB60
:10146000860605FA06F10843E062F0BD816841F0A6
:10147000804181607047000000B58DB001212020BF
:1014800000F0F0FA0121880200F00CFB40200B90E4
:1014900003208DF8300000208DF833000BA916488A
:1014A00000F044F90121880200F00CFB00214FF408
:1014B000806000F007FB0020079009904FF4803017
:1014C000089000200A9007A8FFF724FF0020019051
:1014D0008DF80800039005908DF8090001208DF823
:1014E000180001A90548FFF73BFF01210348FFF75A
:1014F00006FF0DB000BD00000014024000220140B4
:1015000000BFFEE739B1084A1268012383401A433D
:10151000054B1A6006E0044A1268012383409A438F
:10152000014B1A60704700000074004008B5014686
:1015300000200090054800902C2000EB9100009ABC
:10154000104400900098006880B208BD007400400C
:1015500030B5002200230A4C226840F6FE74844015
:10156000A243D1E900452C438D682C43CD6844EA61
:10157000050303FA00F42243014C226030BD000051
:101580000074004008B500220092054A009200F164
:101590000802009B1A440092009A116008BD0000E6
:1015A0000074004000B587B00121084600F05AFAE7
:1015B0000121480700F066FA1020059003208DF8FD
:1015C000180000208DF81B0005A90B4800F0AEF8AC
:1015D00000200190029003900220049001A90020B5
:1015E000FFF7B6FF01210020FFF78CFF002108461E
:1015F000FFF7C8FF07B000BD0000024070470000C1
:1016000010B5012000F086F880B10A2000F0F2FF4A
:101610000121084800F0F5F8012807D106480068C4
:1016200008B9012000E0002003490860012000F013
:101630006BF810BD00000240A082424210B50420A9
:1016400000F068F878B10A2000F0D4FF04210848BF
:1016500000F0D7F838B90748006808B9012000E061
:10166000002004490860042000F04EF810BD00007E
:1016700000100240A882424210B5082000F04AF84B
:1016800078B10A2000F0B6FF0821084800F0B9F848
:1016900038B90748006808B9012000E00020044973
:1016A0000860082000F030F810BD00000010024073
:1016B000A482424210B5102000F02CF8C8B10A20D4
:1016C00000F098FF10210D4800F09BF888B90C48F5
:1016D000006808B9012000E00020094908600948B5
:1016E000D0F8A80208B9012000E000200449091D33
:1016F0000860102000F008F810BD00000010024043
:10170000A4824242008042420149086070470000C2
:10171000143C014001460020034A12680A400AB105
:10172000012000E000207047143C0140F0B50A465B
:1017300000210023002400BF3DE0012505FA01F34C
:10174000156805EA03049C4234D105684F0003265E
:10175000BE40B543056015794E00B5400668354377
:1017600005601579012D02D01579022D16D18568F5
:101770004F000326BE40B543856055794E00B54005
:10178000866835438560456801268E40B5434560CF
:10179000456896798E40B6B235434560C5684F00BE
:1017A0000326BE40B543C560D5794E00B540C66836
:1017B0003543C560491C1029BFD3F0BDF0B50023E7
:1017C00000244D07ED0E02FA05F3CE1000F12005BE
:1017D00055F826504E07F70E0F26BE40B543CF10E2
:1017E00000F1200646F82750CE1000F1200555F8EC
:1017F000265045EA0304CE1000F1200545F82640A6
:10180000F0BD0246002013690B400BB1012000E03F
:101810000020704741837047018370472DE9F041F4
:1018200007460C460025002608E0384600F00EF872
:101830000544052000F0DEFE701CC6B2A642F4DBB3
:10184000B5FBF4F080B2BDE8F081000010B50446AD
:101850000723012221460848FFF7ACFD0648FFF7A1
:1018600005FE00BF02210448FFF770FD0028F9D0F3
:101870000148FFF767FD10BD0022014000BFFEE7F1
:101880001CB50121112000F0EDF81C200090002073
:101890008DF8040003208DF8050001208DF8070065
:1018A00069460648FFF742FF0120009002208DF8AC
:1018B000070069460248FFF739FF1CBD00100240CF
:1018C0000000024010B5044614B101202C490870F4
:1018D0002B480078002837D010212A48FFF791FFC5
:1018E00078B108212748FFF78CFF50B10421254823
:1018F000FFF787FF28B101212348FFF782FF012866
:1019000022D10A2000F076FE00201D490870102127
:101910001C48FFF776FF08B9012010BD08211948BF
:10192000FFF76FFF08B90220F7E704211548FFF71A
:1019300068FF08B90320F0E701211348FFF761FFB2
:1019400001281BD10420E8E710210E48FFF759FFBA
:10195000012813D108210B48FFF753FF01280DD1AF
:1019600004210848FFF74DFF012807D1012106484F
:10197000FFF747FF10B90120014908700020CCE7AC
:101980001A00002000100240000002401CB5012196
:10199000202000F067F84FF4C060009001208DF81F
:1019A000040000208DF8060003208DF805000120BA
:1019B0008DF8070069460448FFF7B8FE4FF4C06190
:1019C0000148FFF729FF1CBD0014024000BFFEE7DD
:1019D0007047000070B5002100230F22C4781CB3AB
:1019E000174C246804F4E064C4F5E064C4F30721F0
:1019F000C1F10404E3B20A4144789C40E1B2847826
:101A0000144021430C07210E0E4C057861550478D3
:101A100004F01F050124AC4005786D11AD0005F1FF
:101A2000E025C5F8004109E0047804F01F05012411
:101A3000AC40054D0678761145F8264070BD000093
:101A40000CED00E000E400E080E100E00249014329
:101A5000024A1160704700000000FA050CED00E03A
:101A60007047000029B1064A12680243044B1A600D
:101A700004E0034A12688243014B1A607047000079
:101A80003038024029B1064A12680243044B1A60FA
:101A900004E0034A12688243014B1A607047000059
:101AA0004038024029B1064A12680243044B1A60CA
:101AB00004E0034A12688243014B1A607047000039
:101AC0004438024029B1064A12680243044B1A60A6
:101AD00004E0034A12688243014B1A607047000019
:101AE00024380240F0B500210022002402250026FF
:101AF0000223324F3F6807F00C0121B1042905D0C1
:101B0000082937D105E02E4F076036E02D4F0760DA
:101B100033E02A4F3F1F3F68C7F38056274F3F1FD0
:101B20003F6807F03F036EB1264FB7FBF3F7DFF8CE
:101B30008CC0ACF1040CDCF800C0CCF3881C07FBB3
:101B40000CF40CE01E4FB7FBF3F7DFF870C0ACF1FC
:101B5000040CDCF800C0CCF3881C07FB0CF4174F16
:101B60003F1F3F68C7F301477F1C7D00B4FBF5F7BB
:101B7000076002E0124F076000BF00BF0F4F3F68D1
:101B800007F0F0010909104F7A5C0768D7404760F9
:101B90000A4F3F6807F4E051890A0B4F7A5C4768A7
:101BA000D7408760054F3F6807F46041490B064FF7
:101BB0007A5C4768D740C760F0BD00000838024033
:101BC0000024F40000127A0000000020704700009A
:101BD0000CB50020019000903448006840F480303B
:101BE0003249086000BF3148006800F400300090BE
:101BF0000198401C0190009818B90198B0F5A04FC9
:101C0000F1D12A48006800F4003010B101200090A2
:101C100001E0002000900098012846D12348403080
:101C2000006840F080502149403108602048006839
:101C300040F440401E4908601C48083000681B49B9
:101C4000083108600846006840F400400860084613
:101C5000006840F4A05008601648091F0860081F7B
:101C6000006840F08070091F086000BF0F480068DE
:101C700000F000700028F9D040F205700E490860AD
:101C80000A480830006820F003000849083108605D
:101C90000846006840F00200086000BF03480830B2
:101CA000006800F00C000828F8D10CBD0038024094
:101CB0000070004008544007003C0240042808D14E
:101CC0004FF0E021096941F004014FF0E022116179
:101CD00007E04FF0E021096921F004014FF0E02214
:101CE000116170477047000010B51548006840F456
:101CF0007000134908601348006840F00100114962
:101D0000086000200F49083108600E4800680E493D
:101D100008400C4908600D48091D0860081F00684C
:101D200020F48020091F0860002006490C3108605B
:101D3000FFF74EFF4FF0006001498039086010BD89
:101D400088ED00E000380240FFFFF6FE103000246E
:101D5000F0B50C46154600210022068C4FF6FE77A2
:101D60003E400684018B028C4FF60C7631407E1C7F
:101D700006EA03162E4331434FF6F576324044F01F
:101D80000106324301830284F0BDF0B50C461546CE
:101D9000002100220026078C4FF6EF7C07EA0C0793
:101DA0000784018B028C4FF6FF7707EA041640F692
:101DB000FF4739404FF6FF7707EA033739434FF6BD
:101DC000FF7707EA052739434FF65F773A4046F039
:101DD00010073A4301830284F0BDF0B50C46154666
:101DE000002100220026078C4FF6FF6C07EA0C0743
:101DF0000784818B028C4FF6FF7707EA04264FF6A3
:101E00000C7739404FF6FF7707EA03172F43394322
:101E10004FF2FF573A4046F480773A438183028479
:101E2000F0BDF0B50C461546002100220026078CB7
:101E30004EF6FF7C07EA0C070784818B028C4FF675
:101E4000FF7707EA043640F6FF4739404FF6FF7741
:101E500007EA052739434FF6FF7707EA0337394387
:101E600045F6FF773A4046F480573A43818302842F
:101E7000F0BD000030B589B005460C46012108468A
:101E8000FFF700FE01210846FFF7ECFD2020079038
:101E900002208DF8200000208DF8220003208DF80C
:101EA000210000208DF8230007A91948FFF73EFC08
:101EB000012205211648FFF781FC0595ADF8104079
:101EC0000020ADF81800ADF8120004A94FF08040D2
:101ED00000F046F90020ADF80400ADF8060001203E
:101EE000ADF808000020ADF80A00ADF80C0001A91B
:101EF0004FF0804000F0BDF801220321900700F070
:101F0000EFF80121880700F088F809B030BD000023
:101F10000000024010B50121084800F099F801289E
:101F200007D10748006808B9012000E000200449F3
:101F300008600121014800F06DF810BD0004004068
:101F4000A882424210B53048007800F08000002896
:101F500054D101212D4800F07BF8D0B12A480078F7
:101F600000F04000A8B12848007800F03F003F286A
:101F70000AD12548007840F08000234908704FF0CE
:101F8000FF302349086004E01F480078401C1E49C8
:101F9000087002211D4800F05BF878B31A480078F9
:101FA00000F0400078B11848007840F080001649F1
:101FB0000870164800F03DF81549086000211348E4
:101FC00000F097F81AE000200F49087010490860E7
:101FD0000D48007840F040000B49087000210B4884
:101FE00000F01BF80021094800F08CF80221074896
:101FF00000F07FF80121054800F00FF803210348A5
:1020000000F008F810BD00001C000020000C00408B
:1020100020000020CA430282704721B1028842F0AA
:102020000102028004E002884FF6FE731A4002802B
:1020300070470146486B70470146486A7047024640
:102040000020138A0B400BB1012000E000207047F4
:1020500030B50246002000230024158A05EA01035A
:10206000958905EA010413B10CB1012000E00020BC
:1020700030BD70B505460C46208850B92389A2882A
:1020800061882846FFF764FEE188284600F03CF8A6
:1020900025E0208804280AD12389A288618828465F
:1020A000FFF773FEE188284600F037F817E0208834
:1020B00008280AD12389A28861882846FFF78DFE67
:1020C000E188284600F036F809E02389A288618873
:1020D0002846FFF7A6FEE188284600F034F870BDD8
:1020E0001AB183890B43838102E083898B43838107
:1020F00070470A460021018C4FF6FD7319401143C9
:102100000184704741627047028B4FF6F3731A40A7
:102110000283028B0A4302837047028B4FF2FF3324
:102120001A400283028B4FF6FF7303EA01231A431E
:1021300002837047828B4FF6F3731A408283828B3F
:102140000A4382837047828B4FF2FF331A408283A7
:10215000828B4FF6FF7303EA01231A438283704791
:1021600000220288184B98420ED0184B98420BD090
:10217000B0F1804F08D0164B984205D0154B9842CD
:1021800002D0154B984204D14FF68F731A404B88FA
:102190001A43124B984207D0114B984204D04FF685
:1021A000FF431A400B891A4302804B68C3620B88B5
:1021B0000385054B984202D0044B984201D18B7A9B
:1021C0000386012383827047000001400004014020
:1021D0000004004000080040000C004000100040D7
:1021E0000014004010B500F081F80FE04FF080407F
:1021F000FFF722FF0B490988A1F5FA71884205D93A
:102200004FF08040FFF718FF80B210BD0221480751
:10221000FFF715FF0028E9D04FF08040FFF709FFD6
:1022200080B2F2E724000020F0B585B00746781EA2
:1022300081B24FF0FF30FFF71DFE002408E0FFF7EA
:10224000D1FF2DF814000A2000F0D4F9601CC4B2AC
:102250000A2CF4DB002419E0002511E03DF81510EC
:10226000681C3DF81000814208DD681C3DF81060D4
:102270003DF815102DF810102DF81560681CC5B22A
:10228000C4F10900A842E9DC601CC4B2092CE3DBFC
:102290000026022405E03DF81400304486B2601C9C
:1022A000C4B2082CF7DB062096FBF0F00849088042
:1022B0000846018807A0FDF7E9FF05480088B0F14E
:1022C000004F02D3012005B0F0BD0020FBE7000065
:1022D00024000020747061645F64656661756C74CD
:1022E0005F76616C3A25640D0A0000001CB5202061
:1022F000009001208DF8040000208DF806000320D6
:102300008DF8050002208DF8070069461348FFF795
:102310000DFA20211148FFF77DFA052000F06AF937
:1023200003214FF08040FFF775FE00214FF0804001
:10233000FFF7E8FE2020009002208DF80400002026
:102340008DF8060003208DF8050000208DF80700A9
:1023500069460248FFF7EAF91CBD00000000024090
:1023600010B540F225511D4800F04AF810B31B4843
:1023700000F000F9C4B21A48008800F40040C8B95F
:102380001748008800F4804060B10A2C03D0002078
:102390001349088020E01248008840F400401049AA
:1023A000088019E00D2C06D10D48008840F48040CB
:1023B0000B49088010E00A480088C0F30D00094965
:1023C0000C5407480088401C0549088008460088CE
:1023D000C72801DD0020088010BD0000001001406A
:1023E000180000202800002021B1828942F4005208
:1023F000828104E082894DF6FF731A408281704722
:1024000070B50246002400230025002040F66A161D
:10241000B14200D100BFC1F3421501F01F030126F4
:1024200006FA03F3012D02D19689334006E0022D0E
:1024300002D1168A334001E0968A33400C120126FD
:1024400006FA04F41688344013B10CB1012000E000
:10245000002070BDF0B503460024002600250020B2
:1024600040F66A17B94200D100BF1846C1F34214C2
:1024700001F01F06012707FA06F5012C01D10C30E7
:1024800004E0022C01D1103000E014301AB10768CA
:102490002F43076002E00768AF430760F0BD00000C
:1024A0002DE9FF4705460E460024A14600BFA04681
:1024B000B08900B100BF2C8A24F44054F088044352
:1024C0002C82AC8941F20C608443B0883189084386
:1024D000718908430443AC81AC8A24F44074B08908
:1024E0000443AC826846FFF7FDFA2048854202D0DB
:1024F0001F48854202D1DDF80C9001E0DDF808901C
:10250000A88900F4004040B109EBC90000EB0910B4
:1025100031684900B0FBF1F707E009EBC90000EBB7
:10252000091031688900B0FBF1F76420B7FBF0F0C7
:1025300004012009642101FB1078A88900F40040FF
:1025400040B1322000EBC800B0FBF1F000F0070012
:10255000044308E0322000EB08106421B0FBF1F0E6
:1025600000F00F0004432C81BDE8FF8700100140FC
:102570000014014001468888C0F30800704700BF7E
:10258000FEE703B401984100009850EAC12018BF4B
:1025900004204A0D18BF40F0010040F2FF72B2EB78
:1025A000515F08BF40F00200012808BF052002B0BB
:1025B000704700BF7047000010B504466FF004007C
:1025C000FFF77CFBE11704EB5171C1F3C701074A28
:1025D00011701046007800EB4001C1EBC0104FF6BF
:1025E000FF7101EAC0000249088010BD1000002000
:1025F0001200002070B504464FF4077094FBF0F011
:10260000C6B24FF4077094FBF0F100FB114085B2A5
:1026100005E04FF4077000F009F8701EC6B2002EF6
:10262000F7D115B1284600F001F870BD0146114AF6
:1026300012884A434FF0E0235A6100229A611A46F9
:10264000126942F001021A6100BF4FF0E0221069E6
:1026500000F001021AB100F48032002AF5D04FF0E8
:10266000E022126922F001024FF0E0231A610022F9
:102670009A6170471200002000BF054A128802F0DC
:102680004002002AF9D0C2B2014B9A807047000084
:10269000001001402DED048B00264FF4A060FFF7E1
:1026A000D5F9A820FFF788FF4FF4E13000F0B0F82B
:1026B000FFF76CF9FFF7E4F80820FFF7B5FDFEF728
:1026C000DBFEFEF76FFF31460020FEF75BFF7AE08E
:1026D000781C87B20020FFF7F5F80446042C0AD1D5
:1026E000B6F57A6F02DA06F1C80086B231460020EC
:1026F000FEF748FF0CE0022C0AD1C82E03DDA6F13C
:10270000C80086B200E0002631460020FEF73AFFFE
:102710000A2F03D0022C01D0042C51D10020FEF747
:1027200005FF054600EE105AB8EE400A10EE100AFA
:1027300000F00AFA41EC190B9FED230B53EC102B20
:1027400000F004F941EC180B00F0CEF8804640464A
:1027500000F0FAF941EC180B53EC182B29461CA099
:10276000FDF794FD0A210420FFF758F8054600EE16
:10277000105AB8EE400A10EE100A00F0E5F941ECEC
:10278000190B9FED110B53EC102B00F0DFF841EC0F
:10279000180B00F0A9F88046404600F0D5F941EC4E
:1027A000180B53EC182B294611A0FDF76FFD1748A5
:1027B000006808B9012000E00020144908600027E3
:1027C0006420FFF717FF83E76666666666664A3F22
:1027D000444143BCC4B4E6C6F7B6C1C8A1B5BDB553
:1027E000C4B5E7D1B9D6B525642C25660D0A00001D
:1027F000414443B6C1C8A1B5BDB5C4B5E7D1B9D64A
:10280000B525642C25660D0A00000000A482424212
:1028100010B588B0044601210846FFF723F90121CD
:102820001020FFF73FF9072209212248FEF7C6FFD3
:1028300007220A211F48FEF7C1FF4FF4C06006902F
:1028400002208DF81C008DF81D0000208DF81E0060
:1028500001208DF81F0006A91648FEF767FF0294B5
:102860000020ADF80C00ADF80E00ADF81000ADF88A
:1028700014000C20ADF8120002A90F48FFF710FE5B
:1028800001210D48FFF7B0FD012240F225510A4811
:10289000FFF7E0FD25208DF8040003208DF80500EA
:1028A0008DF8060001208DF8070001A8FFF792F8C7
:1028B00008B010BD000002400010014010B5002912
:1028C0000AD00878002807D005487844FEF71CF99C
:1028D000002801D0002010BD0248784410BD00003F
:1028E0002E0400002604000021F00042A2F16052F4
:1028F000B2F5801F01F0004328BFD2F17F6C0BD9E5
:102900005FEA001C43EAC20242EB507018BF7047F6
:1029100028BF20F001007047B2F5801FBCBF1846E9
:1029200070474FEA410C1CF5001F02D2084600F028
:1029300081B970B500F0B4F800000089FFF7F6BF68
:102940004FF00040A0F5800070470000DFF848C15C
:1029500070B51CEA111E1EBF1CEA13159EEA0C0F6F
:1029600095EA0C0F00F06F8081EA030423EA4C1310
:102970004EEAD47E21EA4C1141F4801143F48013D5
:10298000AE44A1FB024CA0FB0365AEF17F7E36197D
:1029900055EB0C05A1FB034C4CF10003A0FB021C02
:1029A00016EB0C06654153F10003094218BF46F0CF
:1029B000010613F4007F0BD14FEA03314FEA0530D3
:1029C000340341EA155140EA16506FF003020AE061
:1029D0004FEAC3214FEAC520F40241EA555140EACB
:1029E00056506FF0020202EB2E4201EB025585EACF
:1029F000CE710AD05FEA440C18BF24F0004450F1B5
:102A0000000041F1000120EAD47040F2FE7C6245F2
:102A100000D270BDA84214BF4FF080444FF0404434
:102A2000002E08BF0024BEF1806FA8BFA1F1C041F5
:102A3000BDE8704080F282804FF0000001F1C0419B
:102A400001F0004170479EEA0C0F0CEA131518BF05
:102A500095EA0C0F06D04FF0000081EA030E0EF04D
:102A6000004170BD00F01CF88900013E00F007B87D
:102A700000F009B84FEA430C5FEA5C5C08D081EAD9
:102A8000030100F05BB84FEA410C5FEA5C5CF6D1F1
:102A90004FF00000014970470000FF070000F87F79
:102AA0000EF1020E2EF0030E5EF8046B364205D4D2
:102AB000012A43EB030515F5001F12D8012841EB4D
:102AC000010C1CF5001F0CD80ED14FEAD17C15F576
:102AD000001F0CEB4C0C0CF1020C08BF4CEBD37C30
:102AE00004E04FF0080C01E04FEAD37C0CEB4C05FE
:102AF00026FA05F606F00706B6F1040C06D20EEB30
:102B0000860CBDE870404CF0010C6047DFE80CF02B
:102B1000090B02024FF000414FF00000A1F5002127
:102B200070BD19461046012851EB010418BFD4F5B9
:102B3000001484BF002001F0004170BD0808A0F51A
:102B400000114FEA3101704743004FEAD30C4FEABE
:102B50003C0C43401FBF40070CF1605113F0FE4F87
:102B600070471CF0006F03D100200CF0004170474B
:102B70000CF0004343EA507010B540EACC0000F07E
:102B80000EF800BF000000924FEA0001FFF7D6BF29
:102B90004FF000414FF00000A1F5002170470EF109
:102BA000020E2EF0030E5EF8044B244204D44FEACA
:102BB0004102B2F17F4F11D84FEA4003B3F17F4F8A
:102BC0000CD80ED14FEAD07CB2F17F4F0CEB4C0CFD
:102BD0000CF1020C08BF4CEBD17C04E04FF0080C68
:102BE00001E04FEAD17C0CEB4C0324FA03F404F02F
:102BF0000704B4F1040C06D20EEB840CBDE81040BF
:102C00004CF0010C6047DFE80CF0070802024FF0BF
:102C10000040A0F5800010BD0846420018BFD2F168
:102C2000807288BF00F0004010BD4FF04070E1EEB0
:102C3000100A7047FF2141EAD050C0057047FDF7E8
:102C4000D5BC000002400000000000A00000000011
:102C500005400000000000C8000000000C4000001B
:102C60000000409C00000000194000000020BCBE95
:102C70000000000034400000BFC91B8E00000004AB
:102C8000B5400000504BCFD06607E2CF01000000F6
:102C90006C4100003E8251AADFEEA7340100000023
:102CA000D9420000DCB5A0E23A301F97FFFFFFFFDA
:102CB000B4450000FD25A0C8E9A3C14FFFFFFFFFF9
:102CC000FF3F00000000008000000000FF3F000008
:102CD0000000008000000000142D0008000000200B
:102CE00028000000C40100083C2D00082800002036
:102CF00028070000E00100081C000000430000005D
:102D0000F8FFFFFF0C0000000E0000000F000000A5
:102D10002E00000000000000010203040102030471
:102D20000607080900000000000000000000010084
:0C2D300000000000000000000000000097
:040000050800018965
:00000001FF
