:020000040800F2
:1000000018350120E9020008910700084907000897
:100010008D070008290500084F0E000800000000A9
:10002000000000000000000000000000290200089D
:100030002D05000800000000850200085D0A000888
:100040000303000803030008030300080303000878
:100050000303000803030008310500080303000838
:100060006D050008A9050008E50500080303000860
:100070000303000803030008030300080303000848
:100080000303000803030008030300080303000838
:100090000303000803030008030300080303000828
:1000A0000303000803030008030300080303000818
:1000B00003030008D50A000803030008030300082F
:1000C00003030008030300080303000803030008F8
:1000D00003030008310C00080303000803030008B1
:1000E00003030008030300080303000803030008D8
:1000F00003030008030300080303000803030008C8
:100100000303000803030008050B000803030008AD
:1001100003030008030300080303000803030008A7
:100120000303000803030008030300080303000897
:100130000303000803030008030300080303000887
:100140000303000803030008030300080303000877
:100150000303000803030008030300080303000867
:100160000303000803030008030300080303000857
:100170000303000803030008030300080303000847
:10018000030300080303000800F002F800F03CF845
:100190000AA090E8000C82448344AAF10107DA45E2
:1001A00001D100F031F8AFF2090EBAE80F0013F0F8
:1001B000010F18BFFB1A43F001031847742C00000D
:1001C000942C0000103A24BF78C878C1FAD852079E
:1001D00024BF30C830C144BF04680C6070470000C1
:1001E0000023002400250026103A28BF78C1FBD840
:1001F000520728BF30C148BF0B6070471FB502F0DF
:1002000011FE1FBD10B510BD00F05BF91146FFF7E0
:10021000F5FF00F0ABFE00F079F903B4FFF7F2FF51
:1002200003BC00F016FE00002C4B19680868B0E80B
:10023000F04F80F30988BFF36F8F4FF0000080F319
:10024000118870470000000008480068006880F3CB
:1002500008884FF0000080F3148862B661B6BFF3DF
:100260004F8FBFF36F8F00DF00BF00BF08ED00E0CE
:10027000DFF80C00016841F470010160704700BFB5
:1002800088ED00E0EFF30980BFF36F8F134B1A681E
:100290001EF0100F08BF20ED108A20E9F04F10600B
:1002A00009B44FF0500080F31188BFF34F8FBFF3B4
:1002B0006F8F01F055FF4FF0000080F3118809BCEB
:1002C00019680868B0E8F04F1EF0100F08BFB0ECD6
:1002D000108A80F30988BFF36F8F704748000020B1
:1002E000EFF3058070470000094880470948004740
:1002F000FEE7FEE7FEE7FEE7FEE7FEE7FEE7FEE7D6
:10030000FEE7FEE704480549054A064B7047000032
:100310006D0A000889010008182F012018350120F6
:1003200018310120183101207047032A40F2308033
:1003300010F0030C00F0158011F8013BBCF1020F26
:10034000624498BF11F801CB00F8013B38BF11F8A7
:10035000013BA2F1040298BF00F801CB38BF00F8BE
:10036000013B11F0030300F05880083AC0F0088008
:1003700051F8043B083A51F804CBA0E80810F5E71F
:10038000121D5CBF51F8043B40F8043BAFF3008002
:10039000D20724BF11F8013B11F801CB48BF11F877
:1003A000012B24BF00F8013B00F801CB48BF00F847
:1003B000012B704702F0FF0343EA032242EA0242A4
:1003C00000F05FB84FF0000200B513469446964621
:1003D000203922BFA0E80C50A0E80C50B1F1200158
:1003E000BFF4F7AF090728BFA0E80C5048BF0CC006
:1003F0005DF804EB890028BF40F8042B08BF704764
:1004000048BF20F8022B11F0804F18BF00F8012BD5
:100410007047704770477047704710B5203AC0F07A
:100420000B80B1E81850203AA0E81850B1E81850F5
:10043000A0E81850BFF4F5AF5FEA027C24BFB1E832
:100440001850A0E8185044BF18C918C0BDE81040A3
:100450005FEA827C24BF51F8043B40F8043B08BFAC
:100460007047D20728BF31F8023B48BF11F8012B73
:1004700028BF20F8023B48BF00F8012B70474FF01F
:1004800000020429C0F0128010F0030C3FF49CAF6E
:10049000CCF1040CBCF1020F18BF00F8012BA8BF6F
:1004A00020F8022BA1EB0C01FFF78EBF5FEAC17CA5
:1004B00024BF00F8012B00F8012B48BF00F8012BE6
:1004C0007047754600F02CF8AE4605006946534665
:1004D00020F00700854618B020B5FFF713FFBDE8F0
:1004E00020404FF000064FF000074FF000084FF09B
:1004F000000B21F00701AC46ACE8C009ACE8C0092C
:10050000ACE8C009ACE8C0098D46704710B5044698
:10051000AFF300802046BDE81040FFF77EBE00002C
:1005200000487047B42E012000BFFEE7704700006E
:1005300010B5012000F086F880B10A2000F0AEFC72
:100540000121084800F0F5F8012807D106480068A5
:1005500008B9012000E0002003490860012000F0F4
:100560006BF810BD00000240A082424210B504208A
:1005700000F068F878B10A2000F090FC04210848E7
:1005800000F0D7F838B90748006808B9012000E042
:10059000002004490860042000F04EF810BD00005F
:1005A00000100240A882424210B5082000F04AF82C
:1005B00078B10A2000F072FC0821084800F0B9F870
:1005C00038B90748006808B9012000E00020044954
:1005D0000860082000F030F810BD00000010024054
:1005E000A482424210B5102000F02CF8C8B10A20B5
:1005F00000F054FC10210D4800F09BF888B90C481D
:10060000006808B9012000E0002009490860094895
:10061000D0F8A80208B9012000E000200449091D13
:100620000860102000F008F810BD00000010024023
:10063000A4824242008042420149086070470000A3
:10064000143C014001460020034A12680A400AB1E6
:10065000012000E000207047143C0140F0B50A463C
:1006600000210023002400BF3DE0012505FA01F32D
:10067000156805EA03049C4234D105684F0003263F
:10068000BE40B543056015794E00B5400668354358
:1006900005601579012D02D01579022D16D18568D6
:1006A0004F000326BE40B543856055794E00B540E6
:1006B000866835438560456801268E40B5434560B0
:1006C000456896798E40B6B235434560C5684F009F
:1006D0000326BE40B543C560D5794E00B540C66817
:1006E0003543C560491C1029BFD3F0BDF0B50023C8
:1006F00000244D07ED0E02FA05F3CE1000F120059F
:1007000055F826504E07F70E0F26BE40B543CF10C2
:1007100000F1200646F82750CE1000F1200555F8CC
:10072000265045EA0304CE1000F1200545F8264086
:10073000F0BD0246002013690B400BB1012000E020
:10074000002070470183704700BFFEE71CB5012100
:10075000202000F065F84FF4C060009001208DF873
:10076000040000208DF8060003208DF8050001200C
:100770008DF8070069460448FFF770FF4FF4C06129
:100780000148FFF7DFFF1CBD0014024000BFFEE779
:100790007047000070B5002100230F22C4781CB3FD
:1007A000174C246804F4E064C4F5E064C4F3072142
:1007B000C1F10404E3B20A4144789C40E1B2847878
:1007C000144021430C07210E0E4C05786155047826
:1007D00004F01F050124AC4005786D11AD0005F152
:1007E000E025C5F8004109E0047804F01F05012464
:1007F000AC40054D0678761145F8264070BD0000E6
:100800000CED00E000E400E080E100E0024901437B
:10081000024A1160704700000000FA050CED00E08C
:1008200029B1064A12680243044B1A6004E0034AE5
:1008300012688243014B1A60704700003038024052
:1008400029B1064A12680243044B1A6004E0034AC5
:1008500012688243014B1A6070470000443802401E
:10086000F0B5002100220024022500260223324F89
:100870003F6807F00C0121B1042905D0082937D1C0
:1008800005E02E4F076036E02D4F076033E02A4F1A
:100890003F1F3F68C7F38056274F3F1F3F6807F051
:1008A0003F036EB1264FB7FBF3F7DFF88CC0ACF116
:1008B000040CDCF800C0CCF3881C07FB0CF40CE043
:1008C0001E4FB7FBF3F7DFF870C0ACF1040CDCF897
:1008D00000C0CCF3881C07FB0CF4174F3F1F3F6888
:1008E000C7F301477F1C7D00B4FBF5F7076002E00A
:1008F000124F076000BF00BF0F4F3F6807F0F001C5
:100900000909104F7A5C0768D74047600A4F3F6873
:1009100007F4E051890A0B4F7A5C4768D74087603B
:10092000054F3F6807F46041490B064F7A5C476802
:10093000D740C760F0BD0000083802400024F40032
:1009400000127A00000000200CB5002001900090F9
:100950003448006840F480303249086000BF3148B4
:10096000006800F4003000900198401C019000984D
:1009700018B90198B0F5A04FF1D12A48006800F4E9
:10098000003010B10120009001E00020009000989C
:10099000012846D123484030006840F0805021496A
:1009A000403108602048006840F440401E4908601B
:1009B0001C48083000681B49083108600846006878
:1009C00040F4004008600846006840F4A050086009
:1009D0001648091F0860081F006840F08070091F52
:1009E000086000BF0F48006800F000700028F9D0D0
:1009F00040F205700E4908600A480830006820F08F
:100A000003000849083108600846006840F0020009
:100A1000086000BF03480830006800F00C00082898
:100A2000F8D10CBD00380240007000400854400767
:100A3000003C0240042808D14FF0E021096941F050
:100A400004014FF0E022116107E04FF0E021096955
:100A500021F004014FF0E0221161704710B501F060
:100A600087FF012801D001F075FC10BD10B51548B5
:100A7000006840F47000134908601348006840F0B3
:100A800001001149086000200F49083108600E4834
:100A900000680E4908400C4908600D48091D0860AF
:100AA000081F006820F48020091F08600020064904
:100AB0000C310860FFF748FF4FF0006001498039B2
:100AC000086010BD88ED00E000380240FFFFF6FE30
:100AD0001030002410B50121084800F08DF80128DD
:100AE00007D10748006808B9012000E00020044948
:100AF00008600121014800F06DF810BD00040040BD
:100B0000A882424210B53048007800F080000028EA
:100B100054D101212D4800F06FF8D0B12A48007857
:100B200000F04000A8B12848007800F03F003F28BE
:100B30000AD12548007840F08000234908704FF022
:100B4000FF302349086004E01F480078401C1E491C
:100B5000087002211D4800F04FF878B31A48007859
:100B600000F0400078B11848007840F08000164945
:100B70000870164800F03DF8154908600021134838
:100B800000F04BF81AE000200F4908701049086087
:100B90000D48007840F040000B49087000210B48D8
:100BA00000F01BF80021094800F040F80221074836
:100BB00000F033F80121054800F00FF80321034845
:100BC00000F008F810BD000040000020000C0040BC
:100BD00044000020CA430282704721B1028842F0DB
:100BE0000102028004E002884FF6FE731A40028080
:100BF00070470146486B704730B50246002000231D
:100C00000024158A05EA0103958905EA010413B158
:100C10000CB1012000E0002030BD0A460021018C0B
:100C20004FF6FD73194011430184704741627047CC
:100C300010B540F225511D4800F04AF810B31B488A
:100C400000F000F9C4B21A48008800F40040C8B9A6
:100C50001748008800F4804060B10A2C03D00020BF
:100C60001349088020E01248008840F400401049F1
:100C7000088019E00D2C06D10D48008840F4804012
:100C80000B49088010E00A480088C0F30D000949AC
:100C90000C5407480088401C054908800846008815
:100CA000C72801DD0020088010BD000000100140B1
:100CB0003C000020BC00002021B1828942F4005297
:100CC000828104E082894DF6FF731A408281704769
:100CD00070B50246002400230025002040F66A1665
:100CE000B14200D100BFC1F3421501F01F0301263C
:100CF00006FA03F3012D02D19689334006E0022D56
:100D000002D1168A334001E0968A33400C12012644
:100D100006FA04F41688344013B10CB1012000E047
:100D2000002070BDF0B503460024002600250020F9
:100D300040F66A17B94200D100BF1846C1F3421409
:100D400001F01F06012707FA06F5012C01D10C302E
:100D500004E0022C01D1103000E014301AB1076811
:100D60002F43076002E00768AF430760F0BD000053
:100D70002DE9FF4705460E460024A14600BFA046C8
:100D8000B08900B100BF2C8A24F44054F088044399
:100D90002C82AC8941F20C608443B08831890843CD
:100DA000718908430443AC81AC8A24F44074B0894F
:100DB0000443AC826846FFF753FD2048854202D0C9
:100DC0001F48854202D1DDF80C9001E0DDF8089063
:100DD000A88900F4004040B109EBC90000EB0910FC
:100DE00031684900B0FBF1F707E009EBC90000EBFF
:100DF000091031688900B0FBF1F76420B7FBF0F00F
:100E000004012009642101FB1078A88900F4004046
:100E100040B1322000EBC800B0FBF1F000F0070059
:100E2000044308E0322000EB08106421B0FBF1F02D
:100E300000F00F0004432C81BDE8FF870010014043
:100E40000014014001468888C0F30800704700BFC5
:100E5000FEE700BF7047000070B504460420FFF7AE
:100E6000E9FD0C48047025464FF47A704543012093
:100E7000094908804FF0E020006940F002004FF07F
:100E8000E021086108464561006940F00100086101
:100E900070BD0000340000203600002070B504460C
:100EA00001F066FD012810D00B480088844206D36B
:100EB00009480088B4FBF0F5284601F009F8064817
:100EC0000088B4FBF0F100FB11444FF47A7104FB8D
:100ED00001F000F003F870BD3600002070B5034645
:100EE00000224FF0E02675690D4E367803FB06F4BC
:100EF0004FF0E026B16910E04FF0E026B06988427B
:100F00000BD0884202D20E1A324402E02E1A0E444E
:100F100032440146A24200D300E0EDE700BF70BDBD
:100F20003400002009E005480068C0430449C1F8C6
:100F3000A4024FF4FA7000F0CBFFF4E7A48242421F
:100F4000008042420DE0002006490860C82000F001
:100F5000BFFF01200449C1F8A8024FF4487000F017
:100F6000B7FFF0E7A8824242008042421CB54FF42E
:100F70004070FFF74BFCA820FFF76EFF4FF4E13005
:100F800000F0E8FDFFF7E2FB064801210023802284
:100F9000CDE9001004A1074801F0BAFC01F08EF879
:100FA00000201CBD1000002073746172745F7461B6
:100FB000736B0000E91A00082DE9F04105460E4662
:100FC0001C4807681C480068001D00F019FE50B955
:100FD0001948006890F82C100120884017490968CA
:100FE000814316480160681C38B936B1124801685F
:100FF000091D134800F042FE1AE07C190E480068F3
:101000004460BC4207D20C480168091D0D480068C5
:1010100000F01AFE0CE008480168091D0A48006843
:1010200000F012FE09480068844201D207480460BB
:10103000BDE8F0815C000020480000206000002036
:1010400078020020500000204C0000207800002092
:1010500010B5044600F01EFE24480068401C2349D9
:1010600008602348006840B92148046008460068C9
:1010700001280DD100F0D6F90AE01E48006838B901
:101080001B480068C06AE16A884201D818480460B9
:1010900019480068401C1849086008460068206428
:1010A00094F82C100120884014490968084313491A
:1010B0000860E16A01EB8101114A02EB8100211D08
:1010C00000F0DCFD00F010FE0A48006868B1084836
:1010D0000068C06AE16A884207D24FF0805009492F
:1010E0000860BFF34F8FBFF36F8F10BD5800002013
:1010F00048000020640000207400002060000020F0
:10110000C401002004ED00E010B500F0C3FD10485C
:101110000068D0B90F4800F087FD0F4800F084FD4B
:101120000C480E4908600C480D49086000220C214B
:101130000A2001F029F9064908600846006820B134
:1011400008A10348006800F087FE00F0CDFD10BD47
:101150008C0000208C020020A002002084000020CF
:1011600088000020546D72510000000010B516E098
:1011700000F090FD0C48C068C468201D00F040FDE0
:101180000A480068401E0949086009480068401E76
:101190000749086000F0A8FD204600F05FF8044809
:1011A00000680028E4D110BD64020020580000202F
:1011B0005400002070B504460D46206C70B1216CBF
:1011C000E0680144E160D4E90210884201D321685B
:1011D000E1602846226CE168FFF7A7F870BD2DE9B1
:1011E000F04104460F4615464FF00008A66B206CF0
:1011F00048B9206800282CD1A06801F073FC804613
:101200000020A06025E07DB93946226C6068FFF7B8
:101210008CF8216C606808446060D4E90101884260
:1012200017D32068606014E03946226CE068FFF74D
:101230007CF8216CE068411AE1602168E06888422E
:1012400003D2216CA068411AE160022D01D106B1E0
:10125000761E701CA0634046BDE8F08110B50446C0
:10126000206B00F05FFD204600F05CFD10BD00002B
:101270000146084A126812680AB9012200E00022F9
:101280000A600A6822B9034A1268D268106800E04E
:10129000002070478400002030B54FF49633174883
:1012A00000F007042CB1C01D20F00700134C041BF4
:1012B0001B1B0246124C22600024114D6C60D0189A
:1012C000083820F007000F4C206000240D4D2D68D9
:1012D0006C600C4D2D682C601146441A4C60094C12
:1012E00024680C60084D4C682C60084D4C682C60DC
:1012F0004FF00044064D2C6030BD0000B4020020C9
:1013000098000020A0000020A8000020A4000020D9
:10131000AC00002000BFFFF729FF06480068012845
:10132000F9D94FF0805004490860BFF34F8FBFF3E5
:101330006F8FF0E7C401002004ED00E02DE9F041DB
:1013400006460D4617469846069C0DB9246000E0F7
:101350002760E66325640121204601F043F884F804
:101360004C80BDE8F0812DE9F05F82460E46904644
:101370009B460A9F0C9C4FEA8801A522206BFFF731
:1013800019F8A8F10100216B01EB800929F0070988
:1013900009F0070008B9012000E0002050B900BFA3
:1013A000502080F31188BFF34F8FBFF36F8F00BFC2
:1013B00000BFFEE786B1002507E0715D04F134004F
:1013C0004155705D00B902E06D1C0A2DF5D300BFD8
:1013D00000213D20015502E0002084F83400052F53
:1013E00000D30427E762A7640020E064201D00F01A
:1013F00028FC04F1180000F024FC2461C7F105006A
:10140000A06164620020206584F854005A46514669
:10141000484600F053FB20600B9808B10B9804601D
:10142000BDE8F09F10B5002407E004EB84010F4AEB
:1014300002EB810000F0F8FB641C052CF5D30C488E
:1014400000F0F2FB0B4800F0EFFB0B4800F0ECFB68
:101450000A4800F0E9FB0A4800F0E6FB04480949A5
:10146000086004480849086010BD0000C40100205D
:10147000280200203C0200205002002064020020CC
:10148000780200204C0000205000002010B50146DA
:10149000164800E0006803688B42FBD302464368AD
:1014A00013448B4204D143684C6823444360014693
:1014B0000A464B6813440468A34211D10C4C0368DC
:1014C0002468A34208D04B680468646823444B60D6
:1014D00003681B680B6005E0054B1B680B6001E0AF
:1014E00003680B60884200D0016010BD98000020A6
:1014F000A00000202DE9F04104460D4616461F4687
:101500004FF0000865602461B5420CD8F01BA1695A
:10151000884202D34FF0010811E0211D09480068FC
:1015200000F092FB0BE0BE4204D2BD4202D34FF06A
:10153000010804E0211D0448006800F085FB4046D6
:10154000BDE8F081880000208400002070B50546C9
:1015500000F0A0FBA86B08B9012400E0002400F013
:10156000C3FB204670BD70B5054600F093FBA86B29
:10157000E96B884201D1012400E0002400F0B4FBB3
:10158000204670BDF8B505460F461A480068C06889
:10159000C468201D00F034FB94F8280000F004001B
:1015A000E8B1A06941192B463A462046FFF7A2FF51
:1015B000D8B1002003462A4601460090204601F09B
:1015C000EFFB064656B900BF502080F31188BFF3E9
:1015D0004F8FBFF36F8F00BF00BFFEE705E094F8A9
:1015E000280020F0010084F828002046216A88475E
:1015F000F8BD00008400002070B586B08BE0039831
:101600000028FBDB059C606908B9012000E0002090
:1016100010B9201D00F0F4FA02A800F0DDF805462C
:1016200003980A2875D2DFE800F0090507394163FD
:1016300006083A4200BF00BF00BF00BF94F8280070
:1016400040F0010084F828000498A269811803463C
:101650002A462046FFF74EFFF8B12046216A884708
:1016600094F8280000F00400B8B10020009004981D
:10167000A169421800231946204601F091FB064655
:1016800056B900BF502080F31188BFF34F8FBFF3CE
:101690006F8F00BF00BFFEE700BF3BE000BF94F8C4
:1016A000280020F0010084F8280033E000BF94F8FF
:1016B000280040F0010084F828000498A061A06987
:1016C00008B1012000E0002050B900BF502080F395
:1016D0001188BFF34F8FBFF36F8F00BF00BFFEE7CE
:1016E000A06941192B462A462046FFF703FF11E067
:1016F00094F8280000F0020018B9204600F012FB10
:1017000005E094F8280020F0010084F8280001E0AA
:10171000FFE700BF00BF002203A90448006800F0F3
:10172000FDFF00287FF46BAF06B070BD8C00002079
:10173000F8B505460C4600F00BFD684600F04CF885
:101740000646009820BB44B9B54206D801F07AFAA3
:1017500031462846FFF716FF1CE03CB10E480068F2
:10176000006808B9012000E000200446A91B2246B9
:101770000A48006800F086FB01F064FA50B94FF0A7
:10178000805007490860BFF34F8FBFF36F8F01E0B0
:1017900001F058FAF8BD0000880000208C000020FD
:1017A00004ED00E00A490968096809B9012100E06F
:1017B000002121B14FF0FF31064A116006E00449D3
:1017C0000968C968C868034A416811607047000029
:1017D0004C0000207800002070B5044601F0D8F8D5
:1017E000054607480068854204D200F00BF8012046
:1017F000206001E00020206001480560284670BD9F
:10180000940000202DE9F84334E025480068C068C2
:10181000056823480068C068C468201D00F0F0F91E
:101820002046216A884794F8280000F0040008B395
:10183000A0694619AE4207D966602461211D184887
:10184000006800F001FA15E0002003462A46014630
:101850000090204601F0A4FA074657B900BF502077
:1018600080F31188BFF34F8FBFF36F8F00BF00BFAE
:10187000FEE700BF0A480068006808B9012000E0E0
:1018800000200028C1D00648D0F800800548006834
:10189000034908600348C0F80080BDE8F8830000F1
:1018A00084000020880000200E480068401C08B911
:1018B000012000E0002050B900BF502080F31188C3
:1018C000BFF34F8FBFF36F8F00BF00BFFEE700BFB6
:1018D000502080F31188BFF34F8FBFF36F8F00BF8D
:1018E00000BFFEE7B000002008B500BF6846FFF764
:1018F000BFFC044620460099FFF71AFFFFF77CFE65
:10190000F4E770B5044600F0C5F994F9455010E0CD
:10191000606A08B9012000E0002038B904F1240011
:1019200001F044F918B100F087FB00E003E0681E05
:1019300045B2002DECDC00BFFF2084F8450000F02C
:10194000D3F900F0A7F994F9445010E0206908B9E0
:10195000012000E0002048B904F1100001F026F950
:1019600008B100F069FB681E45B200E001E0002DFF
:10197000ECDC00BFFF2084F8440000F0B5F970BD36
:101980002DE9F04104464FF0000800F0E1FB464825
:10199000006808B9FFF780FC444800682040002830
:1019A0006BD1D4B1083404F00700B0B104F00700E3
:1019B000C0F10800044404F0070008B9012000E069
:1019C000002050B900BF502080F31188BFF34F8F23
:1019D000BFF36F8F00BF00BFFEE7002C4DD034482F
:1019E0000068844249D8334E3046056801E02E46EF
:1019F0002D686868A04202D228680028F7D12A48DA
:101A00000068854239D0306800F1080828683060E5
:101A10006868001B102819D92F1907F0070008B9AA
:101A2000012000E0002050B900BF502080F3118851
:101A3000BFF34F8FBFF36F8F00BF00BFFEE7686833
:101A4000001B78606C603846FFF720FD1849686815
:101A50000968081A164908600846006816490968A6
:101A6000884203D212480068134908600F49686829
:101A70000968084368600020286001F0E3F808F076
:101A8000070008B9012000E0002050B900BF502035
:101A900080F31188BFF34F8FBFF36F8F00BF00BF7C
:101AA000FEE74046BDE8F081A0000020AC00002029
:101AB000A400002098000020A8000020001F4FF084
:101AC00080730360001F21F001030360001F054BBA
:101AD000036014380260001F6FF0020303602038B7
:101AE00070470000A91800081CB5044600F0D2F8A1
:101AF0000D48022100233222CDE900100BA10E482F
:101B000000F006FF0D48032100233222CDE900102A
:101B10000BA10E4800F0FCFE0D48006800F006FA2C
:101B200000F0E2F81CBD0000140000206C65643079
:101B30005F7461736B000000250F0008180000201F
:101B40006C6564315F7461736B000000450F0008C1
:101B50001000002010B588B0044601210846FEF7A9
:101B60005FFE01211020FEF76BFE072209212248AB
:101B7000FEF7BCFD07220A211F48FEF7B7FD4FF410
:101B8000C060069002208DF81C008DF81D0000201A
:101B90008DF81E0001208DF81F0006A91648FEF7DB
:101BA0005DFD02940020ADF80C00ADF80E00ADF81C
:101BB0001000ADF814000C20ADF8120002A90F4877
:101BC000FFF7D6F801210D48FFF776F8012240F221
:101BD00025510A48FFF7A6F825208DF804000320B8
:101BE0008DF805008DF8060001208DF8070001A88A
:101BF000FEF7D0FD08B010BD00000240001001400B
:101C000001460A69D1E901309860D1E901035860C1
:101C10005068884201D188685060002008611068CF
:101C2000401E10601068704700F1080141604FF0DD
:101C3000FF31816000F10801C16001610021016094
:101C4000704700210161704710B502460B685C1CAB
:101C50000CB9106907E002F1080000E04068446830
:101C600024689C42FAD944684C604C68A160886042
:101C700041600A611468641C146010BD42684A60C7
:101C800093688B60936859609160086103685B1C7E
:101C90000360704700BF502080F31188BFF34F8F5F
:101CA000BFF36F8F00BF0E480068401C0C490860EE
:101CB00008460068012812D10A480068C0B208B975
:101CC000012000E0002050B900BF502080F31188AF
:101CD000BFF34F8FBFF36F8F00BF00BFFEE77047AA
:101CE000B000002004ED00E00D48006850B900BFCE
:101CF000502080F31188BFF34F8FBFF36F8F00BF69
:101D000000BFFEE706480068401E05490860084617
:101D1000006820B9002080F3118800BF00BF704721
:101D2000B000002070B506463546002E3FD0083D75
:101D30002C461F4960680968084008B1012000E08E
:101D4000002050B900BF502080F31188BFF34F8F9F
:101D5000BFF36F8F00BF00BFFEE7206808B9012006
:101D600000E0002050B900BF502080F31188BFF37D
:101D70004F8FBFF36F8F00BF00BFFEE70C49606855
:101D80000968084098B1206888B9094960680968FD
:101D90008843606000F0DCF906496068096808441F
:101DA000044908602046FFF771FB00F04BFF70BD4F
:101DB000AC000020A400002000204FF0E0210861CA
:101DC0008861064800684FF47A71B0FBF1F0401E5C
:101DD0004FF0E02148610720086170472000002093
:101DE00070B5FEF77DFA0446102C16D304F1E020FE
:101DF00090F8F05315480078854201DB012000E09F
:101E0000002050B900BF502080F31188BFF34F8FDE
:101E1000BFF36F8F00BF00BFFEE70D48006800F4FE
:101E2000E0600C490968884201D8012000E00020E8
:101E300050B900BF502080F31188BFF34F8FBFF31C
:101E40006F8F00BF00BFFEE770BD0000B400002030
:101E50000CED00E0B8000020024600200BE0084B2B
:101E600053F8303033B9064B43F8301003EBC0035E
:101E70005A6002E0401C0828F1D300BF7047000000
:101E8000840100202DE9F04105460E4617462C46F8
:101E9000FFF700FF94F94400401C10B9002084F8BB
:101EA000440094F94500401C10B9002084F8450016
:101EB000FFF71AFFA06B28B93A46314604F1240017
:101EC00000F0DCF82046FFF71CFDBDE8F0810000C3
:101ED00070B504460025D4B11248006808B9012045
:101EE00000E0002050B900BF502080F31188BFF3FC
:101EF0004F8FBFF36F8F00BF00BFFEE700F028F9E0
:101F000000212046FFF758F800F09CFE05463DB939
:101F10004FF0805004490860BFF34F8FBFF36F8FBD
:101F200070BD00008000002004ED00E070B50546A3
:101F3000FFF7B0FE15B93048006800E028460446B7
:101F4000201DFFF75DFE78B9E06A00EB80002B49A9
:101F500051F8200040B994F82C10012088402849FD
:101F60000968814326480160A06A18B104F118008D
:101F7000FFF746FE23480068401C224908601E48BF
:101F80000068844209D1211D1F48FFF777FE1F48D2
:101F90000068401C1D49086009E01D480068401E9B
:101FA0001B4908602046FFF759F9FFF7FBFBFFF7D5
:101FB0009BFE18480068E8B10F480068844219D1B8
:101FC0001548006808B9012000E0002050B900BFA2
:101FD000502080F31188BFF34F8FBFF36F8F00BF86
:101FE00000BFFEE74FF080500C490860BFF34F8FF1
:101FF000BFF36F8F70BD000048000020C4010020B7
:1020000060000020740000206402002054000020C2
:1020100058000020640000208000002004ED00E053
:10202000034909680160034909684160704700007D
:10203000700000205C00002001200149086070470A
:102040006C00002070B504460D4654B900BF502006
:1020500080F31188BFF34F8FBFF36F8F00BF00BFB6
:10206000FEE70548016818312046FFF7EDFD012124
:102070002846FEF7A1FF70BD4800002070B5054658
:102080000E46144655B900BF502080F31188BFF3A7
:102090004F8FBFF36F8F00BF00BFFEE70648016898
:1020A00018312846FFF7EAFD0CB14FF0FF36214604
:1020B0003046FEF781FF70BD480000201CB51D486A
:1020C00000210B468222CDE900101BA11C4800F024
:1020D0001FFC0446012C02D100F036FE0446012C00
:1020E00015D100BF502080F31188BFF34F8FBFF38D
:1020F0006F8F00BF4FF0FF30124908600120124976
:10210000086000201149086000F070F810E0601CC1
:1021100008B1012000E0002050B900BF502080F33A
:102120001188BFF34F8FBFF36F8F00BF00BFFEE773
:102130001CBD00007C00002049444C45000000000C
:102140001513000878000020640000205C000020C7
:1021500002480068401C0149086070478000002068
:102160001D48006818B101201C49086032E00020B9
:102170001A4908601A480068B0FA80F0C0F11F01DF
:1021800001EB8100174A52F8200008B1012000E05D
:10219000002050B900BF502080F31188BFF34F8F4B
:1021A000BFF36F8F00BF00BFFEE701EB81020D4B55
:1021B00003EB820042685268426000F10802436803
:1021C000934202D14268526842604268D268064B2C
:1021D0001A6000BF70470000800000206C000020E3
:1021E00060000020C4010020480000201CB55248B7
:1021F00000685249884201D0012000E0002050B917
:1022000000BF502080F31188BFF34F8FBFF36F8F53
:1022100000BF00BFFEE7484800684849491E8842A1
:1022200001D0012000E0002050B900BF502080F311
:102230001188BFF34F8FBFF36F8F00BF00BFFEE762
:102240003F49084600780190FF200A461070084672
:10225000007800909DF8000000F0F0009DF800204C
:10226000904201D1012000E0002050B900BF502071
:1022700080F31188BFF34F8FBFF36F8F00BF00BF94
:10228000FEE79DF8000000F050002E4A1070072075
:102290002D4A106009E02C480068401E2A4A106050
:1022A0009DF800004006000E00909DF8000000F030
:1022B00080008028EFD024480068C0F1070004287F
:1022C00001D1012000E0002050B900BF502080F370
:1022D0001188BFF34F8FBFF36F8F00BF00BFFEE7C2
:1022E000194800680002184A10601046008800F47F
:1022F000E0601060124A019810700F4820300068AA
:1023000040F470000C49203108600846006840F035
:1023100070400860FFF750FD00200C490860FDF791
:10232000A7FF0B48006840F0404009490860FDF7EE
:102330008BFF00201CBD000000ED00E071C20F41CA
:1023400000E400E0B4000020B8000020B00000204D
:1023500034EF00E010B500BF502080F31188BFF3C8
:102360004F8FBFF36F8F00BF00F018FB18B14FF015
:1023700080500449086000BF002080F3118800BF2E
:1023800010BD000004ED00E02DE9F84305460E46BF
:1023900090460DB1012000E0002050B900BF502050
:1023A00080F31188BFF34F8FBFF36F8F00BF00BF63
:1023B000FEE70EB9002701E005FB06F707F1500024
:1023C000FFF7DEFA04464CB1A14609F15009434635
:1023D0004A46314628460094FEF7B0FF2046BDE845
:1023E000F883000070B505460E462C4654B900BF70
:1023F000502080F31188BFF34F8FBFF36F8F00BF62
:1024000000BFFEE7FFF746FCD4E90F12206801FB8E
:102410000200A0600020A06320686060E06B401EA6
:10242000226C216800FB0211E160FF2084F8440067
:1024300084F845009EB9206908B9012000E0002019
:10244000A8B904F1100000F0B1FB80B14FF080504A
:1024500009490860BFF34F8FBFF36F8F07E004F1A6
:102460001000FFF7E1FB04F12400FFF7DDFBFFF7AD
:102470003BFC012070BD000004ED00E02DE9FF43AE
:1024800083B0064688461D464FF00009344654B9CD
:1024900000BF502080F31188BFF34F8FBFF36F8FC1
:1024A00000BF00BFFEE7B8F1000F01D1206C08B9F2
:1024B000012000E0002050B900BF502080F31188B7
:1024C000BFF34F8FBFF36F8F00BF00BFFEE7022D3A
:1024D00002D1E06B012801D1012000E0002050B9B9
:1024E00000BF502080F31188BFF34F8FBFF36F8F71
:1024F00000BF00BFFEE700F03BFA08B9059808B935
:10250000012000E0002050B900BF502080F3118866
:10251000BFF34F8FBFF36F8F00BF00BFFEE700BF59
:10252000FFF7B8FBA06BE16B884201D3022D28D1E5
:102530002A4641462046FEF752FE0746606A08B921
:10254000012000E0002068B904F1240000F02EFB17
:1025500088B14FF0805032490860BFF34F8FBFF30E
:102560006F8F08E03FB14FF080502D490860BFF3F6
:102570004F8FBFF36F8FFFF7B7FB012007B0BDE8A8
:10258000F083059818B9FFF7AFFB0020F6E7B9F123
:10259000000F04D101A8FFF743FD4FF00109FFF739
:1025A000A3FBFFF7D5FDFFF775FB94F94400401C32
:1025B00010B9002084F8440094F94500401C10B97B
:1025C000002084F84500FFF78FFB05A901A800F063
:1025D00059F9F0B92046FEF7C6FFA0B104F110008A
:1025E0000599FFF72FFD2046FFF78BF900F02AFB36
:1025F000002895D14FF0805009490860BFF34F8FF4
:10260000BFF36F8F8CE72046FFF77BF900F01AFBD2
:1026100086E72046FFF775F900F014FB0020ADE7D0
:1026200004ED00E02DE9F05F07468A4690461E461D
:102630003C4654B900BF502080F31188BFF34F8F40
:10264000BFF36F8F00BF00BFFEE7BAF1000F01D1EB
:10265000206C08B9012000E0002050B900BF5020D4
:1026600080F31188BFF34F8FBFF36F8F00BF00BFA0
:10267000FEE7022E02D1E06B012801D1012000E02B
:10268000002050B900BF502080F31188BFF34F8F56
:10269000BFF36F8F00BF00BFFEE7FFF7A1FB00BFD6
:1026A0005021EFF3118081F31188BFF34F8FBFF3F7
:1026B0006F8F00BF0546A06BE16B884201D3022EED
:1026C00023D194F945B0324651462046FEF787FDA6
:1026D0000BF1010088B9606A08B9012000E0002010
:1026E00080B904F1240000F061FA58B1B8F1000F8C
:1026F00008D00120C8F8000004E00BF1010040B24E
:1027000084F845004FF0010901E04FF0000900BFD7
:1027100085F3118800BF4846BDE8F09F2DE9F741D9
:1027200083B005460E464FF000082C4654B900BF52
:10273000502080F31188BFF34F8FBFF36F8F00BF1E
:1027400000BFFEE70EB9206C08B9012000E00020B0
:1027500050B900BF502080F31188BFF34F8FBFF3F3
:102760006F8F00BF00BFFEE700F002F908B90598BF
:1027700008B9012000E0002050B900BF502080F3CC
:102780001188BFF34F8FBFF36F8F00BF00BFFEE70D
:1027900000BFFFF77FFAA76BF7B131462046FEF77F
:1027A00009FD781EA063206908B9012000E000201F
:1027B00060B904F1100000F0F9F938B14FF0805021
:1027C0002F490860BFF34F8FBFF36F8FFFF78CFA6D
:1027D000012006B0BDE8F081059818B9FFF784FA2A
:1027E0000020F6E7B8F1000F04D101A8FFF718FCAC
:1027F0004FF00108FFF778FAFFF7AAFCFFF74AFA53
:1028000094F94400401C10B9002084F8440094F965
:102810004500401C10B9002084F84500FFF764FA19
:1028200005A901A800F02EF8F0B92046FEF78EFEAB
:10283000A0B104F124000599FFF704FC2046FFF73E
:1028400060F800F0FFF90028A3D14FF080500C4948
:102850000860BFF34F8FBFF36F8F9AE72046FFF7F3
:1028600050F800F0EFF994E72046FFF74AF800F03F
:10287000E9F92046FEF76AFE00288AD00020A8E782
:1028800004ED00E070B505460C4655B900BF502078
:1028900080F31188BFF34F8FBFF36F8F00BF00BF6E
:1028A000FEE754B900BF502080F31188BFF34F8F6B
:1028B000BFF36F8F00BF00BFFEE7FFF7EBF91248D1
:1028C00002686868131A2068401C08B9002617E0DF
:1028D0000E4928680968884204D06868904201D887
:1028E00001260DE02068984207D92068C01A2060B0
:1028F0002846FFF795FB002602E000202060012615
:10290000FFF7F2F9304670BD5C0000207000002037
:102910002DE9FF4F85B0804689461746DDE912ABA9
:10292000B800FFF72DF8064656B15820FFF728F8F3
:1029300004460CB1266304E03046FFF7F3F900E0EB
:1029400000247CB10020CDE900ABCDE902403A463D
:1029500049464046089BFEF706FD2046FEF778FBF9
:10296000012501E04FF0FF35284609B0BDE8F08FA2
:102970000549096809B9012005E00449096809B950
:10298000022000E00020704764000020800000204A
:1029900001490868704700005C0000202DE9F04103
:1029A0004FF0000844480068002877D14348006889
:1029B000451C4248056015BB41480068006808B9DD
:1029C000012000E0002050B900BF502080F31188A2
:1029D000BFF34F8FBFF36F8F00BF00BFFEE73848D4
:1029E0000768384800683649086036480760364846
:1029F0000068401C34490860FEF7D4FE00BF33482D
:102A0000006885423CD300BF2D480068006808B9C3
:102A1000012000E0002020B14FF0FF302B4908607A
:102A20002DE027480068C068C4686668B54202D2D5
:102A30002648066023E0201DFFF7E2F8A06A18B1DF
:102A400004F11800FFF7DCF894F82C1001208840FE
:102A50001F49096808431E490860E16A01EB8101CA
:102A60001C4A02EB8100211DFFF708F91A49E06AB0
:102A70000968C96A8842C7D34FF00108C4E700BF9C
:102A800015480068C06A00EB8000124951F8200028
:102A9000012801D94FF0010805E0FFE70F48006861
:102AA000401C0E4908600E48006808B14FF001084C
:102AB0004046BDE8F0810000800000205C0000205E
:102AC0004C00002050000020700000207800002002
:102AD00060000020C40100204800002068000020A1
:102AE0006C00002070B505462C460026002D55D000
:102AF0002B480068844201D1012000E0002050B939
:102B000000BF502080F31188BFF34F8FBFF36F8F4A
:102B100000BF00BFFEE7E06C50B900BF502080F35B
:102B20001188BFF34F8FBFF36F8F00BF00BFFEE769
:102B3000E06C401EE064A16CE06A88422ED0E06C3C
:102B400060BB201DFFF75CF878B9E06A00EB8000FD
:102B5000144951F8200040B994F82C100120884005
:102B600011490968814310480160A06CE062E06A85
:102B7000C0F10500A06194F82C10012088400A499A
:102B80000968084308490860E16A01EB8101054AC8
:102B900002EB8100211DFFF771F80126304670BD60
:102BA00048000020C40100206000002070B50646E7
:102BB000F068C46854B900BF502080F31188BFF397
:102BC0004F8FBFF36F8F00BF00BFFEE704F1180007
:102BD000FFF716F815480068A8B9201DFFF710F890
:102BE00094F82C10012088401149096808431049C5
:102BF0000860E16A01EB81010E4A02EB8100211DB0
:102C0000FFF73CF804E004F118010B48FFF736F831
:102C10000A49E06A0968C96A884204D90125012085
:102C20000749086000E00025284670BD80000020AC
:102C300060000020C4010020500200204800002055
:102C40006C00002070B5002400263648006850B99A
:102C500000BF502080F31188BFF34F8FBFF36F8FF9
:102C600000BF00BFFEE7FFF715F82E480068401EC2
:102C70002C4908600846006800284FD12A4800689F
:102C800000284BD024E02948C068C46804F118002B
:102C9000FEF7B6FF201DFEF7B3FF94F82C100120BD
:102CA000884023490968084321490860E16A01EB2B
:102CB0008101204A02EB8100211DFEF7DFFF1E4942
:102CC000E06A0968C96A884202D301201B4908608A
:102CD0001648006808B9012000E000200028D2D082
:102CE0000CB1FEF75FFD1648056865B100BFFFF740
:102CF00055FE10B10120114908606D1E002DF6D15E
:102D000000200F4908600D48006838B101263007DF
:102D10000C490860BFF34F8FBFF36F8FFEF7E4FFDE
:102D2000304670BD80000020580000205002002076
:102D300060000020C4010020480000206C0000203A
:102D40006800002004ED00E01CB50024FEF7DCF96B
:102D50000E48006858B10E48022100234FF48272D9
:102D6000CDE900100BA10D48FFF7D2FD044654B980
:102D700000BF502080F31188BFF34F8FBFF36F8FD8
:102D800000BF00BFFEE720461CBD00008C000020F5
:102D900090000020546D722053766300E9180008FB
:102DA0002DE9FE4304460D4616461F46DDF82880F1
:102DB0004FF0000954B900BF502080F31188BFF3D1
:102DC0004F8FBFF36F8F00BF00BFFEE7144800684E
:102DD00010B3009501960294062D15DAFFF7C8FD91
:102DE000022808D10023424669460D480068FFF7D3
:102DF00045FB814610E000231A46694608480068F2
:102E0000FFF73CFB814607E000233A466946044849
:102E10000068FFF707FC81464846BDE8FE830000D6
:102E20008C0000204FF04070E1EE100A7047000067
:102E3000502E000800000020BC000000C401000863
:102E40000C2F0008BC0000205C340100E0010008E9
:102E50000000000001020304010203040607080940
:102E60000000000000000000000000000000000062
:102E7000007A030A000000000000000001020304C1
:102E80000607080900000000000000000000000024
:102E90000000000000000000000000000000000032
:102EA0000000000000000000000000000000000022
:102EB0000000000000000000000000000000000012
:102EC0000000000000000000000000000000000002
:102ED00000000000000000000000000000000000F2
:102EE00000000000000000000000000000000000E2
:102EF00000000000000000000000000000000000D2
:0C2F0000AAAAAAAA00000000000000001D
:040000050800018965
:00000001FF
