:020000040800F2
:100000004807002029020008010700083D050008F4
:10001000FD060008190300085F0C0008000000003E
:10002000000000000000000000000000BD08000803
:100030001D0300080000000091070008D509000812
:10004000430200084302000843020008430200087C
:10005000430200084302000821030008430200088D
:100060005D03000899030008D50300084302000857
:10007000430200084302000843020008430200084C
:10008000430200084302000843020008430200083C
:10009000430200084302000843020008430200082C
:1000A000430200084302000843020008430200081C
:1000B000430200084302000843020008430200080C
:1000C00043020008430200084302000843020008FC
:1000D00043020008410A00084302000843020008E6
:1000E00043020008430200084302000843020008DC
:1000F00043020008430200084302000843020008CC
:1001000043020008430200084302000843020008BB
:1001100043020008430200084302000843020008AB
:10012000430200084302000843020008430200089B
:10013000430200084302000843020008430200088B
:10014000430200084302000843020008430200087B
:10015000430200084302000843020008430200086B
:10016000430200084302000843020008430200085B
:10017000430200084302000843020008430200084B
:10018000430200084302000800F002F800F03CF8C7
:100190000AA090E8000C82448344AAF10107DA45E2
:1001A00001D100F031F8AFF2090EBAE80F0013F0F8
:1001B000010F18BFFB1A43F001031847780C000029
:1001C000980C0000103A24BF78C878C1FAD85207BA
:1001D00024BF30C830C144BF04680C6070470000C1
:1001E0000023002400250026103A28BF78C1FBD840
:1001F000520728BF30C148BF0B6070471FB500F0E1
:1002000013FE1FBD10B510BD00F033F81146FFF707
:10021000F5FF00F089FD00F051F803B4FFF7F2FF9D
:1002200003BC00F01EFD0000094880470948004754
:10023000FEE7FEE7FEE7FEE7FEE7FEE7FEE7FEE796
:10024000FEE7FEE704480549054A064B70470000F3
:10025000D90900088901000848010020480700204A
:1002600048030020480300207047704770477047DC
:100270007047754600F02CF8AE46050069465346B7
:1002800020F00700854618B020B5FFF7DBFFBDE87A
:1002900020404FF000064FF000074FF000084FF0ED
:1002A000000B21F00701AC46ACE8C009ACE8C0097E
:1002B000ACE8C009ACE8C0098D46704710B50446EB
:1002C000AFF300802046BDE81040FFF7A6BF000056
:1002D00000487047E40000201CB50121202000F0F8
:1002E00059FA4FF48070009001208DF8040000202E
:1002F0008DF8060003208DF8050002208DF8070018
:100300006946044800F0A2F84FF48071014800F0FB
:1003100011F91CBD0014024000BFFEE77047000049
:1003200010B5012000F086F880B10A2000F0BAFC78
:100330000121084800F0F5F8012807D106480068B7
:1003400008B9012000E0002003490860012000F006
:100350006BF810BD00000240A082424210B504209C
:1003600000F068F878B10A2000F09CFC04210848ED
:1003700000F0D7F838B90748006808B9012000E054
:10038000002004490860042000F04EF810BD000071
:1003900000100240A882424210B5082000F04AF83E
:1003A00078B10A2000F07EFC0821084800F0B9F876
:1003B00038B90748006808B9012000E00020044966
:1003C0000860082000F030F810BD00000010024066
:1003D000A482424210B5102000F02CF8C8B10A20C7
:1003E00000F060FC10210D4800F09BF888B90C4823
:1003F000006808B9012000E00020094908600948A8
:10040000D0F8A80208B9012000E000200449091D25
:100410000860102000F008F810BD00000010024035
:10042000A4824242008042420149086070470000B5
:10043000143C014001460020034A12680A400AB1F8
:10044000012000E000207047143C0140F0B50A464E
:1004500000210023002400BF3DE0012505FA01F33F
:10046000156805EA03049C4234D105684F00032651
:10047000BE40B543056015794E00B540066835436A
:1004800005601579012D02D01579022D16D18568E8
:100490004F000326BE40B543856055794E00B540F8
:1004A000866835438560456801268E40B5434560C2
:1004B000456896798E40B6B235434560C5684F00B1
:1004C0000326BE40B543C560D5794E00B540C66829
:1004D0003543C560491C1029BFD3F0BDF0B50023DA
:1004E00000244D07ED0E02FA05F3CE1000F12005B1
:1004F00055F826504E07F70E0F26BE40B543CF10D5
:1005000000F1200646F82750CE1000F1200555F8DE
:10051000265045EA0304CE1000F1200545F8264098
:10052000F0BD0246002013690B400BB1012000E032
:1005300000207047418370470183704700BFFEE78A
:100540004CF6CC4001490860704700000030004084
:1005500010B500F013F810BD70B505460C4645F215
:10056000555000F01FF8284600F010F8204600F023
:1005700013F800F003F8FFF7E3FF70BD4AF6AA2076
:1005800001490860704700000030004001494860A0
:10059000704700000030004001498860704700004B
:1005A0000030004001490860704700000030004002
:1005B0001CB50121112000F0EDF81C200090002056
:1005C0008DF8040003208DF8050001208DF8070048
:1005D00069460648FFF73AFF0120009002208DF897
:1005E000070069460248FFF731FF1CBD00100240BA
:1005F0000000024010B5044614B101202C490870D7
:100600002B480078002837D010212A48FFF789FFAF
:1006100078B108212748FFF784FF50B1042125480D
:10062000FFF77FFF28B101212348FFF77AFF012858
:1006300022D10A2000F036FB00201D49087010214D
:100640001C48FFF76EFF08B9012010BD08211948AA
:10065000FFF767FF08B90220F7E704211548FFF705
:1006600060FF08B90320F0E701211348FFF759FFA5
:1006700001281BD10420E8E710210E48FFF751FFA5
:10068000012813D108210B48FFF74BFF01280DD19A
:1006900004210848FFF745FF012807D1012106483A
:1006A000FFF73FFF10B90120014908700020CCE797
:1006B0001A00002000100240000002401CB5012179
:1006C000202000F067F84FF4C060009001208DF802
:1006D000040000208DF8060003208DF8050001209D
:1006E0008DF8070069460448FFF7B0FE4FF4C0617B
:1006F0000148FFF721FF1CBD0014024000BFFEE7C8
:100700007047000070B5002100230F22C4781CB38D
:10071000174C246804F4E064C4F5E064C4F30721D2
:10072000C1F10404E3B20A4144789C40E1B2847808
:10073000144021430C07210E0E4C057861550478B6
:1007400004F01F050124AC4005786D11AD0005F1E2
:10075000E025C5F8004109E0047804F01F050124F4
:10076000AC40054D0678761145F8264070BD000076
:100770000CED00E000E400E080E100E0024901430C
:10078000024A1160704700000000FA050CED00E01D
:100790007047000029B1064A12680243044B1A60F0
:1007A00004E0034A12688243014B1A60704700005C
:1007B0003038024029B1064A12680243044B1A60DD
:1007C00004E0034A12688243014B1A60704700003C
:1007D00044380240F0B50021002200240225002602
:1007E0000223324F3F6807F00C0121B1042905D0E4
:1007F000082937D105E02E4F076036E02D4F0760FE
:1008000033E02A4F3F1F3F68C7F38056274F3F1FF3
:100810003F6807F03F036EB1264FB7FBF3F7DFF8F1
:100820008CC0ACF1040CDCF800C0CCF3881C07FBD6
:100830000CF40CE01E4FB7FBF3F7DFF870C0ACF11F
:10084000040CDCF800C0CCF3881C07FB0CF4174F39
:100850003F1F3F68C7F301477F1C7D00B4FBF5F7DE
:10086000076002E0124F076000BF00BF0F4F3F68F4
:1008700007F0F0010909104F7A5C0768D74047601C
:100880000A4F3F6807F4E051890A0B4F7A5C4768CA
:10089000D7408760054F3F6807F46041490B064F1A
:1008A0007A5C4768D740C760F0BD00000838024056
:1008B0000024F40000127A000000002070470000BD
:1008C0000CB50020019000903448006840F480305E
:1008D0003249086000BF3148006800F400300090E1
:1008E0000198401C0190009818B90198B0F5A04FEC
:1008F000F1D12A48006800F4003010B101200090C6
:1009000001E0002000900098012846D123484030A3
:10091000006840F08050214940310860204800685C
:1009200040F440401E4908601C48083000681B49DC
:10093000083108600846006840F400400860084636
:10094000006840F4A05008601648091F0860081F9E
:10095000006840F08070091F086000BF0F48006801
:1009600000F000700028F9D040F205700E490860D0
:100970000A480830006820F0030008490831086080
:100980000846006840F00200086000BF03480830D5
:10099000006800F00C000828F8D10CBD00380240B7
:1009A0000070004008544007003C0240042808D171
:1009B0004FF0E021096941F004014FF0E02211619C
:1009C00007E04FF0E021096921F004014FF0E02237
:1009D000116170477047000010B51548006840F479
:1009E0007000134908601348006840F00100114985
:1009F000086000200F49083108600E4800680E4961
:100A000008400C4908600D48091D0860081F00686F
:100A100020F48020091F0860002006490C3108607E
:100A2000FFF74EFF4FF0006001498039086010BDAC
:100A300088ED00E000380240FFFFF6FE1030002491
:100A400010B540F225511D4800F04AF810B31B487C
:100A500000F000F9C4B21A48008800F40040C8B998
:100A60001748008800F4804060B10A2C03D00020B1
:100A70001349088020E01248008840F400401049E3
:100A8000088019E00D2C06D10D48008840F4804004
:100A90000B49088010E00A480088C0F30D0009499E
:100AA0000C5407480088401C054908800846008807
:100AB000C72801DD0020088010BD000000100140A3
:100AC000180000201C00002021B1828942F400524D
:100AD000828104E082894DF6FF731A40828170475B
:100AE00070B50246002400230025002040F66A1657
:100AF000B14200D100BFC1F3421501F01F0301262E
:100B000006FA03F3012D02D19689334006E0022D47
:100B100002D1168A334001E0968A33400C12012636
:100B200006FA04F41688344013B10CB1012000E039
:100B3000002070BDF0B503460024002600250020EB
:100B400040F66A17B94200D100BF1846C1F34214FB
:100B500001F01F06012707FA06F5012C01D10C3020
:100B600004E0022C01D1103000E014301AB1076803
:100B70002F43076002E00768AF430760F0BD000045
:100B80002DE9FF4705460E460024A14600BFA046BA
:100B9000B08900B100BF2C8A24F44054F08804438B
:100BA0002C82AC8941F20C608443B08831890843BF
:100BB000718908430443AC81AC8A24F44074B08941
:100BC0000443AC826846FFF705FE2048854202D008
:100BD0001F48854202D1DDF80C9001E0DDF8089055
:100BE000A88900F4004040B109EBC90000EB0910EE
:100BF00031684900B0FBF1F707E009EBC90000EBF1
:100C0000091031688900B0FBF1F76420B7FBF0F000
:100C100004012009642101FB1078A88900F4004038
:100C200040B1322000EBC800B0FBF1F000F007004B
:100C3000044308E0322000EB08106421B0FBF1F01F
:100C400000F00F0004432C81BDE8FF870010014035
:100C50000014014001468888C0F30800704700BFB7
:100C6000FEE700BF7047000010B504466FF00400B7
:100C7000FFF79CFEE11704EB5171C1F3C701074A6E
:100C800011701046007800EB4001C1EBC0104FF628
:100C9000FF7101EAC0000249088010BD1000002069
:100CA0001200002070B504464FF4077094FBF0F07A
:100CB000C6B24FF4077094FBF0F100FB114085B20F
:100CC00005E04FF4077000F009F8701EC6B2002E60
:100CD000F7D115B1284600F001F870BD0146114A60
:100CE00012884A434FF0E0235A6100229A611A4663
:100CF000126942F001021A6100BF4FF0E022106950
:100D000000F001021AB100F48032002AF5D04FF051
:100D1000E022126922F001024FF0E0231A61002262
:100D20009A617047120000204FF4A060FFF726FD83
:100D3000A820FFF799FF4FF4E13000F01FF8FFF70C
:100D4000BDFCFFF7C9FAC820FFF7ACFFFFF730FC86
:100D50004FF4FA710420FFF7FFFB002006490860FA
:100D600009E00020FFF746FC042801D1FFF7F0FB63
:100D70000A20FFF797FFF4E7A482424210B588B03B
:100D8000044601210846FFF705FD01211020FFF769
:100D900011FD072209212248FFF7A0FB07220A21A3
:100DA0001F48FFF79BFB4FF4C060069002208DF8B0
:100DB0001C008DF81D0000208DF81E0001208DF80C
:100DC0001F0006A91648FFF741FB02940020ADF86A
:100DD0000C00ADF80E00ADF81000ADF814000C20BA
:100DE000ADF8120002A90F48FFF7CAFE01210D4815
:100DF000FFF76AFE012240F225510A48FFF79AFEEA
:100E000025208DF8040003208DF805008DF80600DC
:100E100001208DF8070001A8FFF774FC08B010BD91
:100E200000000240001001404FF04070E1EE100A57
:100E300070470000540E0008000000201C00000055
:100E4000C4010008700E00081C0000202C070000E0
:100E5000E001000800000000010203040102030495
:100E60000607080900000000000000000000010063
:040000050800018965
:00000001FF
