:020000040800F2
:100000005827002031020008710B00086D09000814
:100010006D0B0008E90400080F170008000000003D
:100020000000000000000000000000004D0D00086E
:100030004D07000800000000010C0008650E0008D4
:100040004B0200084B0200084B0200084B0200085C
:100050004B0200084B020008510700084B02000841
:100060008D070008C9070008050800084B020008B2
:100070004B0200084B0200084B0200084B0200082C
:100080004B0200084B0200084B0200084B0200081C
:100090004B0200084B0200084B0200084B0200080C
:1000A0004B0200084B0200084B0200084B020008FC
:1000B0004B020008951000084B0200084B02000894
:1000C0004B0200084B0200084B0200084B020008DC
:1000D0004B020008E11400084B0200084B02000824
:1000E0004B0200084B0200084B0200084B020008BC
:1000F0004B0200084B0200084B0200084B020008AC
:100100004B0200084B020008C51000084B02000813
:100110004B0200084B0200084B0200084B0200088B
:100120004B0200084B0200084B0200084B0200087B
:100130004B0200084B0200084B0200084B0200086B
:100140004B0200084B0200084B0200084B0200085B
:100150004B0200084B0200084B0200084B0200084B
:100160004B0200084B0200084B0200084B0200083B
:100170004B0200084B0200084B0200084B0200082B
:100180004B0200084B02000800F002F800F041F8B2
:100190000AA090E8000C82448344AAF10107DA45E2
:1001A00001D100F036F8AFF2090EBAE80F0013F0F3
:1001B000010F18BFFB1A43F0010318476C18000029
:1001C0008C180000103A24BF78C878C1FAD85207BA
:1001D00024BF30C830C144BF04680C6070470000C1
:1001E0000023002400250026103A28BF78C1FBD840
:1001F000520728BF30C148BF0B607047642900F028
:100200007980002070471FB501F0F4FB1FBD10B5C9
:1002100010BD00F037F91146FFF7F5FF01F0EAFADB
:1002200000F055F903B4FFF7F2FF03BC01F071FAD7
:100230000948804709480047FEE7FEE7FEE7FEE77A
:10024000FEE7FEE7FEE7FEE7FEE7FEE704480549B6
:10025000054A064B70470000690E00088901000836
:100260005821002058270020582300205823002020
:10027000704700000FB4044910B503AA029800F0BB
:10028000D3F810BC5DF814FB140000202DE9F041F8
:100290000E460446002020622046E168884730B3BD
:1002A000252805D0D4E901219047206A401CF2E7B7
:1002B000E168204600278847050018D0A5F14100D5
:1002C000192802D820354FF40067324629462046C7
:1002D0002760FFF793FF40B1012804D0F61D26F0F8
:1002E00007060836D8E7361DD6E72846DAE7206A3B
:1002F000BDE8F0812DE9F04106460024106875291B
:10030000314616A510D0AFF30080002802DA404233
:1003100013A507E031688A0701D512A502E0490755
:1003200004D511A5012401E0AFF3008000210A22C9
:1003300006F1240709E0B0FBF2FCB0FBF2F302FB8C
:100340001C00303078541846491C0028F3D123464D
:100350002A463046BDE8F04100F00CB8000000002D
:100360002D0000002B0000002000000070477047A7
:10037000704770472DE9F0470D469946924604466E
:1003800000F124080168880604D5E06921F0100115
:10039000216000E00120A84201DD471B00E00027AA
:1003A000A1697A1902EB0900081AA0612078C00639
:1003B00002D42046AFF30080002608E0D4E90121F2
:1003C0001AF806009047206A401C761C20624E45B1
:1003D000F4DB2078C0060AD52046AFF3008006E0A3
:1003E000D4E9012130209047206A401C2062381E49
:1003F000A7F10107F4DC07E0D4E9012118F80500B2
:100400009047206A401C2062281EA5F10105F3DCFC
:100410002046AFF300802078000602D50220BDE818
:10042000F0870120FBE70000074B70B50D467B44C9
:1004300000F011F80446284600F020F810B14FF003
:10044000FF3070BD204670BDA713000001694A1C33
:1004500002610878704700B58FB0CDE90131002105
:10046000059105497944CDE9031011466846FFF727
:100470000DFF0FB000BD0000E5FFFFFF007B00F0A7
:1004800080007047754600F02BF8AE4605006946BF
:10049000534620F00700854618B020B5FFF7D6FE7A
:1004A000BDE820404FF000064FF000074FF0000875
:1004B0004FF0000B21F00701AC46ACE8C009ACE8F6
:1004C000C009ACE8C009ACE8C0098D46704710B55A
:1004D0000446AFF300802046BDE81040FFF7A2BEFF
:1004E00000487047F820002000BFFEE70246094B95
:1004F0009A4201D2084801E00648103801F0005342
:100500001BB1064B0B40C36002E0044B0B40836001
:100510007047000010640240006002407D0F7D0FB4
:1005200021B1026842F00102026003E0026822F099
:100530000102026070470000016821F001010160C2
:100540000021016041608160C16001612121416140
:100550004A49884204D13D21484A103A91608CE0D2
:1005600046491831884205D14FF47461434A103A24
:10057000916082E041493031884205D14FF47411D5
:100580003E4A103A916078E03C494831884205D1B2
:100590004FF07461394A103A91606EE0374960312A
:1005A000884204D13649354A103AD16065E0334972
:1005B0007831884204D13349304A103AD1605CE046
:1005C0002E499031884204D12F492C4A103AD160EB
:1005D00053E02A49A831884205D14FF03D51274ABE
:1005E000103AD16049E02949884204D13D21274A87
:1005F000083A116041E025491831884205D14FF48D
:100600007461224A083A116037E02049303188424B
:1006100005D14FF474111D4A083A11602DE01B49B1
:100620004831884205D14FF07461184A083A116088
:1006300023E016496031884204D11149134A121F40
:1006400011601AE011497831884204D10D490F4AEE
:10065000121F116011E00D499031884204D10A49FE
:100660000A4A121F116008E00849A831884204D1E3
:100670004FF03D51054A121F116070471060024053
:100680003D000020400F002000003D20106402408B
:10069000014600200A6802F001020AB1012000E0D0
:1006A000002070470146486880B2704730B5034665
:1006B0000A46002000240B4DAB4201D20A4901E05A
:1006C0000849103902F000550DB14C6800E00C6883
:1006D000064D2C4004EA02050DB1012000E0002087
:1006E00030BD000010640240006002407D0F7D0FAD
:1006F00010B500220268134B1A40CC680B682343E4
:100700004C6923438C692343CC6923430C6A2343FC
:100710004C6A23438C6A23434C6B23438C6B2343E7
:100720001A430260426922F00702D1E90B342343E5
:100730001A4342610B6943604B6883608B68C360F6
:1007400010BD00003F801CF0416070477047000002
:1007500010B5012000F086F880B10A2000F0FAFF01
:100760000121084800F0F5F8012807D10648006883
:1007700008B9012000E0002003490860012000F0D2
:100780006BF810BD00000240A082424210B5042068
:1007900000F068F878B10A2000F0DCFF0421084876
:1007A00000F0D7F838B90748006808B9012000E020
:1007B000002004490860042000F04EF810BD00003D
:1007C00000100240A882424210B5082000F04AF80A
:1007D00078B10A2000F0BEFF0821084800F0B9F8FF
:1007E00038B90748006808B9012000E00020044932
:1007F0000860082000F030F810BD00000010024032
:10080000A482424210B5102000F02CF8C8B10A2092
:1008100000F0A0FF10210D4800F09BF888B90C48AB
:10082000006808B9012000E0002009490860094873
:10083000D0F8A80208B9012000E000200449091DF1
:100840000860102000F008F810BD00000010024001
:10085000A482424200804242014908607047000081
:10086000143C014001460020034A12680A400AB1C4
:10087000012000E000207047143C0140F0B50A461A
:1008800000210023002400BF3DE0012505FA01F30B
:10089000156805EA03049C4234D105684F0003261D
:1008A000BE40B543056015794E00B5400668354336
:1008B00005601579012D02D01579022D16D18568B4
:1008C0004F000326BE40B543856055794E00B540C4
:1008D000866835438560456801268E40B54345608E
:1008E000456896798E40B6B235434560C5684F007D
:1008F0000326BE40B543C560D5794E00B540C668F5
:100900003543C560491C1029BFD3F0BDF0B50023A5
:1009100000244D07ED0E02FA05F3CE1000F120057C
:1009200055F826504E07F70E0F26BE40B543CF10A0
:1009300000F1200646F82750CE1000F1200555F8AA
:10094000265045EA0304CE1000F1200545F8264064
:10095000F0BD0246002013690B400BB1012000E0FE
:1009600000207047418370470183704700BFFEE756
:100970001CB50121112000F045F91C200090002039
:100980008DF8040003208DF8050001208DF8070084
:1009900069460648FFF772FF0120009002208DF89B
:1009A000070069460248FFF769FF1CBD00100240BE
:1009B0000000024010B5044614B101202C49087013
:1009C0002B480078002837D010212A48FFF7C1FFB4
:1009D00078B108212748FFF7BCFF50B10421254812
:1009E000FFF7B7FF28B101212348FFF7B2FF012825
:1009F00022D10A2000F0AEFE00201D49087010210F
:100A00001C48FFF7A6FF08B9012010BD08211948AE
:100A1000FFF79FFF08B90220F7E704211548FFF709
:100A200098FF08B90320F0E701211348FFF791FF71
:100A300001281BD10420E8E710210E48FFF789FFA9
:100A4000012813D108210B48FFF783FF01280DD19E
:100A500004210848FFF77DFF012807D1012106483E
:100A6000FFF777FF10B90120014908700020CCE79B
:100A70001A00002000100240000002401CB50121B5
:100A8000202000F0BFF84FF4C060009001208DF8E6
:100A9000040000208DF8060003208DF805000120D9
:100AA0008DF8070069460448FFF7E8FE4FF4C0617F
:100AB0000148FFF759FF1CBD001402402DE9F04129
:100AC00090B004460D4617461E46DDF858801B4878
:100AD000844204D90121880500F094F803E0012143
:100AE000480500F08FF82046FFF726FD00BF20469E
:100AF000FFF7CEFD0028FAD101950297039640201A
:100B00000490CDF81480002006904FF48060079088
:100B10000020099008900A904FF480300B9000203C
:100B20000C9003200D9000200E900F9001A92046FC
:100B3000FFF7DEFD10B0BDE8F08100000064024068
:100B400070B504460D4600212046FFF7E9FC00BFC2
:100B50002046FFF79DFD0028FAD129462046FFF7E1
:100B6000F3FD01212046FFF7DBFC70BD00BFFEE76F
:100B70007047000070B5002100230F22C4781CB319
:100B8000174C246804F4E064C4F5E064C4F307215E
:100B9000C1F10404E3B20A4144789C40E1B2847894
:100BA000144021430C07210E0E4C05786155047842
:100BB00004F01F050124AC4005786D11AD0005F16E
:100BC000E025C5F8004109E0047804F01F05012480
:100BD000AC40054D0678761145F8264070BD000002
:100BE0000CED00E000E400E080E100E00249014398
:100BF000024A1160704700000000FA050CED00E0A9
:100C00007047000029B1064A12680243044B1A607B
:100C100004E0034A12688243014B1A6070470000E7
:100C20003038024029B1064A12680243044B1A6068
:100C300004E0034A12688243014B1A6070470000C7
:100C40004038024029B1064A12680243044B1A6038
:100C500004E0034A12688243014B1A6070470000A7
:100C600044380240F0B5002100220024022500266D
:100C70000223324F3F6807F00C0121B1042905D04F
:100C8000082937D105E02E4F076036E02D4F076069
:100C900033E02A4F3F1F3F68C7F38056274F3F1F5F
:100CA0003F6807F03F036EB1264FB7FBF3F7DFF85D
:100CB0008CC0ACF1040CDCF800C0CCF3881C07FB42
:100CC0000CF40CE01E4FB7FBF3F7DFF870C0ACF18B
:100CD000040CDCF800C0CCF3881C07FB0CF4174FA5
:100CE0003F1F3F68C7F301477F1C7D00B4FBF5F74A
:100CF000076002E0124F076000BF00BF0F4F3F6860
:100D000007F0F0010909104F7A5C0768D740476087
:100D10000A4F3F6807F4E051890A0B4F7A5C476835
:100D2000D7408760054F3F6807F46041490B064F85
:100D30007A5C4768D740C760F0BD000008380240C1
:100D40000024F40000127A00000000207047000028
:100D50000CB50020019000903448006840F48030C9
:100D60003249086000BF3148006800F4003000904C
:100D70000198401C0190009818B90198B0F5A04F57
:100D8000F1D12A48006800F4003010B10120009031
:100D900001E0002000900098012846D1234840300F
:100DA000006840F0805021494031086020480068C8
:100DB00040F440401E4908601C48083000681B4948
:100DC000083108600846006840F4004008600846A2
:100DD000006840F4A05008601648091F0860081F0A
:100DE000006840F08070091F086000BF0F4800686D
:100DF00000F000700028F9D040F205700E4908603C
:100E00000A480830006820F00300084908310860EB
:100E10000846006840F00200086000BF0348083040
:100E2000006800F00C000828F8D10CBD0038024022
:100E30000070004008544007003C0240042808D1DC
:100E40004FF0E021096941F004014FF0E022116107
:100E500007E04FF0E021096921F004014FF0E022A2
:100E6000116170477047000010B51548006840F4E4
:100E70007000134908601348006840F001001149F0
:100E8000086000200F49083108600E4800680E49CC
:100E900008400C4908600D48091D0860081F0068DB
:100EA00020F48020091F0860002006490C310860EA
:100EB000FFF74EFF4FF0006001498039086010BD18
:100EC00088ED00E000380240FFFFF6FE10300024FD
:100ED000F0B50C46154600210022068C4FF6FE7731
:100EE0003E400684018B028C4FF60C7631407E1C0E
:100EF00006EA03162E4331434FF6F576324044F0AE
:100F00000106324301830284F0BDF0B50C4615465C
:100F1000002100220026078C4FF6EF7C07EA0C0721
:100F20000784018B028C4FF6FF7707EA041640F620
:100F3000FF4739404FF6FF7707EA033739434FF64B
:100F4000FF7707EA052739434FF65F773A4046F0C7
:100F500010073A4301830284F0BDF0B50C461546F4
:100F6000002100220026078C4FF6FF6C07EA0C07D1
:100F70000784818B028C4FF6FF7707EA04264FF631
:100F80000C7739404FF6FF7707EA03172F433943B1
:100F90004FF2FF573A4046F480773A438183028408
:100FA000F0BDF0B50C461546002100220026078C46
:100FB0004EF6FF7C07EA0C070784818B028C4FF604
:100FC000FF7707EA043640F6FF4739404FF6FF77D0
:100FD00007EA052739434FF6FF7707EA0337394316
:100FE00045F6FF773A4046F480573A4381830284BE
:100FF000F0BD000030B589B005460C460121084619
:10100000FFF710FE01210846FFF7FCFD20200790A6
:1010100002208DF8200000208DF8220003208DF89A
:10102000210000208DF8230007A91948FFF726FCAE
:10103000012205211648FFF769FC0595ADF810401F
:101040000020ADF81800ADF8120004A94FF0804060
:1010500000F046F90020ADF80400ADF806000120CC
:10106000ADF808000020ADF80A00ADF80C0001A9A9
:101070004FF0804000F0BDF801220321900700F0FE
:10108000EFF80121880700F088F809B030BD0000B2
:101090000000024010B50121084800F099F801282D
:1010A00007D10748006808B9012000E00020044982
:1010B00008600121014800F06DF810BD00040040F7
:1010C000A882424210B53048007800F08000002825
:1010D00054D101212D4800F07BF8D0B12A48007886
:1010E00000F04000A8B12848007800F03F003F28F9
:1010F0000AD12548007840F08000234908704FF05D
:10110000FF302349086004E01F480078401C1E4956
:10111000087002211D4800F05BF878B31A48007887
:1011200000F0400078B11848007840F0800016497F
:101130000870164800F03DF8154908600021134872
:1011400000F097F81AE000200F4908701049086075
:101150000D48007840F040000B49087000210B4812
:1011600000F01BF80021094800F08CF80221074824
:1011700000F07FF80121054800F00FF80321034833
:1011800000F008F810BD00001C000020000C00401A
:1011900020000020CA430282704721B1028842F039
:1011A0000102028004E002884FF6FE731A400280BA
:1011B00070470146486B70470146486A70470246CF
:1011C0000020138A0B400BB1012000E00020704783
:1011D00030B50246002000230024158A05EA0103E9
:1011E000958905EA010413B10CB1012000E000204B
:1011F00030BD70B505460C46208850B92389A288B9
:1012000061882846FFF764FEE188284600F03CF834
:1012100025E0208804280AD12389A28861882846ED
:10122000FFF773FEE188284600F037F817E02088C2
:1012300008280AD12389A28861882846FFF78DFEF5
:10124000E188284600F036F809E02389A288618801
:101250002846FFF7A6FEE188284600F034F870BD66
:101260001AB183890B43838102E083898B43838195
:1012700070470A460021018C4FF6FD731940114357
:101280000184704741627047028B4FF6F3731A4036
:101290000283028B0A4302837047028B4FF2FF33B3
:1012A0001A400283028B4FF6FF7303EA01231A43AD
:1012B00002837047828B4FF6F3731A408283828BCE
:1012C0000A4382837047828B4FF2FF331A40828336
:1012D000828B4FF6FF7303EA01231A438283704720
:1012E00000220288184B98420ED0184B98420BD01F
:1012F000B0F1804F08D0164B984205D0154B98425C
:1013000002D0154B984204D14FF68F731A404B8888
:101310001A43124B984207D0114B984204D04FF613
:10132000FF431A400B891A4302804B68C3620B8843
:101330000385054B984202D0044B984201D18B7A29
:1013400003860123838270470000014000040140AE
:101350000004004000080040000C00400010004065
:101360000014004010B500F081F80FE04FF080400D
:10137000FFF722FF0B490988A1F5FA71884205D9C8
:101380004FF08040FFF718FF80B210BD02214807E0
:10139000FFF715FF0028E9D04FF08040FFF709FF65
:1013A00080B2F2E724000020F0B585B00746781E31
:1013B00081B24FF0FF30FFF71DFE002408E0FFF779
:1013C000D1FF2DF814000A2000F0C4F9601CC4B24B
:1013D0000A2CF4DB002419E0002511E03DF815107B
:1013E000681C3DF81000814208DD681C3DF8106063
:1013F0003DF815102DF810102DF81560681CC5B2B9
:10140000C4F10900A842E9DC601CC4B2092CE3DB8A
:101410000026022405E03DF81400304486B2601C2A
:10142000C4B2082CF7DB062096FBF0F008490880D0
:101430000846018807A0FEF71DFF05480088B0F1A7
:10144000004F02D3012005B0F0BD0020FBE70000F3
:1014500024000020747061645F64656661756C745B
:101460005F76616C3A25640D0A0000001CB52020EF
:10147000009001208DF8040000208DF80600032064
:101480008DF8050002208DF8070069461348FFF724
:10149000F5F920211148FFF765FA052000F05AF907
:1014A00003214FF08040FFF775FE00214FF0804090
:1014B000FFF7E8FE2020009002208DF804000020B5
:1014C0008DF8060003208DF8050000208DF8070038
:1014D00069460248FFF7D2F91CBD00000000024037
:1014E00010B540F225511D4800F053F810B31B48C9
:1014F00000F008F9C4B21A48008800F40040C8B9E6
:101500001748008800F4804060B10A2C03D0002006
:101510001349088020E01248008840F40040104938
:10152000088019E00D2C06D10D48008840F4804059
:101530000B49088010E00A480088C0F30D000949F3
:101540000C5407480088401C05490880084600885C
:10155000C72801DD0020088010BD000000100140F8
:10156000180000203020002021B1828942F400526E
:10157000828104E082894DF6FF731A4082817047B0
:101580001AB1838A0B43838202E0838A8B4383826E
:10159000704770B50246002400230025002040F665
:1015A0006A16B14200D100BFC1F3421501F01F031A
:1015B000012606FA03F3012D02D19689334006E095
:1015C000022D02D1168A334001E0968A33400C1274
:1015D000012606FA04F41688344013B10CB1012038
:1015E00000E0002070BDF0B5034600240026002571
:1015F000002040F66A17B94200D100BF1846C1F377
:10160000421401F01F06012707FA06F5012C01D14B
:101610000C3004E0022C01D1103000E014301AB17B
:1016200007682F43076002E00768AF430760F0BD1B
:101630002DE9FF4705460E460024A14600BFA046FF
:10164000B08900B100BF2C8A24F44054F0880443D0
:101650002C82AC8941F20C608443B0883189084304
:10166000718908430443AC81AC8A24F44074B08986
:101670000443AC826846FFF7F5FA2048854202D061
:101680001F48854202D1DDF80C9001E0DDF808909A
:10169000A88900F4004040B109EBC90000EB091033
:1016A00031684900B0FBF1F707E009EBC90000EB36
:1016B000091031688900B0FBF1F76420B7FBF0F046
:1016C00004012009642101FB1078A88900F400407E
:1016D00040B1322000EBC800B0FBF1F000F0070091
:1016E000044308E0322000EB08106421B0FBF1F065
:1016F00000F00F0004432C81BDE8FF87001001407B
:101700000014014001468888C0F30800704700BFFC
:10171000FEE700BF7047000010B504466FF00400FC
:10172000FFF78CFBE11704EB5171C1F3C701074AC6
:1017300011701046007800EB4001C1EBC0104FF66D
:10174000FF7101EAC0000249088010BD10000020AE
:101750001200002070B504464FF4077094FBF0F0BF
:10176000C6B24FF4077094FBF0F100FB114085B254
:1017700005E04FF4077000F009F8701EC6B2002EA5
:10178000F7D115B1284600F001F870BD0146114AA5
:1017900012884A434FF0E0235A6100229A611A46A8
:1017A000126942F001021A6100BF4FF0E022106995
:1017B00000F001021AB100F48032002AF5D04FF097
:1017C000E022126922F001024FF0E0231A610022A8
:1017D0009A6170471200002000BF054A128802F08B
:1017E0004002002AF9D0C2B2014B9A807047000033
:1017F000001001402DED028B82B0002500269FEDE8
:10180000460AB0EE408A4FF4A060FFF7EFF9A82037
:10181000FFF782FF4FF4E13000F096F8FFF72EF962
:10182000FFF7A6F80820FFF7BFFD42F208003B4B88
:101830003B4A010600903B48FFF740F92727002468
:1018400016E0BD420BDB26B10A20344908550025BD
:101850000CE00D2031490855701CC6B206E0002688
:101860003148405D2D490855681CC5B2601C84B2E2
:1018700042F208008442E4DB00244BE00020FFF742
:1018800099F80546012D35D128A0FEF7F3FC012279
:1018900080212348001FFFF773FE42F20801214810
:1018A000FFF74EF924E04FF020511E48FEF7FEFEF0
:1018B00028B14FF020511B48FEF718FE19E01948D7
:1018C000FEF7F0FE00EE100AB8EE400AB0EE408AD5
:1018D000DFED1A0A88EE200AF7EE000A30EEC00AA1
:1018E000B0EE408A9FED160A28EE000AB0EE408A5C
:1018F000D9E700BF601C84B20A20FFF72BFF142C2D
:1019000008D11048006808B9012000E000200D4906
:1019100008600024B2E7000000000000280000205A
:1019200004100140B8640240FE1900080D0A444D3D
:101930004120444154413A0D0A0000000020004675
:101940000000C842A482424210B588B0044601217A
:101950000846FFF757F901211020FFF773F9072216
:1019600009212248FEF7D2FF07220A211F48FEF76D
:10197000CDFF4FF4C060069002208DF81C008DF85A
:101980001D0000208DF81E0001208DF81F0006A903
:101990001648FEF773FF02940020ADF80C00ADF876
:1019A0000E00ADF81000ADF814000C20ADF81200D8
:1019B00002A90F48FFF73CFE01210D48FFF7D4FDB7
:1019C000012240F225510A48FFF70DFE25208DF82F
:1019D000040003208DF805008DF8060001208DF825
:1019E000070001A8FFF7C6F808B010BD00000240CC
:1019F000001001404FF04070E1EE100A7047414C7A
:101A000049454E54454B204578706C6F7265722085
:101A100053544D3332463420444D4120B4AEBFDAE6
:101A2000CAB5D1E900000000481A000800000020F3
:101A300028000000C4010008701A000828000020D7
:101A400030270000E001000800000000010203044C
:101A5000010203040607080900000000000000005E
:101A60000000010000000000000000000000000075
:040000050800018965
:00000001FF
