:020000040800F2
:100000005007002039020008C50C0008B908000894
:10001000C10C0008950600085318000800000000F5
:10002000000000000000000000000000A10E000819
:100030009906000800000000550D0008B90F0008DF
:10004000530200085302000853020008530200083C
:1000500053020008530200089D06000853020008DE
:10006000D9060008150700085107000853020008C8
:10007000530200085302000853020008530200080C
:1000800053020008530200085302000853020008FC
:1000900053020008530200085302000853020008EC
:1000A00053020008530200085302000853020008DC
:1000B00053020008E9110008530200085302000827
:1000C00053020008530200085302000853020008BC
:1000D00053020008351600085302000853020008B6
:1000E000530200085302000853020008530200089C
:1000F000530200085302000853020008530200088C
:1001000053020008530200081912000853020008A5
:10011000530200085302000853020008530200086B
:10012000530200085302000853020008530200085B
:10013000530200085302000853020008530200084B
:10014000530200085302000853020008530200083B
:10015000530200085302000853020008530200082B
:10016000530200085302000853020008530200081B
:10017000530200085302000853020008530200080B
:10018000530200085302000800F002F800F044F89F
:100190000AA090E8000C82448344AAF10107DA45E2
:1001A00001D100F039F8AFF2090EBAE80F0013F0F0
:1001B000010F18BFFB1A43F001031847EC190000A8
:1001C0000C1A0000103A24BF78C878C1FAD8520738
:1001D00024BF30C830C144BF04680C6070470000C1
:1001E0000023002400250026103A28BF78C1FBD840
:1001F000520728BF30C148BF0B607047642900F028
:10020000A780732900F04F81002070471FB501F0CF
:10021000B9FC1FBD10B510BD00F078F91146FFF70D
:10022000F5FF01F0AFFB00F096F903B4FFF7F2FF22
:1002300003BC01F010FB0000094880470948004753
:10024000FEE7FEE7FEE7FEE7FEE7FEE7FEE7FEE786
:10025000FEE7FEE704480549054A064B70470000E3
:10026000BD0F000889010008500100205007002040
:100270005003002050030020704700000FB40449D1
:1002800010B503AA029800F013F910BC5DF814FB36
:10029000140000202DE9F0410E46044600202062A3
:1002A0002046E168884730B3252805D0D4E90121EC
:1002B0009047206A401CF2E7E16820460027884703
:1002C000050018D0A5F14100192802D820354FF4B7
:1002D00000673246294620462760FFF78FFF40B16E
:1002E000012804D0F61D26F007060836D8E7361D8B
:1002F000D6E72846DAE7206ABDE8F08170B50C46FB
:100300000546012A05D02878800600D5EA69002331
:1003100002E0012305E05B1C934202D2E05C00286E
:10032000F9D1A869E618C01AA861286A1844286299
:100330002846AFF3008004E0D5E9012114F8010B51
:100340009047B442F8D32846AFF3008070BD000058
:100350002DE9F0410646002410687529314616A59E
:1003600010D0AFF30080002802DA404213A507E066
:1003700031688A0701D512A502E0490704D511A505
:10038000012401E0AFF3008000210A2206F12407D6
:1003900009E0B0FBF2FCB0FBF2F302FB1C003030D2
:1003A00078541846491C0028F3D123462A46304683
:1003B000BDE8F04100F00CB8000000002D00000086
:1003C0002B00000020000000704770477047704706
:1003D0002DE9F0470D4699469246044600F124085F
:1003E0000168880604D5E06921F01001216000E071
:1003F0000120A84201DD471B00E00027A1697A190E
:1004000002EB0900081AA0612078C00602D4204639
:10041000AFF30080002608E0D4E901211AF80600B5
:100420009047206A401C761C20624E45F4DB207801
:10043000C0060AD52046AFF3008006E0D4E90121CA
:1004400030209047206A401C2062381EA7F1010727
:10045000F4DC07E0D4E9012118F805009047206A90
:10046000401C2062281EA5F10105F3DC2046AFF3F5
:1004700000802078000602D50220BDE8F087012028
:10048000FBE710B5436913B1AFF3008001E0FFF75C
:1004900035FF012010BD127800F124010A700022FE
:1004A0004A700122EDE711684FF0FF32E9E70000E2
:1004B000074B70B50D467B4400F011F80446284602
:1004C00000F020F810B14FF0FF3070BD204670BD35
:1004D000AF14000001694A1C02610878704700B53A
:1004E0008FB0CDE901310021059105497944CDE96D
:1004F000031011466846FFF7CDFE0FB000BD0000A7
:10050000E5FFFFFF007B00F080007047754600F0BC
:100510002BF8AE4605006946534620F00700854695
:1005200018B020B5FFF796FEBDE820404FF000065A
:100530004FF000074FF000084FF0000B21F00701CB
:10054000AC46ACE8C009ACE8C009ACE8C009ACE80E
:10055000C0098D46704710B50446AFF300802046B1
:10056000BDE81040FFF761BE00487047F000002072
:1005700010B5FF2000F028F80446552C01D10020CA
:1005800010BD5521FF2000F05DF8FF2000F01CF8A1
:100590000446552C01D10020F2E70120F0E710B508
:1005A00000F0B4F910BD70B506460C46154608E0DB
:1005B0003046721C96B200F007F804F8010B681E72
:1005C00085B2002DF4D170BD70B50446002600F050
:1005D00055FA2546E11704EB11610912A02202EB3E
:1005E0004101C8B200F016FA00F094FAE11704EBEA
:1005F00011610912A4EB0121C8B200F00BFA00F05E
:1006000089FA00F03BFAA12000F004FA00F082FA27
:10061000002000F0C9F9064600F056FA304670BDD9
:1006200070B505460C46164606E02178284600F0CF
:1006300009F8681C85B2641C301EA6F101018EB257
:10064000F3D170BD70B504460E4600F017FA25468A
:10065000E11704EB11610912A02202EB4101C8B2BB
:1006600000F0D8F900F056FAE11704EB1161091215
:10067000A4EB0121C8B200F0CDF900F04BFA3046EE
:1006800000F0C8F900F046FA00F01EFA0A2001F066
:1006900003F970BD00BFFEE77047000010B50120F0
:1006A00000F086F880B10A2001F0F6F80121084830
:1006B00000F0F5F8012807D10648006808B90120C4
:1006C00000E0002003490860012000F06BF810BD35
:1006D00000000240A082424210B5042000F068F8F9
:1006E00078B10A2001F0D8F80421084800F0D7F8C2
:1006F00038B90748006808B9012000E00020044923
:100700000860042000F04EF810BD00000010024008
:10071000A882424210B5082000F04AF878B10A20B9
:1007200001F0BAF80821084800F0B9F838B90748CC
:10073000006808B9012000E0002004490860082092
:1007400000F030F810BD000000100240A4824242C8
:1007500010B5102000F02CF8C8B10A2001F09CF868
:1007600010210D4800F09BF888B90C48006808B9C2
:10077000012000E00020094908600948D0F8A802DB
:1007800008B9012000E000200449091D086010207C
:1007900000F008F810BD000000100240A4824242A0
:1007A000008042420149086070470000143C01404B
:1007B00001460020034A12680A400AB1012000E005
:1007C00000207047143C0140F0B50A460021002388
:1007D000002400BF3DE0012505FA01F3156805EA94
:1007E00003049C4234D105684F000326BE40B54344
:1007F000056015794E00B5400668354305601579EA
:10080000012D02D01579022D16D185684F000326DF
:10081000BE40B543856055794E00B5408668354386
:100820008560456801268E40B543456045689679E8
:100830008E40B6B235434560C5684F000326BE40C2
:10084000B543C560D5794E00B540C6683543C5602F
:10085000491C1029BFD3F0BDF0B5002300244D077B
:10086000ED0E02FA05F3CE1000F1200555F82650E2
:100870004E07F70E0F26BE40B543CF1000F12006FD
:1008800046F82750CE1000F1200555F8265045EACD
:100890000304CE1000F1200545F82640F0BD0246C5
:1008A000002013690B400BB1012000E000207047CD
:1008B000418370470183704700BFFEE710B50020F9
:1008C0000F4908600F48006820F440200D49086077
:1008D0000846006840F48020086000200A49C1F8FA
:1008E000A402022000F0F4FF012005490860022064
:1008F00000F0EEFF00200449C1F8A00210BD000086
:10090000A082404200040240008040421CB5012108
:10091000022000F021FA4FF44070009001208DF881
:10092000040000208DF8060003208DF8050001204A
:100930008DF8070069460548FFF746FF0120044986
:1009400008600449C1F8A4021CBD00000004024074
:10095000A08240420080404210B500200F4908604C
:100960000F48006820F440200D49086008460068E0
:1009700040F48020086001200A49C1F8A402022046
:1009800000F0A6FF012005490860022000F0A0FF4A
:1009900000200449C1F8A00210BD0000A08240421E
:1009A000000402400080404270B50546002416480D
:1009B000006820F440201449086008460068086078
:1009C000002616E0002011490860022000F080FF98
:1009D00001200F49C1F8A0026006040E0B487C38C4
:1009E000006808B1601CC4B2012000F071FF701CE7
:1009F000C6B2082EE6DB15B9FFF7AEFF01E0FFF740
:100A00005DFF204670BD000000040240A08240420D
:100A10000080404270B504461548006820F440202C
:100A2000134908600846006840F4802008600020F0
:100A300010490860002517E0E0090E49091D08600B
:100A40006006040E022000F043FF01200A49C1F8AD
:100A5000A002022000F03CFF0020064908600220AE
:100A600000F036FF681CC5B2082DE5DB70BD000044
:100A700000040240A08240420080404210B50F486E
:100A8000006820F440200D4908600846006840F4E2
:100A90008020086001200A4908600A49C1F8A002C4
:100AA000042000F015FF002005490860042000F034
:100AB0000FFF00200349C1F8A00210BD000402404E
:100AC000A48240420080404210B50F48006820F4E4
:100AD00040200D4908600846006840F48020086006
:100AE00000200A4908600A49C1F8A402042000F065
:100AF000EFFE0120054908600549C1F8A402042061
:100B000000F0E6FE10BD000000040240A08240425A
:100B10000080404210B500241348006820F44020B3
:100B20001149086008460068086001200F49086004
:100B300000F0CEFE01200E49C1F8A00200F0C8FE70
:100B400007E0601CC4B2FA2C03DDFFF7BDFF0120F3
:100B500010BD0648803800680028F2D10349091FFB
:100B6000086000BFF4E7000000040240A482404295
:100B7000008040421CB50121112000F0EDF81C203E
:100B8000009000208DF8040003208DF8050001205E
:100B90008DF8070069460648FFF716FE0120009011
:100BA00002208DF8070069460248FFF70DFE1CBDC4
:100BB000001002400000024010B5044614B10120AC
:100BC0002C4908702B480078002837D010212A487B
:100BD000FFF765FE78B108212748FFF760FE50B1A6
:100BE00004212548FFF75BFE28B101212348FFF7C8
:100BF00056FE012822D10A2000F04EFE00201D4999
:100C0000087010211C48FFF74AFE08B9012010BDEA
:100C100008211948FFF743FE08B90220F7E704212D
:100C20001548FFF73CFE08B90320F0E701211348FF
:100C3000FFF735FE01281BD10420E8E710210E48FC
:100C4000FFF72DFE012813D108210B48FFF727FEDF
:100C500001280DD104210848FFF721FE012807D102
:100C600001210648FFF71BFE10B901200149087059
:100C70000020CCE71A0000200010024000000240D3
:100C80001CB50121202000F067F84FF4C0600090EF
:100C900001208DF8040000208DF8060003208DF857
:100CA000050001208DF8070069460448FFF78CFD18
:100CB0004FF4C0610148FFF7FDFD1CBD0014024068
:100CC00000BFFEE77047000070B5002100230F222F
:100CD000C4781CB3174C246804F4E064C4F5E064E1
:100CE000C4F30721C1F10404E3B20A4144789C40F3
:100CF000E1B28478144021430C07210E0E4C057894
:100D00006155047804F01F050124AC4005786D118D
:100D1000AD0005F1E025C5F8004109E0047804F0D4
:100D20001F050124AC40054D0678761145F8264094
:100D300070BD00000CED00E000E400E080E100E0A8
:100D400002490143024A1160704700000000FA05A1
:100D50000CED00E07047000029B1064A126802431A
:100D6000044B1A6004E0034A12688243014B1A6084
:100D7000704700003038024029B1064A1268024329
:100D8000044B1A6004E0034A12688243014B1A6064
:100D9000704700004038024029B1064A12680243F9
:100DA000044B1A6004E0034A12688243014B1A6044
:100DB0007047000044380240F0B5002100220024B2
:100DC000022500260223324F3F6807F00C0121B1B3
:100DD000042905D0082937D105E02E4F076036E0F9
:100DE0002D4F076033E02A4F3F1F3F68C7F38056FF
:100DF000274F3F1F3F6807F03F036EB1264FB7FBF9
:100E0000F3F7DFF88CC0ACF1040CDCF800C0CCF3D5
:100E1000881C07FB0CF40CE01E4FB7FBF3F7DFF860
:100E200070C0ACF1040CDCF800C0CCF3881C07FBEC
:100E30000CF4174F3F1F3F68C7F301477F1C7D002D
:100E4000B4FBF5F7076002E0124F076000BF00BF78
:100E50000F4F3F6807F0F0010909104F7A5C0768EF
:100E6000D74047600A4F3F6807F4E051890A0B4FAB
:100E70007A5C4768D7408760054F3F6807F4604158
:100E8000490B064F7A5C4768D740C760F0BD000049
:100E9000083802400024F40000127A00000000200C
:100EA000704700000CB500200190009034480068A5
:100EB00040F480303249086000BF3148006800F4D7
:100EC000003000900198401C0190009818B90198DA
:100ED000B0F5A04FF1D12A48006800F4003010B1FD
:100EE0000120009001E0002000900098012846D1E8
:100EF00023484030006840F080502149403108606C
:100F00002048006840F440401E4908601C480830F2
:100F100000681B49083108600846006840F400403A
:100F200008600846006840F4A05008601648091F91
:100F30000860081F006840F08070091F086000BF4B
:100F40000F48006800F000700028F9D040F20570EA
:100F50000E4908600A480830006820F0030008497C
:100F6000083108600846006840F00200086000BFD1
:100F700003480830006800F00C000828F8D10CBDC8
:100F8000003802400070004008544007003C024016
:100F9000042808D14FF0E021096941F004014FF025
:100FA000E022116107E04FF0E021096921F004011E
:100FB0004FF0E022116170477047000010B51548EE
:100FC000006840F47000134908601348006840F05E
:100FD00001001149086000200F49083108600E48DF
:100FE00000680E4908400C4908600D48091D08605A
:100FF000081F006820F48020091F086000200649AF
:101000000C310860FFF74EFF4FF000600149803956
:10101000086010BD88ED00E000380240FFFFF6FEDA
:1010200010300024F0B50C46154600210022068C35
:101030004FF6FE773E400684018B028C4FF60C760D
:1010400031407E1C06EA03162E4331434FF6F576F7
:10105000324044F00106324301830284F0BDF0B512
:101060000C461546002100220026078C4FF6EF7C27
:1010700007EA0C070784018B028C4FF6FF7707EA1B
:10108000041640F6FF4739404FF6FF7707EA03376B
:1010900039434FF6FF7707EA052739434FF65F7765
:1010A0003A4046F010073A4301830284F0BDF0B5A0
:1010B0000C461546002100220026078C4FF6FF6CD7
:1010C00007EA0C070784818B028C4FF6FF7707EA4B
:1010D00004264FF60C7739404FF6FF7707EA0317DF
:1010E0002F4339434FF2FF573A4046F480773A4353
:1010F00081830284F0BDF0B50C4615460021002224
:101100000026078C4EF6FF7C07EA0C070784818BCC
:10111000028C4FF6FF7707EA043640F6FF47394066
:101120004FF6FF7707EA052739434FF6FF7707EABF
:101130000337394345F6FF773A4046F480573A4340
:1011400081830284F0BD000030B589B005460C46AD
:1011500001210846FFF710FE01210846FFF7FCFDBC
:101160002020079002208DF8200000208DF822001A
:1011700003208DF8210000208DF8230007A91948CD
:10118000FFF722FB012205211648FFF765FB0595B5
:10119000ADF810400020ADF81800ADF8120004A919
:1011A0004FF0804000F046F90020ADF80400ADF8A3
:1011B00006000120ADF808000020ADF80A00ADF8E7
:1011C0000C0001A94FF0804000F0BDF8012203217E
:1011D000900700F0EFF80121880700F088F809B0C7
:1011E00030BD00000000024010B50121084800F0A9
:1011F00099F8012807D10748006808B9012000E0E4
:101200000020044908600121014800F06DF810BD7C
:1012100000040040A882424210B53048007800F037
:101220008000002854D101212D4800F07BF8D0B176
:101230002A48007800F04000A8B12848007800F063
:101240003F003F280AD12548007840F0800023491C
:1012500008704FF0FF302349086004E01F48007811
:10126000401C1E49087002211D4800F05BF878B34D
:101270001A48007800F0400078B11848007840F033
:10128000800016490870164800F03DF815490860BE
:101290000021134800F097F81AE000200F49087069
:1012A000104908600D48007840F040000B49087074
:1012B00000210B4800F01BF80021094800F08CF8D1
:1012C0000221074800F07FF80121054800F00FF8DF
:1012D0000321034800F008F810BD00001C000020A6
:1012E000000C004020000020CA430282704721B158
:1012F000028842F00102028004E002884FF6FE7389
:101300001A40028070470146486B70470146486AA0
:10131000704702460020138A0B400BB1012000E009
:101320000020704730B50246002000230024158AB3
:1013300005EA0103958905EA010413B10CB1012006
:1013400000E0002030BD70B505460C46208850B93D
:101350002389A28861882846FFF764FEE188284631
:1013600000F03CF825E0208804280AD12389A288CF
:1013700061882846FFF773FEE188284600F037F8B9
:1013800017E0208808280AD12389A2886188284686
:10139000FFF78DFEE188284600F036F809E0238942
:1013A000A28861882846FFF7A6FEE188284600F05B
:1013B00034F870BD1AB183890B43838102E08389BD
:1013C0008B43838170470A460021018C4FF6FD73E1
:1013D000194011430184704741627047028B4FF6F8
:1013E000F3731A400283028B0A4302837047028B15
:1013F0004FF2FF331A400283028B4FF6FF7303EA6A
:1014000001231A4302837047828B4FF6F3731A400D
:101410008283828B0A4382837047828B4FF2FF3331
:101420001A408283828B4FF6FF7303EA01231A432B
:101430008283704700220288184B98420ED0184BC6
:1014400098420BD0B0F1804F08D0164B984205D08F
:10145000154B984202D0154B984204D14FF68F732A
:101460001A404B881A43124B984207D0114B9842AE
:1014700004D04FF6FF431A400B891A4302804B6891
:10148000C3620B880385054B984202D0044B9842F7
:1014900001D18B7A038601238382704700000140CB
:1014A000000401400004004000080040000C00401F
:1014B000001000400014004010B500F081F80FE06B
:1014C0004FF08040FFF722FF0B490988A1F5FA7120
:1014D000884205D94FF08040FFF718FF80B210BD59
:1014E00002214807FFF715FF0028E9D04FF08040A0
:1014F000FFF709FF80B2F2E724000020F0B585B0C5
:101500000746781E81B24FF0FF30FFF71DFE002422
:1015100008E0FFF7D1FF2DF814000A2000F0BCF915
:10152000601CC4B20A2CF4DB002419E0002511E091
:101530003DF81510681C3DF81000814208DD681C5C
:101540003DF810603DF815102DF810102DF81560BD
:10155000681CC5B2C4F10900A842E9DC601CC4B231
:10156000092CE3DB0026022405E03DF8140030449A
:1015700086B2601CC4B2082CF7DB062096FBF0F0A4
:10158000084908800846018807A0FEF777FE05484D
:101590000088B0F1004F02D3012005B0F0BD00205B
:1015A000FBE7000024000020747061645F646566DE
:1015B00061756C745F76616C3A25640D0A000000F9
:1015C0001CB52020009001208DF8040000208DF82B
:1015D000060003208DF8050002208DF807006946FB
:1015E0001348FFF7F1F820211148FFF761F90520B2
:1015F00000F052F903214FF08040FFF775FE002103
:101600004FF08040FFF7E8FE2020009002208DF888
:10161000040000208DF8060003208DF8050000204E
:101620008DF8070069460248FFF7CEF81CBD0000A0
:101630000000024010B540F225511D4800F04AF864
:1016400010B31B4800F000F9C4B21A48008800F437
:101650000040C8B91748008800F4804060B10A2CE7
:1016600003D000201349088020E01248008840F48D
:1016700000401049088019E00D2C06D10D48008863
:1016800040F480400B49088010E00A480088C0F30D
:101690000D0009490C5407480088401C0549088082
:1016A00008460088C72801DD0020088010BD000022
:1016B00000100140180000202800002021B182897C
:1016C00042F40052828104E082894DF6FF731A4091
:1016D0008281704770B50246002400230025002057
:1016E00040F66A16B14200D100BFC1F3421501F0C5
:1016F0001F03012606FA03F3012D02D19689334018
:1017000006E0022D02D1168A334001E0968A33406A
:101710000C12012606FA04F41688344013B10CB1F9
:10172000012000E0002070BDF0B503460024002633
:101730000025002040F66A17B94200D100BF1846C4
:10174000C1F3421401F01F06012707FA06F5012C28
:1017500001D10C3004E0022C01D1103000E0143033
:101760001AB107682F43076002E00768AF430760BC
:10177000F0BD00002DE9FF4705460E460024A146B6
:1017800000BFA046B08900B100BF2C8A24F44054A9
:10179000F08804432C82AC8941F20C608443B08809
:1017A00031890843718908430443AC81AC8A24F42D
:1017B0004074B0890443AC826846FFF7FDFA2048C4
:1017C000854202D01F48854202D1DDF80C9001E02D
:1017D000DDF80890A88900F4004040B109EBC90089
:1017E00000EB091031684900B0FBF1F707E009EBA5
:1017F000C90000EB091031688900B0FBF1F76420E3
:10180000B7FBF0F004012009642101FB1078A889DE
:1018100000F4004040B1322000EBC800B0FBF1F012
:1018200000F00700044308E0322000EB08106421B8
:10183000B0FBF1F000F00F0004432C81BDE8FF87FE
:10184000001001400014014001468888C0F30800E0
:10185000704700BFFEE700BF7047000010B50446A8
:101860006FF00400FFF794FBE11704EB5171C1F333
:10187000C701074A11701046007800EB4001C1EB28
:10188000C0104FF6FF7101EAC0000249088010BD88
:10189000100000201200002070B504464FF40770BD
:1018A00094FBF0F0C6B24FF4077094FBF0F100FB2C
:1018B000114085B205E04FF4077000F02FF8701E5C
:1018C000C6B2002EF7D115B1284600F027F870BD3A
:1018D0000146114A12784A434FF0E0235A61002230
:1018E0009A611A46126942F001021A6100BF4FF074
:1018F000E022106900F001021AB100F48032002ADF
:10190000F5D04FF0E022126922F001024FF0E023FF
:101910001A6100229A617047100000200146114AA6
:1019200012884A434FF0E0235A6100229A611A4616
:10193000126942F001021A6100BF4FF0E022106903
:1019400000F001021AB100F48032002AF5D04FF005
:10195000E022126922F001024FF0E0231A61002216
:101960009A6170471200002000BF054A128802F0F9
:101970004002002AF9D0C2B2014B9A8070470000A1
:101980000010014088B000254FF4A060FFF7D8F99F
:10199000A820FFF763FF4FF4E13000F09DF8FFF758
:1019A0006FF9FFF7E7F80820FFF7A8FDFEF7F7FD4E
:1019B0000AE021A0FEF762FC2848006808B901206F
:1019C00000E0002025490860FEF7D2FD0028F0D194
:1019D00023A0FEF753FC2EE00020FFF7EDF80446AD
:1019E000022C0AD122A0FEF749FC1A222649002027
:1019F000FEF716FE25A0FEF741FC012C0BD129A015
:101A0000FEF73CFC1A2201A90020FEF7CCFD01A93B
:101A10002AA0FEF733FC681C85B20A20FFF73CFFC2
:101A2000142D08D10D48006808B9012000E00020FD
:101A30000A4908600025CFE732344330322043683A
:101A400065636B204661696C656421506C656173E8
:101A50006520436865636B210D0A0000A482424241
:101A60003234433032205265616479210D0A00001E
:101A70005374617274205772697465203234433034
:101A8000322E2E2E2E0D0A008E1B000832344330CB
:101A9000322057726974652046696E69736865649F
:101AA000210D0A0053746172742052656164203202
:101AB000344330322E2E2E2E200D0A00546865201D
:101AC00044617461205265616465642049733A2001
:101AD00025732E0D0A00000010B588B004460121C0
:101AE0000846FFF739F901211020FFF755F90722C1
:101AF00009212248FEF7B0FE07220A211F48FEF7FF
:101B0000ABFE4FF4C060069002208DF81C008DF8EB
:101B10001D0000208DF81E0001208DF81F0006A971
:101B20001648FEF751FE02940020ADF80C00ADF807
:101B30000E00ADF81000ADF814000C20ADF8120046
:101B400002A90F48FFF716FE01210D48FFF7B6FD69
:101B5000012240F225510A48FFF7E6FD25208DF8C5
:101B6000040003208DF805008DF8060001208DF893
:101B7000070001A8FFF7A8F808B010BD0000024058
:101B8000001001404FF04070E1EE100A70474578B8
:101B9000706C6F7265722053544D33324634204955
:101BA0004943205445535400C81B0008000000203E
:101BB00028000000C4010008F01B000828000020D5
:101BC00028070000E00100080000000001020304F3
:101BD00001020304060708090000000000000000DD
:101BE00000000100000000000000000000000000F4
:040000050800018965
:00000001FF
