:020000040800F2
:1000000018350120F1020008850B00085909000885
:10001000810B0008390700084312000800000000A7
:100020000000000000000000000000003102000895
:100030003D070008000000008D020008510E000876
:100040000B0300080B0300080B0300080B03000858
:100050000B0300080B030008410700080B0300080E
:100060007D070008B9070008F50700080B03000822
:100070000B0300080B0300080B0300080B03000828
:100080000B0300080B0300080B0300080B03000818
:100090000B0300080B0300080B0300080B03000808
:1000A0000B0300080B0300080B0300080B030008F8
:1000B0000B030008C90E00080B0300080B0300081F
:1000C0000B0300080B0300080B0300080B030008D8
:1000D0000B030008251000080B0300080B030008A1
:1000E0000B0300080B0300080B0300080B030008B8
:1000F0000B0300080B0300080B0300080B030008A8
:100100000B0300080B030008F90E00080B0300089E
:100110000B0300080B0300080B0300080B03000887
:100120000B0300080B0300080B0300080B03000877
:100130000B0300080B0300080B0300080B03000867
:100140000B0300080B0300080B0300080B03000857
:100150000B0300080B0300080B0300080B03000847
:100160000B0300080B0300080B0300080B03000837
:100170000B0300080B0300080B0300080B03000827
:100180000B0300080B03000800F002F800F041F830
:100190000AA090E8000C82448344AAF10107DA45E2
:1001A00001D100F036F8AFF2090EBAE80F0013F0F3
:1001B000010F18BFFB1A43F0010318474432000037
:1001C00064320000103A24BF78C878C1FAD85207C8
:1001D00024BF30C830C144BF04680C6070470000C1
:1001E0000023002400250026103A28BF78C1FBD840
:1001F000520728BF30C148BF0B607047642900F028
:10020000D980002070471FB503F0F4F81FBD10B56A
:1002100010BD00F05FFA1146FFF7F5FF01F08AF814
:1002200000F07DFA03B4FFF7F2FF03BC01F00BF816
:100230002C4B19680868B0E8F04F80F30988BFF3C9
:100240006F8F4FF0000080F31188704700000000AE
:1002500008480068006880F308884FF0000080F3C9
:10026000148862B661B6BFF34F8FBFF36F8F00DFA4
:1002700000BF00BF08ED00E0DFF80C00016841F4AA
:1002800070010160704700BF88ED00E0EFF3098066
:10029000BFF36F8F134B1A681EF0100F08BF20EDCD
:1002A000108A20E9F04F106009B44FF0500080F33D
:1002B0001188BFF34F8FBFF36F8F02F039FA4FF001
:1002C000000080F3118809BC19680868B0E8F04F95
:1002D0001EF0100F08BFB0EC108A80F30988BFF33E
:1002E0006F8F704748000020EFF3058070470000D3
:1002F0000948804709480047FEE7FEE7FEE7FEE7BA
:10030000FEE7FEE7FEE7FEE7FEE7FEE704480549F5
:10031000054A064B70470000610E0008890100087D
:10032000182F012018350120183101201831012023
:10033000704700000FB4044910B503AA029800F0FA
:1003400047F910BC5DF814FB380000202DE9F0419E
:100350000E460446002020622046E168884730B3FC
:10036000252805D0D4E901219047206A401CF2E7F6
:10037000E168204600278847050018D0A5F1410014
:10038000192802D820354FF4006732462946204606
:100390002760FFF733FF40B1012804D0F61D26F097
:1003A00007060836D8E7361DD6E72846DAE7206A7A
:1003B000BDE8F0812DE9F04106460024106875295A
:1003C000314616A510D0AFF30080002802DA404273
:1003D00013A507E031688A0701D512A502E0490795
:1003E00004D511A5012401E0AFF3008000210A2209
:1003F00006F1240709E0B0FBF2FCB0FBF2F302FBCC
:100400001C00303078541846491C0028F3D123468C
:100410002A463046BDE8F04100F080B800000000F8
:100420002D0000002B00000020000000032A40F2F5
:10043000308010F0030C00F0158011F8013BBCF186
:10044000020F624498BF11F801CB00F8013B38BF9E
:1004500011F8013BA2F1040298BF00F801CB38BFAC
:1004600000F8013B11F0030300F0C480083AC0F02B
:10047000088051F8043B083A51F804CBA0E8081072
:10048000F5E7121D5CBF51F8043B40F8043BAFF3A5
:100490000080D20724BF11F8013B11F801CB48BFFF
:1004A00011F8012B24BF00F8013B00F801CB48BF35
:1004B00000F8012B704702F0FF0343EA032242EAEF
:1004C000024200F0CBB84FF0000200B5134694464C
:1004D0009646203922BFA0E80C50A0E80C50B1F19C
:1004E0002001BFF4F7AF090728BFA0E80C5048BFB0
:1004F0000CC05DF804EB890028BF40F8042B08BF4E
:10050000704748BF20F8022B11F0804F18BF00F849
:10051000012B704770477047704770472DE9F047CF
:100520000D4699469246044600F124080168880663
:1005300004D5E06921F01001216000E00120A8420B
:1005400001DD471B00E00027A1697A1902EB0900D1
:10055000081AA0612078C00602D42046AFF30080BC
:10056000002608E0D4E901211AF806009047206A25
:10057000401C761C20624E45F4DB2078C0060AD56C
:100580002046AFF3008006E0D4E9012130209047F7
:10059000206A401C2062381EA7F10107F4DC07E046
:1005A000D4E9012118F805009047206A401C206218
:1005B000281EA5F10105F3DC2046AFF3008020786A
:1005C000000602D50220BDE8F0870120FBE700000D
:1005D000074B70B50D467B4400F065F8044628468D
:1005E00000F074F810B14FF0FF3070BD204670BDC0
:1005F0003F0D000010B5203AC0F00B80B1E8185054
:10060000203AA0E81850B1E81850A0E81850BFF4FC
:10061000F5AF5FEA027C24BFB1E81850A0E818509B
:1006200044BF18C918C0BDE810405FEA827C24BFEF
:1006300051F8043B40F8043B08BF7047D20728BF7D
:1006400031F8023B48BF11F8012B28BF20F8023BCC
:1006500048BF00F8012B70474FF000020429C0F09A
:10066000128010F0030C3FF430AFCCF1040CBCF15D
:10067000020F18BF00F8012BA8BF20F8022BA1EB36
:100680000C01FFF722BF5FEAC17C24BF00F8012BF9
:1006900000F8012B48BF00F8012B704701694A1C84
:1006A00002610878704700B58FB0CDE901310021B3
:1006B000059105497944CDE9031011466846FFF7D5
:1006C00045FE0FB000BD0000E5FFFFFF007B00F01E
:1006D00080007047754600F02BF8AE46050069466D
:1006E000534620F00700854618B020B5FFF70EFEF0
:1006F000BDE820404FF000064FF000074FF0000823
:100700004FF0000B21F00701AC46ACE8C009ACE8A3
:10071000C009ACE8C009ACE8C0098D46704710B507
:100720000446AFF300802046BDE81040FFF77ABDD5
:1007300000487047B42E012000BFFEE7704700005C
:1007400010B5012000F086F880B10A2000F0A0FD6D
:100750000121084800F0F5F8012807D10648006893
:1007600008B9012000E0002003490860012000F0E2
:100770006BF810BD00000240A082424210B5042078
:1007800000F068F878B10A2000F082FD04210848E2
:1007900000F0D7F838B90748006808B9012000E030
:1007A000002004490860042000F04EF810BD00004D
:1007B00000100240A882424210B5082000F04AF81A
:1007C00078B10A2000F064FD0821084800F0B9F86B
:1007D00038B90748006808B9012000E00020044942
:1007E0000860082000F030F810BD00000010024042
:1007F000A482424210B5102000F02CF8C8B10A20A3
:1008000000F046FD10210D4800F09BF888B90C4817
:10081000006808B9012000E0002009490860094883
:10082000D0F8A80208B9012000E000200449091D01
:100830000860102000F008F810BD00000010024011
:10084000A482424200804242014908607047000091
:10085000143C014001460020034A12680A400AB1D4
:10086000012000E000207047143C0140F0B50A462A
:1008700000210023002400BF3DE0012505FA01F31B
:10088000156805EA03049C4234D105684F0003262D
:10089000BE40B543056015794E00B5400668354346
:1008A00005601579012D02D01579022D16D18568C4
:1008B0004F000326BE40B543856055794E00B540D4
:1008C000866835438560456801268E40B54345609E
:1008D000456896798E40B6B235434560C5684F008D
:1008E0000326BE40B543C560D5794E00B540C66805
:1008F0003543C560491C1029BFD3F0BDF0B50023B6
:1009000000244D07ED0E02FA05F3CE1000F120058C
:1009100055F826504E07F70E0F26BE40B543CF10B0
:1009200000F1200646F82750CE1000F1200555F8BA
:10093000265045EA0304CE1000F1200545F8264074
:10094000F0BD0246002013690B400BB1012000E00E
:10095000002070470183704700BFFEE71CB50121EE
:10096000112000F057F91C20009000208DF80400A1
:1009700003208DF8050001208DF807006946064820
:10098000FFF774FF0120009002208DF807006946F0
:100990000248FFF76BFF1CBD001002400000024040
:1009A00010B5044614B101202C4908702B4800787A
:1009B000002837D010212A48FFF7C3FF78B108215B
:1009C0002748FFF7BEFF50B104212548FFF7B9FFC4
:1009D00028B101212348FFF7B4FF012822D10A20C2
:1009E00000F056FC00201D49087010211C48FFF73C
:1009F000A8FF08B9012010BD08211948FFF7A1FF81
:100A000008B90220F7E704211548FFF79AFF08B953
:100A10000320F0E701211348FFF793FF01281BD1C2
:100A20000420E8E710210E48FFF78BFF012813D1BF
:100A300008210B48FFF785FF01280DD10421084844
:100A4000FFF77FFF012807D101210648FFF779FF53
:100A500010B90120014908700020CCE73E000020B9
:100A6000001002400000024013E00020FFF798FF52
:100A70000446012C04D10748006801F0D7FD05E0C9
:100A8000022C03D10348006801F03EFD142001F060
:100A900045FCEAE714000020002414E0601C84B246
:100AA0000120094908604FF4FA7001F037FC00207A
:100AB0000649C1F8A4024FF4FA7001F02FFC214658
:100AC00003A0FFF737FCE9E7A482424200804242DC
:100AD0006C6564305F7461736BD4CBD0D0C1CB25AF
:100AE00064B4CE0D0A000000002418E0601C84B23B
:100AF00001200B4908604FF4487001F00FFC002002
:100B00000849C1F8A802C82001F008FC052C02DD44
:100B1000002001F031FC214603A0FFF70BFCE5E7C4
:100B2000A8824242008042426C6564315F74617306
:100B30006BD4CBD0D0C1CB2564B4CE0D0A0000005D
:100B40001CB50121202000F065F84FF4C060009032
:100B500001208DF8040000208DF8060003208DF898
:100B6000050001208DF8070069460448FFF77EFE66
:100B70004FF4C0610148FFF7EDFE1CBD00140240B8
:100B800000BFFEE77047000070B5002100230F2270
:100B9000C4781CB3174C246804F4E064C4F5E06422
:100BA000C4F30721C1F10404E3B20A4144789C4034
:100BB000E1B28478144021430C07210E0E4C0578D5
:100BC0006155047804F01F050124AC4005786D11CF
:100BD000AD0005F1E025C5F8004109E0047804F016
:100BE0001F050124AC40054D0678761145F82640D6
:100BF00070BD00000CED00E000E400E080E100E0EA
:100C000002490143024A1160704700000000FA05E2
:100C10000CED00E029B1064A12680243044B1A6049
:100C200004E0034A12688243014B1A6070470000D7
:100C30003038024029B1064A12680243044B1A6058
:100C400004E0034A12688243014B1A6070470000B7
:100C500044380240F0B5002100220024022500267D
:100C60000223324F3F6807F00C0121B1042905D05F
:100C7000082937D105E02E4F076036E02D4F076079
:100C800033E02A4F3F1F3F68C7F38056274F3F1F6F
:100C90003F6807F03F036EB1264FB7FBF3F7DFF86D
:100CA0008CC0ACF1040CDCF800C0CCF3881C07FB52
:100CB0000CF40CE01E4FB7FBF3F7DFF870C0ACF19B
:100CC000040CDCF800C0CCF3881C07FB0CF4174FB5
:100CD0003F1F3F68C7F301477F1C7D00B4FBF5F75A
:100CE000076002E0124F076000BF00BF0F4F3F6870
:100CF00007F0F0010909104F7A5C0768D740476098
:100D00000A4F3F6807F4E051890A0B4F7A5C476845
:100D1000D7408760054F3F6807F46041490B064F95
:100D20007A5C4768D740C760F0BD000008380240D1
:100D30000024F40000127A00000000200CB500200E
:100D4000019000903448006840F4803032490860D7
:100D500000BF3148006800F4003000900198401C4A
:100D60000190009818B90198B0F5A04FF1D12A4828
:100D7000006800F4003010B10120009001E0002074
:100D800000900098012846D123484030006840F088
:100D900080502149403108602048006840F44040BC
:100DA0001E4908601C48083000681B49083108606B
:100DB0000846006840F4004008600846006840F4B7
:100DC000A05008601648091F0860081F006840F01E
:100DD0008070091F086000BF0F48006800F00070B5
:100DE0000028F9D040F205700E4908600A48083022
:100DF000006820F0030008490831086008460068D0
:100E000040F00200086000BF03480830006800F0AE
:100E10000C000828F8D10CBD0038024000700040DA
:100E200008544007003C0240042808D14FF0E0215C
:100E3000096941F004014FF0E022116107E04FF031
:100E4000E021096921F004014FF0E02211617047AF
:100E500010B502F075F8012801D001F063FD10BD56
:100E600010B51548006840F4700013490860134835
:100E7000006840F001001149086000200F49083166
:100E800008600E4800680E4908400C4908600D488B
:100E9000091D0860081F006820F48020091F0860F1
:100EA000002006490C310860FFF748FF4FF0006052
:100EB00001498039086010BD88ED00E0003802402B
:100EC000FFFFF6FE1030002410B50121084800F0A5
:100ED0008DF8012807D10748006808B9012000E013
:100EE0000020044908600121014800F06DF810BDA0
:100EF00000040040A882424210B53048007800F05B
:100F00008000002854D101212D4800F06FF8D0B1A5
:100F10002A48007800F04000A8B12848007800F086
:100F20003F003F280AD12548007840F0800023493F
:100F300008704FF0FF302349086004E01F48007834
:100F4000401C1E49087002211D4800F04FF878B37C
:100F50001A48007800F0400078B11848007840F056
:100F6000800016490870164800F03DF815490860E1
:100F70000021134800F04BF81AE000200F490870D8
:100F8000104908600D48007840F040000B49087097
:100F900000210B4800F01BF80021094800F040F840
:100FA0000221074800F033F80121054800F00FF84E
:100FB0000321034800F008F810BD000040000020A5
:100FC000000C004044000020CA430282704721B157
:100FD000028842F00102028004E002884FF6FE73AC
:100FE0001A40028070470146486B704730B5024690
:100FF000002000230024158A05EA0103958905EAEB
:10100000010413B10CB1012000E0002030BD0A46FC
:101010000021018C4FF6FD73194011430184704784
:101020004162704710B540F225511D4800F04AF862
:1010300010B31B4800F000F9C4B21A48008800F44D
:101040000040C8B91748008800F4804060B10A2CFD
:1010500003D000201349088020E01248008840F4A3
:1010600000401049088019E00D2C06D10D48008879
:1010700040F480400B49088010E00A480088C0F323
:101080000D0009490C5407480088401C0549088098
:1010900008460088C72801DD0020088010BD000038
:1010A000001001403C000020BC00002021B18289DA
:1010B00042F40052828104E082894DF6FF731A40A7
:1010C0008281704770B5024600240023002500206D
:1010D00040F66A16B14200D100BFC1F3421501F0DB
:1010E0001F03012606FA03F3012D02D1968933402E
:1010F00006E0022D02D1168A334001E0968A334081
:101100000C12012606FA04F41688344013B10CB10F
:10111000012000E0002070BDF0B503460024002649
:101120000025002040F66A17B94200D100BF1846DA
:10113000C1F3421401F01F06012707FA06F5012C3E
:1011400001D10C3004E0022C01D1103000E0143049
:101150001AB107682F43076002E00768AF430760D2
:10116000F0BD00002DE9FF4705460E460024A146CC
:1011700000BFA046B08900B100BF2C8A24F44054BF
:10118000F08804432C82AC8941F20C608443B0881F
:1011900031890843718908430443AC81AC8A24F443
:1011A0004074B0890443AC826846FFF753FD204881
:1011B000854202D01F48854202D1DDF80C9001E043
:1011C000DDF80890A88900F4004040B109EBC9009F
:1011D00000EB091031684900B0FBF1F707E009EBBB
:1011E000C90000EB091031688900B0FBF1F76420F9
:1011F000B7FBF0F004012009642101FB1078A889F5
:1012000000F4004040B1322000EBC800B0FBF1F028
:1012100000F00700044308E0322000EB08106421CE
:10122000B0FBF1F000F00F0004432C81BDE8FF8714
:10123000001001400014014001468888C0F30800F6
:10124000704700BFFEE700BF7047000070B504465E
:101250000420FFF7E9FD0C48047025464FF47A702E
:1012600045430120094908804FF0E020006940F023
:1012700002004FF0E021086108464561006940F036
:101280000100086170BD000034000020360000201D
:1012900070B5044601F054FE012810D00B480088B8
:1012A000844206D309480088B4FBF0F5284601F0D3
:1012B00035F806480088B4FBF0F100FB11444FF408
:1012C0007A7104FB01F000F003F870BD36000020D5
:1012D00070B5034600224FF0E02675690D4E367852
:1012E00003FB06F44FF0E026B16910E04FF0E02672
:1012F000B06988420BD0884202D20E1A324402E012
:101300002E1A0E4432440146A24200D300E0EDE71B
:1013100000BF70BD3400002000BF054A128802F0F3
:101320004002002AF9D0C2B2014B9A8070470000F7
:10133000001001401CB54FF44070FFF761FCA8207D
:10134000FFF784FF4FF4E13000F02AFEFFF7F8FBCF
:10135000FFF704FB0648012100238022CDE900109D
:1013600004A1074801F0BCFD01F016F900201CBDE6
:101370001000002073746172745F7461736B0000FD
:101380000D1F00082DE9F04105460E461C48076870
:101390001C480068001D00F059FE50B9194800684B
:1013A00090F82C100120884017490968814316489D
:1013B0000160681C38B936B112480168091D13482C
:1013C00000F082FE1AE07C190E4800684460BC42BE
:1013D00007D20C480168091D0D48006800F05AFE4C
:1013E0000CE008480168091D0A48006800F052FE38
:1013F00009480068844201D207480460BDE8F081D2
:101400005C000020480000206000002078020020DE
:10141000500000204C0000207800002010B5044649
:1014200000F05EFE24480068401C23490860234801
:10143000006840B9214804600846006801280DD1C1
:1014400000F0D6F90AE01E48006838B91B48006869
:10145000C06AE16A884201D81848046019480068E7
:10146000401C1849086008460068206494F82C1055
:101470000120884014490968084313490860E16A5B
:1014800001EB8101114A02EB8100211D00F01CFEDD
:1014900000F050FE0A48006868B108480068C06A59
:1014A000E16A884207D24FF0805009490860BFF3D3
:1014B0004F8FBFF36F8F10BD5800002048000020F1
:1014C000640000207400002060000020C40100209F
:1014D00004ED00E010B500F003FE10480068D0B93C
:1014E0000F4800F0C7FD0F4800F0C4FD0C480E493E
:1014F00008600C480D49086000220C210A2001F008
:101500002BFA064908600846006820B108A1034884
:10151000006800F0C7FE00F00DFE10BD8C0000203A
:101520008C020020A00200208400002088000020FF
:10153000546D72510000000010B516E000F0D0FDAF
:101540000C48C068C468201D00F080FD0A4800688F
:10155000401E0949086009480068401E07490860A4
:1015600000F0E8FD204600F05FF80448006800281D
:10157000E4D110BD64020020580000205400002077
:1015800070B504460D46206C70B1216CE0680144D2
:10159000E160D4E90210884201D32168E160284665
:1015A000226CE168FEF742FF70BD2DE9F041044670
:1015B0000F4615464FF00008A66B206C48B920680E
:1015C00000282CD1A06801F075FD80460020A060A5
:1015D00025E07DB93946226C6068FEF727FF216C53
:1015E000606808446060D4E90101884217D320682C
:1015F000606014E03946226CE068FEF717FF216C4A
:10160000E068411AE1602168E068884203D2216CF9
:10161000A068411AE160022D01D106B1761E701C4E
:10162000A0634046BDE8F08110B50446206B00F091
:101630009FFD204600F09CFD10BD00000146084AB9
:10164000126812680AB9012200E000220A600A68E2
:1016500022B9034A1268D268106800E0002070477F
:101660008400002030B54FF49633174800F007048B
:101670002CB1C01D20F00700134C041B1B1B02469D
:10168000124C22600024114D6C60D018083820F0F4
:1016900007000F4C206000240D4D2D686C600C4D30
:1016A0002D682C601146441A4C60094C24680C606B
:1016B000084D4C682C60084D4C682C604FF000447D
:1016C000064D2C6030BD0000B402002098000020C0
:1016D000A0000020A8000020A4000020AC000020F2
:1016E00000BFFFF729FF064800680128F9D94FF02D
:1016F000805004490860BFF34F8FBFF36F8FF0E74E
:10170000C401002004ED00E02DE9F04106460D463D
:1017100017469846069C0DB9246000E02760E663F2
:1017200025640121204601F045F984F84C80BDE88C
:10173000F0812DE9F05F82460E4690469B460A9F57
:101740000C9C4FEA8801A522206BFEF7B4FEA8F19D
:101750000100216B01EB800929F0070909F007005E
:1017600008B9012000E0002050B900BF502080F3EC
:101770001188BFF34F8FBFF36F8F00BF00BFFEE72D
:1017800086B1002507E0715D04F134004155705DBC
:1017900000B902E06D1C0A2DF5D300BF00213D20E9
:1017A000015502E0002084F83400052F00D30427FF
:1017B000E762A7640020E064201D00F068FC04F1EB
:1017C000180000F064FC2461C7F10500A0616462A8
:1017D0000020206584F854005A465146484600F0DF
:1017E0007FFB20600B9808B10B980460BDE8F09F68
:1017F00010B5002407E004EB84010F4A02EB8100DE
:1018000000F038FC641C052CF5D30C4800F032FCC9
:101810000B4800F02FFC0B4800F02CFC0A4800F0AD
:1018200029FC0A4800F026FC0448094908600448DD
:101830000849086010BD0000C401002028020020F3
:101840003C020020500200206402002078020020A8
:101850004C0000205000002010B50146164800E062
:10186000006803688B42FBD30246436813448B42F3
:1018700004D143684C682344436001460A464B68E0
:1018800013440468A34211D10C4C03682468A3429A
:1018900008D04B680468646823444B6003681B6885
:1018A0000B6005E0054B1B680B6001E003680B60F3
:1018B000884200D0016010BD98000020A0000020E8
:1018C0002DE9F04104460D4616461F464FF000082C
:1018D00065602461B5420CD8F01BA169884202D32F
:1018E0004FF0010811E0211D0948006800F0D2FB0B
:1018F0000BE0BE4204D2BD4202D34FF0010804E027
:10190000211D0448006800F0C5FB4046BDE8F08199
:10191000880000208400002070B5054600F0E0FB40
:10192000A86B08B9012400E0002400F003FC204665
:1019300070BD70B5054600F0D3FBA86BE96B88421B
:1019400001D1012400E0002400F0F4FB204670BD2A
:10195000F8B505460F461A480068C068C468201DDF
:1019600000F074FB94F8280000F00400E8B1A069CE
:1019700041192B463A462046FFF7A2FFD8B1002076
:1019800003462A4601460090204601F0F1FC064637
:1019900056B900BF502080F31188BFF34F8FBFF3BB
:1019A0006F8F00BF00BFFEE705E094F8280020F02D
:1019B000010084F828002046216A8847F8BD00000D
:1019C0008400002070B586B08BE003980028FBDB14
:1019D000059C606908B9012000E0002010B9201DB5
:1019E00000F034FB02A800F0DDF8054603980A2851
:1019F00075D2DFE800F009050739416306083A426D
:101A000000BF00BF00BF00BF94F8280040F00100F5
:101A100084F828000498A269811803462A462046C3
:101A2000FFF74EFFF8B12046216A884794F8280056
:101A300000F00400B8B1002000900498A169421899
:101A400000231946204601F093FC064656B900BF14
:101A5000502080F31188BFF34F8FBFF36F8F00BF0B
:101A600000BFFEE700BF3BE000BF94F8280020F075
:101A7000010084F8280033E000BF94F8280040F00B
:101A8000010084F828000498A061A06908B1012031
:101A900000E0002050B900BF502080F31188BFF350
:101AA0004F8FBFF36F8F00BF00BFFEE7A0694119E2
:101AB0002B462A462046FFF703FF11E094F8280042
:101AC00000F0020018B9204600F052FB05E094F83F
:101AD000280020F0010084F8280001E0FFE700BFA3
:101AE00000BF002203A90448006801F0FFF80028A5
:101AF0007FF46BAF06B070BD8C000020F8B50546D2
:101B00000C4600F00DFE684600F04CF806460098C2
:101B100020BB44B9B54206D801F07CFB31462846CB
:101B2000FFF716FF1CE03CB10E480068006808B9DA
:101B3000012000E000200446A91B22460A48006854
:101B400000F0C6FB01F066FB50B94FF0805007492A
:101B50000860BFF34F8FBFF36F8F01E001F05AFBB6
:101B6000F8BD0000880000208C00002004ED00E09B
:101B70000A490968096809B9012100E0002121B179
:101B80004FF0FF31064A116006E004490968C96850
:101B9000C868034A41681160704700004C0000208B
:101BA0007800002070B5044601F0DAF905460748D0
:101BB0000068854204D200F00BF80120206001E0AB
:101BC0000020206001480560284670BD9400002078
:101BD0002DE9F84334E025480068C06805682348CB
:101BE0000068C068C468201D00F030FA2046216AF1
:101BF000884794F8280000F0040008B3A06946194B
:101C0000AE4207D966602461211D1848006800F0C3
:101C100041FA15E0002003462A460146009020467E
:101C200001F0A6FB074657B900BF502080F311888A
:101C3000BFF34F8FBFF36F8F00BF00BFFEE700BF42
:101C40000A480068006808B9012000E00020002868
:101C5000C1D00648D0F800800548006803490860F4
:101C60000348C0F80080BDE8F8830000840000202D
:101C7000880000200E480068401C08B9012000E0E0
:101C8000002050B900BF502080F31188BFF34F8F60
:101C9000BFF36F8F00BF00BFFEE700BF502080F38F
:101CA0001188BFF34F8FBFF36F8F00BF00BFFEE7F8
:101CB000B000002010B502460020114652B900BF06
:101CC000502383F31188BFF34F8FBFF36F8F00BF93
:101CD00000BFFEE70B4C4B69A34201D1012300E09A
:101CE000002373B1084C8B6AA34201D1012300E0A9
:101CF000002333B98B6A0BB9012300E0002303B141
:101D0000012010BD780200205002002008B500BF5D
:101D10006846FFF793FC044620460099FFF7EEFE65
:101D2000FFF750FEF4E770B5044600F0D9F994F9D6
:101D3000455010E0606A08B9012000E0002038B981
:101D400004F1240001F01AFA18B100F09BFB00E046
:101D500003E0681E45B2002DECDC00BFFF2084F8D4
:101D6000450000F0E7F900F0BBF994F9445010E0A9
:101D7000206908B9012000E0002048B904F11000F2
:101D800001F0FCF908B100F07DFB681E45B200E0EF
:101D900001E0002DECDC00BFFF2084F8440000F0DF
:101DA000C9F970BD2DE9F04104464FF0000800F07C
:101DB000B7FC4648006808B9FFF754FC444800687F
:101DC000204000286BD1D4B1083404F00700B0B132
:101DD00004F00700C0F10800044404F0070008B94B
:101DE000012000E0002050B900BF502080F311888E
:101DF000BFF34F8FBFF36F8F00BF00BFFEE7002C14
:101E00004DD034480068844249D8334E3046056886
:101E100001E02E462D686868A04202D2286800289A
:101E2000F7D12A480068854239D0306800F10808A7
:101E3000286830606868001B102819D92F1907F02E
:101E4000070008B9012000E0002050B900BF502071
:101E500080F31188BFF34F8FBFF36F8F00BF00BFB8
:101E6000FEE76868001B78606C603846FFF7F4FC9A
:101E7000184968680968081A164908600846006821
:101E800016490968884203D212480068134908605D
:101E90000F4968680968084368600020286001F0FD
:101EA000B9F908F0070008B9012000E0002050B996
:101EB00000BF502080F31188BFF34F8FBFF36F8FA7
:101EC00000BF00BFFEE74046BDE8F081A000002053
:101ED000AC000020A400002098000020A8000020F2
:101EE000001F4FF080730360001F21F001030360A7
:101EF000001F054B036014380260001F6FF00203DF
:101F00000360203870470000751C00081CB50446AB
:101F100000F0E6F81248022100233222CDE9001039
:101F200010A1134800F0DCFF1248032100233222E5
:101F3000CDE9001010A1134800F0D2FF124804218F
:101F400000236422CDE9001010A1134800F0C8FF5F
:101F50001248006800F010FA00F0ECF81CBD000018
:101F6000140000204C4544305F7461736B00000026
:101F7000990A0008180000204C4544315F746173D1
:101F80006B000000E90A00081C0000204B45595F67
:101F90007461736B00000000690A000810000020E3
:101FA00010B588B0044601210846FEF733FE012132
:101FB0001020FEF73FFE072209212248FEF79EFC73
:101FC00007220A211F48FEF799FC4FF4C0600690D3
:101FD00002208DF81C008DF81D0000208DF81E00D9
:101FE00001208DF81F0006A91648FEF73FFC029459
:101FF0000020ADF80C00ADF80E00ADF81000ADF803
:1020000014000C20ADF8120002A90F48FFF7AAF83F
:1020100001210D48FFF74AF8012240F225510A48F4
:10202000FFF77AF825208DF8040003208DF80500CD
:102030008DF8060001208DF8070001A8FEF7A4FD29
:1020400008B010BD000002400010014001460A69BE
:10205000D1E901309860D1E90103586050688842A5
:1020600001D188685060002008611068401E10602F
:102070001068704700F1080141604FF0FF31816046
:1020800000F10801C1600161002101607047002179
:102090000161704710B502460B685C1C0CB91069F1
:1020A00007E002F1080000E04068446824689C42B0
:1020B000FAD944684C604C68A160886041600A614C
:1020C0001468641C146010BD42684A6093688B6099
:1020D000936859609160086103685B1C03607047F6
:1020E00000BF502080F31188BFF34F8FBFF36F8F75
:1020F00000BF0E480068401C0C4908600846006894
:10210000012812D10A480068C0B208B9012000E0D5
:10211000002050B900BF502080F31188BFF34F8FCB
:10212000BFF36F8F00BF00BFFEE77047B000002015
:1021300004ED00E00D48006850B900BF502080F366
:102140001188BFF34F8FBFF36F8F00BF00BFFEE753
:1021500006480068401E054908600846006820B926
:10216000002080F3118800BF00BF7047B00000203E
:1021700070B506463546002E3FD0083D2C461F4917
:1021800060680968084008B1012000E0002050B9EB
:1021900000BF502080F31188BFF34F8FBFF36F8FC4
:1021A00000BF00BFFEE7206808B9012000E0002062
:1021B00050B900BF502080F31188BFF34F8FBFF399
:1021C0006F8F00BF00BFFEE70C49606809680840D8
:1021D00098B1206888B909496068096888436060D7
:1021E00000F09EFA064960680968084404490860DE
:1021F0002046FFF731FB01F00DF870BDAC00002068
:10220000A400002000204FF0E0210861886106480A
:1022100000684FF47A71B0FBF1F0401E4FF0E021FE
:1022200048610720086170472000002070B5FEF764
:102230005BF80446102C16D304F1E02090F8F0531C
:1022400015480078854201DB012000E0002050B9EC
:1022500000BF502080F31188BFF34F8FBFF36F8F03
:1022600000BF00BFFEE70D48006800F4E0600C49C5
:102270000968884201D8012000E0002050B900BF61
:10228000502080F31188BFF34F8FBFF36F8F00BFD3
:1022900000BFFEE770BD0000B40000200CED00E0C0
:1022A000B8000020024600200BE0084B53F8303005
:1022B00033B9064B43F8301003EBC0035A6002E019
:1022C000401C0828F1D300BF7047000084010020A3
:1022D0002DE9F04105460E4617462C46FFF700FF54
:1022E00094F94400401C10B9002084F8440094F98B
:1022F0004500401C10B9002084F84500FFF71AFF84
:10230000A06B28B93A46314604F1240000F0DCF80D
:102310002046FFF708FDBDE8F081000070B50446D7
:102320000025D4B11248006808B9012000E000205F
:1023300050B900BF502080F31188BFF34F8FBFF317
:102340006F8F00BF00BFFEE700F0EAF900212046D2
:10235000FFF718F800F05EFF05463DB94FF08050DA
:1023600004490860BFF34F8FBFF36F8F70BD00004B
:102370008000002004ED00E070B50546FFF7B0FED8
:1023800015B93048006800E028460446201DFFF7D4
:102390005DFE78B9E06A00EB80002B4951F820001F
:1023A00040B994F82C1001208840284909688143DD
:1023B00026480160A06A18B104F11800FFF746FE34
:1023C00023480068401C224908601E480068844277
:1023D00009D1211D1F48FFF777FE1F480068401CE8
:1023E0001D49086009E01D480068401E1B4908603F
:1023F0002046FFF719F9FFF7BBFBFFF79BFE1848D4
:102400000068E8B10F480068844219D11548006897
:1024100008B9012000E0002050B900BF502080F32F
:102420001188BFF34F8FBFF36F8F00BF00BFFEE770
:102430004FF080500C490860BFF34F8FBFF36F8F90
:1024400070BD000048000020C40100206000002092
:102450007400002064020020540000205800002076
:10246000640000208000002004ED00E003490968BA
:102470000160034909684160704700007000002056
:102480005C00002001200149086070476C000020BA
:1024900070B504460D4654B900BF502080F3118832
:1024A000BFF34F8FBFF36F8F00BF00BFFEE705483C
:1024B000016818312046FFF7EDFD01212846FEF79F
:1024C00061FF70BD4800002070B505460E461446F9
:1024D00055B900BF502080F31188BFF34F8FBFF371
:1024E0006F8F00BF00BFFEE706480168183128461D
:1024F000FFF7EAFD0CB14FF0FF3621463046FEF7FC
:1025000041FF70BD4800002070B505462C4655B906
:1025100000BF502080F31188BFF34F8FBFF36F8F40
:1025200000BF00BFFEE71848006884422BD054B3B8
:10253000FFF7D6FD2046FFF7BDFB10B3201DFFF7C8
:1025400085FD94F82C100120884010490968084343
:102550000E490860E16A01EB81010D4A02EB81003E
:10256000211DFFF7B1FD0849E06A0968C96A884280
:1025700007D34FF0805007490860BFF34F8FBFF378
:102580006F8FFFF7D7FD70BD48000020600000206E
:10259000C401002004ED00E01CB51D4800210B46DD
:1025A0008222CDE900101BA11C4800F099FC0446D2
:1025B000012C02D100F0B0FE0446012C15D100BF61
:1025C000502080F31188BFF34F8FBFF36F8F00BF90
:1025D0004FF0FF30124908600120124908600020C6
:1025E0001149086000F0EAF810E0601C08B1012011
:1025F00000E0002050B900BF502080F31188BFF3E5
:102600004F8FBFF36F8F00BF00BFFEE71CBD000000
:102610007C00002049444C4500000000E116000801
:1026200078000020640000205C00002070B50546A2
:10263000FFF756FD15B93248006800E02846044609
:10264000201DFFF703FD78B9E06A00EB80002D49FB
:1026500051F8200040B994F82C10012088402A49F4
:102660000968814328480160A06A18B104F1180084
:10267000FFF7ECFC211D2548FFF726FD94F85400D8
:10268000012802D1002084F85400FFF753FD2048B0
:10269000006828B1FFF724FDFFF76AFAFFF74AFD4B
:1026A00017480068844229D119480068D0B11948F8
:1026B000006808B9012000E0002050B900BF502098
:1026C00080F31188BFF34F8FBFF36F8F00BF00BF40
:1026D000FEE74FF0805010490860BFF34F8FBFF303
:1026E0006F8F0BE0094800680C490968884203D1E4
:1026F00000200349086001E000F01AF870BD0000F6
:1027000048000020C4010020600000207802002062
:10271000640000208000002004ED00E0580000204C
:1027200002480068401C0149086070478000002092
:102730001D48006818B101201C49086032E00020E3
:102740001A4908601A480068B0FA80F0C0F11F0109
:1027500001EB8100174A52F8200008B1012000E087
:10276000002050B900BF502080F31188BFF34F8F75
:10277000BFF36F8F00BF00BFFEE701EB81020D4B7F
:1027800003EB820042685268426000F1080243682D
:10279000934202D14268526842604268D268064B56
:1027A0001A6000BF70470000800000206C0000200D
:1027B00060000020C4010020480000201CB55248E1
:1027C00000685249884201D0012000E0002050B941
:1027D00000BF502080F31188BFF34F8FBFF36F8F7E
:1027E00000BF00BFFEE7484800684849491E8842CC
:1027F00001D0012000E0002050B900BF502080F33C
:102800001188BFF34F8FBFF36F8F00BF00BFFEE78C
:102810003F49084600780190FF200A46107008469C
:10282000007800909DF8000000F0F0009DF8002076
:10283000904201D1012000E0002050B900BF50209B
:1028400080F31188BFF34F8FBFF36F8F00BF00BFBE
:10285000FEE79DF8000000F050002E4A107007209F
:102860002D4A106009E02C480068401E2A4A10607A
:102870009DF800004006000E00909DF8000000F05A
:1028800080008028EFD024480068C0F107000428A9
:1028900001D1012000E0002050B900BF502080F39A
:1028A0001188BFF34F8FBFF36F8F00BF00BFFEE7EC
:1028B000194800680002184A10601046008800F4A9
:1028C000E0601060124A019810700F4820300068D4
:1028D00040F470000C49203108600846006840F060
:1028E00070400860FFF78EFC00200C490860FDF77F
:1028F000C3FC0B48006840F0404009490860FDF700
:10290000A7FC00201CBD000000ED00E071C20F41DB
:1029100000E400E0B4000020B8000020B000002077
:1029200034EF00E010B500BF502080F31188BFF3F2
:102930004F8FBFF36F8F00BF00F018FB18B14FF03F
:1029400080500449086000BF002080F3118800BF58
:1029500010BD000004ED00E02DE9F84305460E46E9
:1029600090460DB1012000E0002050B900BF50207A
:1029700080F31188BFF34F8FBFF36F8F00BF00BF8D
:10298000FEE70EB9002701E005FB06F707F150004E
:10299000FFF708FA04464CB1A14609F15009434635
:1029A0004A46314628460094FEF7AEFE2046BDE872
:1029B000F883000070B505460E462C4654B900BF9A
:1029C000502080F31188BFF34F8FBFF36F8F00BF8C
:1029D00000BFFEE7FFF784FBD4E90F12206801FB7C
:1029E0000200A0600020A06320686060E06B401ED1
:1029F000226C216800FB0211E160FF2084F8440092
:102A000084F845009EB9206908B9012000E0002043
:102A1000A8B904F1100000F0B1FB80B14FF0805074
:102A200009490860BFF34F8FBFF36F8F07E004F1D0
:102A30001000FFF71FFB04F12400FFF71BFBFFF75B
:102A400079FB012070BD000004ED00E02DE9FF439B
:102A500083B0064688461D464FF00009344654B9F7
:102A600000BF502080F31188BFF34F8FBFF36F8FEB
:102A700000BF00BFFEE7B8F1000F01D1206C08B91C
:102A8000012000E0002050B900BF502080F31188E1
:102A9000BFF34F8FBFF36F8F00BF00BFFEE7022D64
:102AA00002D1E06B012801D1012000E0002050B9E3
:102AB00000BF502080F31188BFF34F8FBFF36F8F9B
:102AC00000BF00BFFEE700F03BFA08B9059808B95F
:102AD000012000E0002050B900BF502080F3118891
:102AE000BFF34F8FBFF36F8F00BF00BFFEE700BF84
:102AF000FFF7F6FAA06BE16B884201D3022D28D1D3
:102B00002A4641462046FEF750FD0746606A08B94E
:102B1000012000E0002068B904F1240000F02EFB41
:102B200088B14FF0805032490860BFF34F8FBFF338
:102B30006F8F08E03FB14FF080502D490860BFF320
:102B40004F8FBFF36F8FFFF7F5FA012007B0BDE895
:102B5000F083059818B9FFF7EDFA0020F6E7B9F110
:102B6000000F04D101A8FFF781FC4FF00109FFF726
:102B7000E1FAFFF7D5FDFFF7B3FA94F94400401CE2
:102B800010B9002084F8440094F94500401C10B9A5
:102B9000002084F84500FFF7CDFA05A901A800F050
:102BA00059F9F0B92046FEF7C4FEA0B104F11000B7
:102BB0000599FFF76DFC2046FFF7B5F800F02AFBFA
:102BC000002895D14FF0805009490860BFF34F8F1E
:102BD000BFF36F8F8CE72046FFF7A5F800F01AFBD4
:102BE00086E72046FFF79FF800F014FB0020ADE7D2
:102BF00004ED00E02DE9F05F07468A4690461E4648
:102C00003C4654B900BF502080F31188BFF34F8F6A
:102C1000BFF36F8F00BF00BFFEE7BAF1000F01D115
:102C2000206C08B9012000E0002050B900BF5020FE
:102C300080F31188BFF34F8FBFF36F8F00BF00BFCA
:102C4000FEE7022E02D1E06B012801D1012000E055
:102C5000002050B900BF502080F31188BFF34F8F80
:102C6000BFF36F8F00BF00BFFEE7FFF7DFFA00BFC3
:102C70005021EFF3118081F31188BFF34F8FBFF321
:102C80006F8F00BF0546A06BE16B884201D3022E17
:102C900023D194F945B0324651462046FEF785FCD3
:102CA0000BF1010088B9606A08B9012000E000203A
:102CB00080B904F1240000F061FA58B1B8F1000FB6
:102CC00008D00120C8F8000004E00BF1010040B278
:102CD00084F845004FF0010901E04FF0000900BF02
:102CE00085F3118800BF4846BDE8F09F2DE9F74104
:102CF00083B005460E464FF000082C4654B900BF7D
:102D0000502080F31188BFF34F8FBFF36F8F00BF48
:102D100000BFFEE70EB9206C08B9012000E00020DA
:102D200050B900BF502080F31188BFF34F8FBFF31D
:102D30006F8F00BF00BFFEE700F002F908B90598E9
:102D400008B9012000E0002050B900BF502080F3F6
:102D50001188BFF34F8FBFF36F8F00BF00BFFEE737
:102D600000BFFFF7BDF9A76BF7B131462046FEF76C
:102D700007FC781EA063206908B9012000E000204C
:102D800060B904F1100000F0F9F938B14FF080504B
:102D90002F490860BFF34F8FBFF36F8FFFF7CAF95A
:102DA000012006B0BDE8F081059818B9FFF7C2F917
:102DB0000020F6E7B8F1000F04D101A8FFF756FB99
:102DC0004FF00108FFF7B6F9FFF7AAFCFFF788F903
:102DD00094F94400401C10B9002084F8440094F990
:102DE0004500401C10B9002084F84500FFF7A2F907
:102DF00005A901A800F02EF8F0B92046FEF78CFDD9
:102E0000A0B104F124000599FFF742FB2046FEF72C
:102E10008AFF00F0FFF90028A3D14FF080500C4941
:102E20000860BFF34F8FBFF36F8F9AE72046FEF71E
:102E30007AFF00F0EFF994E72046FEF774FF00F008
:102E4000E9F92046FEF768FD00288AD00020A8E7AF
:102E500004ED00E070B505460C4655B900BF5020A2
:102E600080F31188BFF34F8FBFF36F8F00BF00BF98
:102E7000FEE754B900BF502080F31188BFF34F8F95
:102E8000BFF36F8F00BF00BFFEE7FFF729F91248BD
:102E900002686868131A2068401C08B9002617E009
:102EA0000E4928680968884204D06868904201D8B1
:102EB00001260DE02068984207D92068C01A2060DA
:102EC0002846FFF7D3FA002602E000202060012602
:102ED000FFF730F9304670BD5C0000207000002024
:102EE0002DE9FF4F85B0804689461746DDE912ABD4
:102EF000B800FEF757FF064656B15820FEF752FFBE
:102F000004460CB1266304E03046FFF731F900E0D7
:102F100000247CB10020CDE900ABCDE902403A4667
:102F200049464046089BFEF704FC2046FEF776FA29
:102F3000012501E04FF0FF35284609B0BDE8F08FCC
:102F40000549096809B9012005E00449096809B97A
:102F5000022000E000207047640000208000002074
:102F600001490868704700005C0000202DE9F0412D
:102F70004FF0000844480068002877D143480068B3
:102F8000451C4248056015BB41480068006808B907
:102F9000012000E0002050B900BF502080F31188CC
:102FA000BFF34F8FBFF36F8F00BF00BFFEE73848FE
:102FB0000768384800683649086036480760364870
:102FC0000068401C34490860FEF7D2FD00BF33485A
:102FD000006885423CD300BF2D480068006808B9EE
:102FE000012000E0002020B14FF0FF302B490860A5
:102FF0002DE027480068C068C4686668B54202D200
:103000002648066023E0201DFFF720F8A06A18B1CB
:1030100004F11800FFF71AF894F82C1001208840EA
:103020001F49096808431E490860E16A01EB8101F4
:103030001C4A02EB8100211DFFF746F81A49E06A9D
:103040000968C96A8842C7D34FF00108C4E700BFC6
:1030500015480068C06A00EB8000124951F8200052
:10306000012801D94FF0010805E0FFE70F4800688B
:10307000401C0E4908600E48006808B14FF0010876
:103080004046BDE8F0810000800000205C00002088
:103090004C0000205000002070000020780000202C
:1030A00060000020C40100204800002068000020CB
:1030B0006C00002070B505462C460026002D55D02A
:1030C0002B480068844201D1012000E0002050B963
:1030D00000BF502080F31188BFF34F8FBFF36F8F75
:1030E00000BF00BFFEE7E06C50B900BF502080F386
:1030F0001188BFF34F8FBFF36F8F00BF00BFFEE794
:10310000E06C401EE064A16CE06A88422ED0E06C66
:1031100060BB201DFEF79AFF78B9E06A00EB8000E3
:10312000144951F8200040B994F82C10012088402F
:1031300011490968814310480160A06CE062E06AAF
:10314000C0F10500A06194F82C10012088400A49C4
:103150000968084308490860E16A01EB8101054AF2
:1031600002EB8100211DFEF7AFFF0126304670BD46
:1031700048000020C40100206000002070B5064611
:10318000F068C46854B900BF502080F31188BFF3C1
:103190004F8FBFF36F8F00BF00BFFEE704F1180031
:1031A000FEF754FF15480068A8B9201DFEF74EFF32
:1031B00094F82C10012088401149096808431049EF
:1031C0000860E16A01EB81010E4A02EB8100211DDA
:1031D000FEF77AFF04E004F118010B48FEF774FFD4
:1031E0000A49E06A0968C96A884204D901250120B0
:1031F0000749086000E00025284670BD80000020D7
:1032000060000020C401002050020020480000207F
:103210006C00002070B5002400263648006850B9C4
:1032200000BF502080F31188BFF34F8FBFF36F8F23
:1032300000BF00BFFEE7FEF753FF2E480068401EA8
:103240002C4908600846006800284FD12A480068C9
:1032500000284BD024E02948C068C46804F1180055
:10326000FEF7F4FE201DFEF7F1FE94F82C1001206D
:10327000884023490968084321490860E16A01EB55
:103280008101204A02EB8100211DFEF71DFF1E492E
:10329000E06A0968C96A884202D301201B490860B4
:1032A0001648006808B9012000E000200028D2D0AC
:1032B0000CB1FEF75DFC1648056865B100BFFFF76D
:1032C00055FE10B10120114908606D1E002DF6D188
:1032D00000200F4908600D48006838B1012630070A
:1032E0000C490860BFF34F8FBFF36F8FFEF722FFCB
:1032F000304670BD800000205800002050020020A1
:1033000060000020C4010020480000206C00002064
:103310006800002004ED00E01CB50024FEF7DAF898
:103320000E48006858B10E48022100234FF4827203
:10333000CDE900100BA10D48FFF7D2FD044654B9AA
:1033400000BF502080F31188BFF34F8FBFF36F8F02
:1033500000BF00BFFEE720461CBD00008C0000201F
:1033600090000020546D7220537663000D1D0008FC
:103370002DE9FE4304460D4616461F46DDF828801B
:103380004FF0000954B900BF502080F31188BFF3FB
:103390004F8FBFF36F8F00BF00BFFEE71448006878
:1033A00010B3009501960294062D15DAFFF7C8FDBB
:1033B000022808D10023424669460D480068FFF7FD
:1033C00045FB814610E000231A466946084800681C
:1033D000FFF73CFB814607E000233A466946044874
:1033E0000068FFF707FC81464846BDE8FE83000001
:1033F0008C0000204FF04070E1EE100A7047000092
:103400002034000800000020BC000000C4010008B7
:10341000DC340008BC0000205C340100E00100083E
:10342000000000000102030401020304060708096A
:10343000000000000000000000000000000000008C
:10344000007A030A000000000000000001020304EB
:10345000060708090000000000000000000001004D
:10346000000000000000000000000000000000005C
:10347000000000000000000000000000000000004C
:10348000000000000000000000000000000000003C
:10349000000000000000000000000000000000002C
:1034A000000000000000000000000000000000001C
:1034B000000000000000000000000000000000000C
:1034C00000000000000000000000000000000000FC
:0C34D000AAAAAAAA000000000000000048
:040000050800018965
:00000001FF
