:020000040800F2
:1000000020350120ED020008FD090008490800081C
:10001000F909000809060008A11100080000000005
:100020000000000000000000000000002D02000899
:100030000D0600080000000089020008C90C000835
:100040000703000807030008070300080703000868
:10005000070300080703000811060008070300084B
:100060004D060008A9060008E50600080703000879
:100070000703000807030008070300080703000838
:100080000703000807030008070300080703000828
:100090000703000807030008070300080703000818
:1000A0000703000807030008070300080703000808
:1000B00007030008410D00080703000807030008B4
:1000C00007030008070300080703000807030008E8
:1000D000070300089D0E0008070300080703000837
:1000E00007030008070300080703000807030008C8
:1000F00007030008070300080703000807030008B8
:100100000703000807030008710D00080703000833
:100110000703000807030008070300080703000897
:100120000703000807030008070300080703000887
:100130000703000807030008070300080703000877
:100140000703000807030008070300080703000867
:100150000703000807030008070300080703000857
:100160000703000807030008070300080703000847
:100170000703000807030008070300080703000837
:10018000070300080703000800F002F800F03EF83B
:100190000AA090E8000C82448344AAF10107DA45E2
:1001A00001D100F033F8AFF2090EBAE80F0013F0F6
:1001B000010F18BFFB1A43F0010318476C30000011
:1001C0008C300000103A24BF78C878C1FAD85207A2
:1001D00024BF30C830C144BF04680C6070470000C1
:1001E0000023002400250026103A28BF78C1FBD840
:1001F000520728BF30C148BF0B60704700207047CE
:100200001FB503F00BF81FBD10B510BD00F0CAF903
:100210001146FFF7F5FF01F077F800F0E8F903B4B5
:10022000FFF7F2FF03BC00F0BDFF00002C4B196884
:100230000868B0E8F04F80F30988BFF36F8F4FF084
:10024000000080F311887047000000000848006833
:10025000006880F308884FF0000080F3148862B6CD
:1002600061B6BFF34F8FBFF36F8F00DF00BF00BFDA
:1002700008ED00E0DFF80C00016841F47001016056
:10028000704700BF88ED00E0EFF30980BFF36F8F88
:10029000134B1A681EF0100F08BF20ED108A20E9DA
:1002A000F04F106009B44FF0500080F31188BFF395
:1002B0004F8FBFF36F8F02F04FF94FF0000080F3C4
:1002C000118809BC19680868B0E8F04F1EF0100FDB
:1002D00008BFB0EC108A80F30988BFF36F8F7047B6
:1002E00050000020EFF30580704700000948804768
:1002F00009480047FEE7FEE7FEE7FEE7FEE7FEE708
:10030000FEE7FEE7FEE7FEE704480549054A064B1F
:1003100070470000D90C000889010008202F012037
:1003200020350120203101202031012070470000BC
:100330000FB4044910B503AA029800F0D3F810BC1A
:100340005DF814FB400000202DE9F0410E46044604
:10035000002020622046E168884730B3252805D078
:10036000D4E901219047206A401CF2E7E168204669
:1003700000278847050018D0A5F14100192802D8A8
:1003800020354FF400673246294620462760FFF7A4
:1003900035FF40B1012804D0F61D26F007060836C7
:1003A000D8E7361DD6E72846DAE7206ABDE8F081AF
:1003B000032A40F2308010F0030C00F0158011F891
:1003C000013BBCF1020F624498BF11F801CB00F869
:1003D000013B38BF11F8013BA2F1040298BF00F8BD
:1003E00001CB38BF00F8013B11F0030300F08C8013
:1003F000083AC0F0088051F8043B083A51F804CBA1
:10040000A0E80810F5E7121D5CBF51F8043B40F866
:10041000043BAFF30080D20724BF11F8013B11F871
:1004200001CB48BF11F8012B24BF00F8013B00F8B5
:1004300001CB48BF00F8012B704702F0FF0343EAED
:10044000032242EA024200F002B84FF000020429FF
:10045000C0F0128010F0030C00F01B80CCF1040CF3
:10046000BCF1020F18BF00F8012BA8BF20F8022B27
:10047000A1EB0C0100F00DB85FEAC17C24BF00F8CD
:10048000012B00F8012B48BF00F8012B70474FF0FB
:10049000000200B5134694469646203922BFA0E8D4
:1004A0000C50A0E80C50B1F12001BFF4F7AF0907E0
:1004B00028BFA0E80C5048BF0CC05DF804EB8900D1
:1004C00028BF40F8042B08BF704748BF20F8022B14
:1004D00011F0804F18BF00F8012B7047704770472C
:1004E00070477047074B70B50D467B4400F043F8EA
:1004F0000446284600F052F810B14FF0FF3070BDAE
:10050000204670BDFF0D000010B5203AC0F00B80F2
:10051000B1E81850203AA0E81850B1E81850A0E807
:100520001850BFF4F5AF5FEA027C24BFB1E8185061
:10053000A0E8185044BF18C918C0BDE810405FEAD1
:10054000827C24BF51F8043B40F8043B08BF70474D
:10055000D20728BF31F8023B48BF11F8012B28BF52
:1005600020F8023B48BF00F8012B704701694A1C84
:1005700002610878704700B58FB0CDE901310021E4
:10058000059105497944CDE9031011466846FFF706
:10059000DBFE0FB000BD0000E5FFFFFF007B00F0B9
:1005A00080007047754600F02BF8AE46050069469E
:1005B000534620F00700854618B020B5FFF7A4FE8B
:1005C000BDE820404FF000064FF000074FF0000854
:1005D0004FF0000B21F00701AC46ACE8C009ACE8D5
:1005E000C009ACE8C009ACE8C0098D46704710B539
:1005F0000446AFF300802046BDE81040FFF70FBE71
:1006000000487047BC2E012000BFFEE77047000085
:1006100010B5012000F096F880B10A2000F016FE17
:100620000121084800F005F9012807D106480068B3
:1006300008B9012000E0002003490860012000F013
:100640007BF810BD00000240A082424210B5042099
:1006500000F078F890B10BA0FFF76AFE0A2000F0D6
:1006600039FE04210E4800F0E4F838B90D4800685E
:1006700008B9012000E000200A490860042000F0C9
:100680005BF810BDCDE2B2BFD6D0B6CF32CAE4B36C
:10069000F6A1A3A1A3A1A3A1A3A1A30D0A000000F9
:1006A00000100240A882424210B5082000F04AF82B
:1006B00078B10A2000F0CAFD0821084800F0B9F816
:1006C00038B90748006808B9012000E00020044953
:1006D0000860082000F030F810BD00000010024053
:1006E000A482424210B5102000F02CF8C8B10A20B4
:1006F00000F0ACFD10210D4800F09BF888B90C48C3
:10070000006808B9012000E0002009490860094894
:10071000D0F8A80208B9012000E000200449091D12
:100720000860102000F008F810BD00000010024022
:10073000A4824242008042420149086070470000A2
:10074000143C014001460020034A12680A400AB1E5
:10075000012000E000207047143C0140F0B50A463B
:1007600000210023002400BF3DE0012505FA01F32C
:10077000156805EA03049C4234D105684F0003263E
:10078000BE40B543056015794E00B5400668354357
:1007900005601579012D02D01579022D16D18568D5
:1007A0004F000326BE40B543856055794E00B540E5
:1007B000866835438560456801268E40B5434560AF
:1007C000456896798E40B6B235434560C5684F009E
:1007D0000326BE40B543C560D5794E00B540C66816
:1007E0003543C560491C1029BFD3F0BDF0B50023C7
:1007F00000244D07ED0E02FA05F3CE1000F120059E
:1008000055F826504E07F70E0F26BE40B543CF10C1
:1008100000F1200646F82750CE1000F1200555F8CB
:10082000265045EA0304CE1000F1200545F8264085
:10083000F0BD0246002013690B400BB1012000E01F
:10084000002070470183704700BFFEE71CB50121FF
:10085000112000F01BF91C20009000208DF80400EE
:1008600003208DF8050001208DF807006946064831
:10087000FFF774FF0120009002208DF80700694601
:100880000248FFF76BFF1CBD001002400000024051
:1008900010B5044614B101202C4908702B4800788B
:1008A000002837D010212A48FFF7C3FF78B108216C
:1008B0002748FFF7BEFF50B104212548FFF7B9FFD5
:1008C00028B101212348FFF7B4FF012822D10A20D3
:1008D00000F0BCFC00201D49087010211C48FFF7E7
:1008E000A8FF08B9012010BD08211948FFF7A1FF92
:1008F00008B90220F7E704211548FFF79AFF08B965
:100900000320F0E701211348FFF793FF01281BD1D3
:100910000420E8E710210E48FFF78BFF012813D1D0
:1009200008210B48FFF785FF01280DD10421084855
:10093000FFF77FFF012807D101210648FFF779FF64
:1009400010B90120014908700020CCE746000020C2
:10095000001002400000024008B518E00120FFF737
:1009600097FF00900A48006870B19DF8000058B1E8
:1009700000230A2269460648006801F07BFF04460E
:1009800014B904A0FFF7D4FC142001F09DFCE5E7A6
:1009900020000020B6D3C1D04B65795F51756575D5
:1009A00065D2D1C2FAA3ACCAFDBEDDB7A2CBCDCA17
:1009B000A7B0DC210D0A00001CB50121202000F0A9
:1009C00065F84FF4C060009001208DF8040000200D
:1009D0008DF8060003208DF8050001208DF8070032
:1009E00069460448FFF7BAFE4FF4C0610148FFF7BB
:1009F00029FF1CBD0014024000BFFEE77047000045
:100A000070B5002100230F22C4781CB3174C246852
:100A100004F4E064C4F5E064C4F30721C1F1040404
:100A2000E3B20A4144789C40E1B284781440214307
:100A30000C07210E0E4C05786155047804F01F0553
:100A40000124AC4005786D11AD0005F1E025C5F835
:100A5000004109E0047804F01F050124AC40054D75
:100A60000678761145F8264070BD00000CED00E0D8
:100A700000E400E080E100E002490143024A116025
:100A8000704700000000FA050CED00E029B1064AAD
:100A900012680243044B1A6004E0034A126882435E
:100AA000014B1A60704700003038024029B1064AF5
:100AB00012680243044B1A6004E0034A126882433E
:100AC000014B1A607047000044380240F0B5002125
:100AD00000220024022500260223324F3F6807F03F
:100AE0000C0121B1042905D0082937D105E02E4F8A
:100AF000076036E02D4F076033E02A4F3F1F3F6805
:100B0000C7F38056274F3F1F3F6807F03F036EB182
:100B1000264FB7FBF3F7DFF88CC0ACF1040CDCF820
:100B200000C0CCF3881C07FB0CF40CE01E4FB7FB95
:100B3000F3F7DFF870C0ACF1040CDCF800C0CCF3C4
:100B4000881C07FB0CF4174F3F1F3F68C7F3014792
:100B50007F1C7D00B4FBF5F7076002E0124F0760D1
:100B600000BF00BF0F4F3F6807F0F0010909104FA9
:100B70007A5C0768D74047600A4F3F6807F4E05146
:100B8000890A0B4F7A5C4768D7408760054F3F68FA
:100B900007F46041490B064F7A5C4768D740C7604D
:100BA000F0BD0000083802400024F40000127A0072
:100BB000000000200CB5002001900090344800682F
:100BC00040F480303249086000BF3148006800F4CA
:100BD000003000900198401C0190009818B90198CD
:100BE000B0F5A04FF1D12A48006800F4003010B1F0
:100BF0000120009001E0002000900098012846D1DB
:100C000023484030006840F080502149403108605E
:100C10002048006840F440401E4908601C480830E5
:100C200000681B49083108600846006840F400402D
:100C300008600846006840F4A05008601648091F84
:100C40000860081F006840F08070091F086000BF3E
:100C50000F48006800F000700028F9D040F20570DD
:100C60000E4908600A480830006820F0030008496F
:100C7000083108600846006840F00200086000BFC4
:100C800003480830006800F00C000828F8D10CBDBB
:100C9000003802400070004008544007003C024009
:100CA000042808D14FF0E021096941F004014FF018
:100CB000E022116107E04FF0E021096921F0040111
:100CC0004FF0E0221161704710B502F04DF8012895
:100CD00001D001F03BFD10BD10B51548006840F48F
:100CE0007000134908601348006840F00100114982
:100CF000086000200F49083108600E4800680E495E
:100D000008400C4908600D48091D0860081F00686C
:100D100020F48020091F0860002006490C3108607B
:100D2000FFF748FF4FF0006001498039086010BDAF
:100D300088ED00E000380240FFFFF6FE103000248E
:100D400010B50121084800F08DF8012807D10748A7
:100D5000006808B9012000E0002004490860012172
:100D6000014800F06DF810BD00040040A882424226
:100D700010B53048007800F08000002854D10121DF
:100D80002D4800F06FF8D0B12A48007800F04000FC
:100D9000A8B12848007800F03F003F280AD1254834
:100DA000007840F08000234908704FF0FF3023495D
:100DB000086004E01F480078401C1E4908700221AA
:100DC0001D4800F04FF878B31A48007800F0400052
:100DD00078B11848007840F080001649087016482D
:100DE00000F03DF8154908600021134800F04BF869
:100DF0001AE000200F490870104908600D4800787B
:100E000040F040000B49087000210B4800F01BF82F
:100E10000021094800F040F80221074800F033F8AB
:100E20000121054800F00FF80321034800F008F8FD
:100E300010BD000048000020000C00404C000020C5
:100E4000CA430282704721B1028842F00102028047
:100E500004E002884FF6FE731A4002807047014694
:100E6000486B704730B50246002000230024158AE5
:100E700005EA0103958905EA010413B10CB10120CB
:100E800000E0002030BD0A460021018C4FF6FD73C2
:100E900019401143018470474162704738B540F2F0
:100EA00025512B4800F077F810B3294800F02CF9B1
:100EB000C4B22848008800F40040C8B9254800881A
:100EC00000F4804060B10A2C03D000202149088042
:100ED00020E02048008840F400401E49088019E0C6
:100EE0000D2C06D11B48008840F480401949088029
:100EF00010E018480088C0F30D0017490C5415483D
:100F00000088401C1349088008460088C72801DD76
:100F1000002008800F48008800F40040B8B10F4856
:100F20000068A0B100236A460B490C48006801F034
:100F300075FDC8210848FFF788FA009838B14FF0CE
:100F4000805007490860BFF34F8FBFF36F8F38BDE4
:100F50000010014044000020C400002024000020B4
:100F600004ED00E021B1828942F40052828104E064
:100F700082894DF6FF731A40828170470246002035
:100F8000B1F5007F00D100BF13880B400BB10120E9
:100F900000E00020704770B50246002400230025C1
:100FA000002040F66A16B14200D100BFC1F34215DD
:100FB00001F01F03012606FA03F3012D02D19689E1
:100FC000334006E0022D02D1168A334001E0968AB2
:100FD00033400C12012606FA04F41688344013B18B
:100FE0000CB1012000E0002070BDF0B503460024E4
:100FF00000260025002040F66A17B94200D100BF44
:101000001846C1F3421401F01F06012707FA06F53E
:10101000012C01D10C3004E0022C01D1103000E091
:1010200014301AB107682F43076002E00768AF4326
:101030000760F0BD2DE9FF4705460E460024A14696
:1010400000BFA046B08900B100BF2C8A24F44054F0
:10105000F08804432C82AC8941F20C608443B08850
:1010600031890843718908430443AC81AC8A24F474
:101070004074B0890443AC826846FFF727FD2048DE
:10108000854202D01F48854202D1DDF80C9001E074
:10109000DDF80890A88900F4004040B109EBC900D0
:1010A00000EB091031684900B0FBF1F707E009EBEC
:1010B000C90000EB091031688900B0FBF1F764202A
:1010C000B7FBF0F004012009642101FB1078A88926
:1010D00000F4004040B1322000EBC800B0FBF1F05A
:1010E00000F00700044308E0322000EB0810642100
:1010F000B0FBF1F000F00F0004432C81BDE8FF8746
:10110000001001400014014001468888C0F3080027
:101110007047C1F30802828070470000B2B02DE032
:101120001748006838B34FF0FF326946144800682A
:1011300001F0F0FCF8B11348008800F40040D0B191
:1011400000201049088010A0FFF7F2F800240DE0FD
:101150001DF804101148FFF7DCFF00BF40210F48C5
:10116000FFF70CFF0128F9D1601CC4B2C82CEFDBDB
:1011700009A0FFF7DDF8142000F0ACF8D0E700007C
:101180002400002044000020C4E3B7A2CBCDB5C4A6
:10119000D0C5CFA2CEAAA3BA0D0A0000001001400C
:1011A00000BFFEE700BF704708B528E0144800689C
:1011B00010B34FF0FF3269461148006801F0AAFCF5
:1011C000D0B19DF8000003280AD0042813D10D489F
:1011D000006808B9012000E000200A4908600AE020
:1011E0000848001D006808B9012000E000200549FA
:1011F000091D086000BF00BF0A2001F065F8D5E7AF
:1012000020000020A482424270B504460420FFF76B
:1012100047FD0C48047025464FF47A704543012081
:10122000094908804FF0E020006940F002004FF0CB
:10123000E021086108464561006940F0010008614D
:1012400070BD00003C0000203E00002070B5044648
:1012500001F08AFD012810D00B480088844206D393
:1012600009480088B4FBF0F5284601F02DF806483F
:101270000088B4FBF0F100FB11444FF47A7104FBD9
:1012800001F000F003F870BD3E00002070B5034689
:1012900000224FF0E02675690D4E367803FB06F408
:1012A0004FF0E026B16910E04FF0E026B0698842C7
:1012B0000BD0884202D20E1A324402E02E1A0E449B
:1012C00032440146A24200D300E0EDE700BF70BD0A
:1012D0003C00002030B50446002504E04FF47A704D
:1012E000FFF7D4FF6D1CA542F8D330BD00BF054AFF
:1012F000128802F04002002AF9D0C2B2014B9A8053
:1013000070470000001001401CB54FF44070FFF71B
:10131000B3FBA820FFF778FF4FF4E13000F014FE94
:10132000FFF74AFBFFF792FA0648012100230A0261
:10133000CDE9001004A1074801F0E6FC01F0BAF87D
:1013400000201CBD1000002073746172745F746112
:10135000736B0000891E00082DE9F04105460E461A
:101360001C4807681C480068001D00F045FE50B985
:101370001948006890F82C10012088401749096826
:10138000814316480160681C38B936B112480168BB
:10139000091D134800F06EFE1AE07C190E48006823
:1013A0004460BC4207D20C480168091D0D48006822
:1013B00000F046FE0CE008480168091D0A48006874
:1013C00000F03EFE09480068844201D207480460EC
:1013D000BDE8F0816400002050000020680000207B
:1013E00080020020580000205400002080000020CF
:1013F00010B5044600F04AFE24480068401C23490A
:1014000008602348006840B9214804600846006825
:1014100001280DD100F0D6F90AE01E48006838B95D
:101420001B480068C06AE16A884201D81848046015
:1014300019480068401C1849086008460068206484
:1014400094F82C1001208840144909680843134976
:101450000860E16A01EB8101114A02EB8100211D64
:1014600000F008FE00F03CFE0A48006868B1084839
:101470000068C06AE16A884207D24FF0805009498B
:101480000860BFF34F8FBFF36F8F10BD6000002067
:10149000500000206C0000207C000020680000202C
:1014A000CC01002004ED00E010B500F0EFFD104885
:1014B0000068D0B90F4800F0B3FD0F4800F0B0FD50
:1014C0000C480E4908600C480D49086000220C21A8
:1014D0000A2001F055F9064908600846006820B165
:1014E00008A10348006800F0B3FE00F0F9FD10BD4C
:1014F0009400002094020020A80200208C0000200C
:1015000090000020546D72510000000010B516E0EC
:1015100000F0BCFD0C48C068C468201D00F06CFDE4
:101520000A480068401E0949086009480068401ED2
:101530000749086000F0D4FD204600F05FF8044839
:1015400000680028E4D110BD6C020020600000207B
:101550005C00002070B504460D46206C70B1216C13
:10156000E0680144E160D4E90210884201D32168B7
:10157000E1602846226CE168FEF71AFF70BD2DE994
:10158000F04104460F4615464FF00008A66B206C4C
:1015900048B9206800282CD1A06801F09FFC804643
:1015A0000020A06025E07DB93946226C6068FEF716
:1015B000FFFE216C606808446060D4E90101884244
:1015C00017D32068606014E03946226CE068FEF7AB
:1015D000EFFE216CE068411AE1602168E068884212
:1015E00003D2216CA068411AE160022D01D106B13D
:1015F000761E701CA0634046BDE8F08110B504461D
:10160000206B00F08BFD204600F088FD10BD00002F
:101610000146084A126812680AB9012200E0002255
:101620000A600A6822B9034A1268D268106800E0AA
:10163000002070478C00002030B54FF496331748D7
:1016400000F007042CB1C01D20F00700134C041B50
:101650001B1B0246124C22600024114D6C60D018F6
:10166000083820F007000F4C206000240D4D2D6835
:101670006C600C4D2D682C601146441A4C60094C6E
:1016800024680C60084D4C682C60084D4C682C6038
:101690004FF00044064D2C6030BD0000BC0200201D
:1016A000A0000020A8000020B0000020AC00002016
:1016B000B400002000BFFFF729FF0648006801289A
:1016C000F9D94FF0805004490860BFF34F8FBFF342
:1016D0006F8FF0E7CC01002004ED00E02DE9F04130
:1016E00006460D4617469846069C0DB9246000E054
:1016F0002760E66325640121204601F06FF884F835
:101700004C80BDE8F0812DE9F05F82460E469046A0
:101710009B460A9F0C9C4FEA8801A522206BFEF78E
:101720008CFEA8F10100216B01EB800929F007096B
:1017300009F0070008B9012000E0002050B900BFFF
:10174000502080F31188BFF34F8FBFF36F8F00BF1E
:1017500000BFFEE786B1002507E0715D04F13400AB
:101760004155705D00B902E06D1C0A2DF5D300BF34
:1017700000213D20015502E0002084F83400052FAF
:1017800000D30427E762A7640020E064201D00F076
:1017900054FC04F1180000F050FC2461C7F105006E
:1017A000A06164620020206584F854005A465146C6
:1017B000484600F053FB20600B9808B10B9804607A
:1017C000BDE8F09F10B5002407E004EB84010F4A48
:1017D00002EB810000F024FC641C052CF5D30C48BE
:1017E00000F01EFC0B4800F01BFC0B4800F018FC3E
:1017F0000A4800F015FC0A4800F012FC04480949A8
:10180000086004480849086010BD0000CC010020B1
:101810003002002044020020580200206C02002008
:1018200080020020540000205800002010B501461E
:10183000164800E0006803688B42FBD30246436809
:1018400013448B4204D143684C68234443600146EF
:101850000A464B6813440468A34211D10C4C036838
:101860002468A34208D04B680468646823444B6032
:1018700003681B680B6005E0054B1B680B6001E00B
:1018800003680B60884200D0016010BDA0000020FA
:10189000A80000202DE9F04104460D4616461F46DB
:1018A0004FF0000865602461B5420CD8F01BA169B7
:1018B000884202D34FF0010811E0211D0948006859
:1018C00000F0BEFB0BE0BE4204D2BD4202D34FF09B
:1018D000010804E0211D0448006800F0B1FB404607
:1018E000BDE8F081900000208C00002070B5054616
:1018F00000F0CCFBA86B08B9012400E0002400F044
:10190000EFFB204670BD70B5054600F0BFFBA86B2D
:10191000E96B884201D1012400E0002400F0E0FBE3
:10192000204670BDF8B505460F461A480068C068E5
:10193000C468201D00F060FB94F8280000F004004B
:10194000E8B1A06941192B463A462046FFF7A2FFAD
:10195000D8B1002003462A4601460090204601F0F7
:101960001BFC064656B900BF502080F31188BFF318
:101970004F8FBFF36F8F00BF00BFFEE705E094F805
:10198000280020F0010084F828002046216A8847BA
:10199000F8BD00008C00002070B586B08BE0039885
:1019A0000028FBDB059C606908B9012000E00020ED
:1019B00010B9201D00F020FB02A800F0DDF805465C
:1019C00003980A2875D2DFE800F00905073941635A
:1019D00006083A4200BF00BF00BF00BF94F82800CD
:1019E00040F0010084F828000498A2698118034699
:1019F0002A462046FFF74EFFF8B12046216A884765
:101A000094F8280000F00400B8B100200090049879
:101A1000A169421800231946204601F0BDFB064685
:101A200056B900BF502080F31188BFF34F8FBFF32A
:101A30006F8F00BF00BFFEE700BF3BE000BF94F820
:101A4000280020F0010084F8280033E000BF94F85B
:101A5000280040F0010084F828000498A061A069E3
:101A600008B1012000E0002050B900BF502080F3F1
:101A70001188BFF34F8FBFF36F8F00BF00BFFEE72A
:101A8000A06941192B462A462046FFF703FF11E0C3
:101A900094F8280000F0020018B9204600F03EFB40
:101AA00005E094F8280020F0010084F8280001E007
:101AB000FFE700BF00BF002203A90448006801F04F
:101AC00029F800287FF46BAF06B070BD94000020A9
:101AD000F8B505460C4600F037FD684600F04CF8B6
:101AE0000646009820BB44B9B54206D801F0A6FAD4
:101AF00031462846FFF716FF1CE03CB10E4800684F
:101B0000006808B9012000E000200446A91B224615
:101B10000A48006800F0B2FB01F090FA50B94FF0AB
:101B2000805007490860BFF34F8FBFF36F8F01E00C
:101B300001F084FAF8BD000090000020940000201D
:101B400004ED00E00A490968096809B9012100E0CB
:101B5000002121B14FF0FF31064A116006E004492F
:101B60000968C968C868034A416811607047000085
:101B7000540000208000002070B5044601F004F9F4
:101B8000054607480068854204D200F00BF80120A2
:101B9000206001E00020206001480560284670BDFB
:101BA0009C0000202DE9F84334E025480068C06817
:101BB000056823480068C068C468201D00F01CFA4E
:101BC0002046216A884794F8280000F0040008B3F2
:101BD000A0694619AE4207D966602461211D1848E4
:101BE000006800F02DFA15E0002003462A46014661
:101BF0000090204601F0D0FA074657B900BF5020A8
:101C000080F31188BFF34F8FBFF36F8F00BF00BF0A
:101C1000FEE700BF0A480068006808B9012000E03C
:101C200000200028C1D00648D0F800800548006890
:101C3000034908600348C0F80080BDE8F88300004D
:101C40008C000020900000200E480068401C08B95D
:101C5000012000E0002050B900BF502080F311881F
:101C6000BFF34F8FBFF36F8F00BF00BFFEE700BF12
:101C7000502080F31188BFF34F8FBFF36F8F00BFE9
:101C800000BFFEE7B800002008B500BF6846FFF7B8
:101C9000BFFC044620460099FFF71AFFFFF77CFEC1
:101CA000F4E770B5044600F0F1F994F9455010E0FE
:101CB000606A08B9012000E0002038B904F124006E
:101CC00001F070F918B100F0B3FB00E003E0681E0A
:101CD00045B2002DECDC00BFFF2084F8450000F089
:101CE000FFF900F0D3F994F9445010E0206908B9E5
:101CF000012000E0002048B904F1100001F052F981
:101D000008B100F095FB681E45B200E001E0002D2F
:101D1000ECDC00BFFF2084F8440000F0E1F970BD66
:101D20002DE9F04104464FF0000800F00DFC464854
:101D3000006808B9FFF780FC44480068204000288C
:101D40006BD1D4B1083404F00700B0B104F007003F
:101D5000C0F10800044404F0070008B9012000E0C5
:101D6000002050B900BF502080F31188BFF34F8F7F
:101D7000BFF36F8F00BF00BFFEE7002C4DD034488B
:101D80000068844249D8334E3046056801E02E464B
:101D90002D686868A04202D228680028F7D12A4836
:101DA0000068854239D0306800F108082868306042
:101DB0006868001B102819D92F1907F0070008B907
:101DC000012000E0002050B900BF502080F31188AE
:101DD000BFF34F8FBFF36F8F00BF00BFFEE7686890
:101DE000001B78606C603846FFF720FD1849686872
:101DF0000968081A16490860084600681649096803
:101E0000884203D212480068134908600F49686885
:101E10000968084368600020286001F00FF908F0A5
:101E2000070008B9012000E0002050B900BF502091
:101E300080F31188BFF34F8FBFF36F8F00BF00BFD8
:101E4000FEE74046BDE8F081A8000020B400002075
:101E5000AC000020A0000020B0000020001F4FF0C8
:101E600080730360001F21F001030360001F054B16
:101E7000036014380260001F6FF002030360203813
:101E800070470000491C00081CB5044600F0FEF82D
:101E900000220121084600F073FC17490860002267
:101EA000C821042000F06CFC144908601448022189
:101EB00000233222CDE9001012A1154800F024FFC2
:101EC000144803210023C822CDE9001012A11548AF
:101ED00000F01AFF1448042100233222CDE900103B
:101EE00012A1174800F010FF1648006800F01AFA17
:101EF00000F0F6F81CBD00002000002024000020A7
:101F0000140000204B45595F7461736B00000000A2
:101F1000590900081800002055534152545F74615C
:101F2000736B00001D1100081C000020434F4E463B
:101F300045475F5441534B5F5052494F00000000EA
:101F4000A91100081000002010B588B00446012136
:101F50000846FEF79BFD01211020FEF7A7FD072292
:101F600009212348FEF742FC07220A212048FEF7F8
:101F70003DFC4FF4C060069002208DF81C008DF8E7
:101F80001D0000208DF81E0001208DF81F0006A9FD
:101F90001748FEF7E3FB02940020ADF80C00ADF803
:101FA0000E00ADF81000ADF814000C20ADF81200D2
:101FB00002A91048FFF73EF801210E48FEF7D2FFB4
:101FC000012240F225510B48FFF70FF825208DF82C
:101FD000040006208DF8050000208DF80600012081
:101FE0008DF8070001A8FEF70BFD08B010BD00003A
:101FF000000002400010014001460A69D1E90130A9
:102000009860D1E9010358605068884201D188681E
:102010005060002008611068401E10601068704712
:1020200000F1080141604FF0FF31816000F10801CB
:10203000C1600161002101607047002101617047AA
:1020400010B502460B685C1C0CB9106907E002F180
:10205000080000E04068446824689C42FAD944685B
:102060004C604C68A160886041600A611468641C1F
:10207000146010BD42684A6093688B609368596031
:102080009160086103685B1C0360704700BF5020CB
:1020900080F31188BFF34F8FBFF36F8F00BF0E48DF
:1020A0000068401C0C49086008460068012812D1ED
:1020B0000A480068C0B208B9012000E0002050B909
:1020C00000BF502080F31188BFF34F8FBFF36F8F95
:1020D00000BF00BFFEE77047B800002004ED00E03D
:1020E0000D48006850B900BF502080F31188BFF33D
:1020F0004F8FBFF36F8F00BF00BFFEE70648006839
:10210000401E054908600846006820B9002080F399
:10211000118800BF00BF7047B800002070B50646A8
:102120003546002E3FD0083D2C461F49606809689F
:10213000084008B1012000E0002050B900BF502045
:1021400080F31188BFF34F8FBFF36F8F00BF00BFC5
:10215000FEE7206808B9012000E0002050B900BF68
:10216000502080F31188BFF34F8FBFF36F8F00BFF4
:1021700000BFFEE70C4960680968084098B1206814
:1021800088B90949606809688843606000F0DCF933
:102190000649606809680844044908602046FFF75A
:1021A00045FB00F04BFF70BDB4000020AC000020E8
:1021B00000204FF0E02108618861064800684FF474
:1021C0007A71B0FBF1F0401E4FF0E021486107202A
:1021D000086170472800002070B5FEF783F80446B8
:1021E000102C16D304F1E02090F8F0531548007835
:1021F000854201DB012000E0002050B900BF5020E3
:1022000080F31188BFF34F8FBFF36F8F00BF00BF04
:10221000FEE70D48006800F4E0600C490968884258
:1022200001D8012000E0002050B900BF502080F309
:102230001188BFF34F8FBFF36F8F00BF00BFFEE762
:1022400070BD0000BC0000200CED00E0C0000020CC
:10225000024600200BE0084B53F8303033B9064BF0
:1022600043F8301003EBC0035A6002E0401C08281A
:10227000F1D300BF704700008C0100202DE9F04130
:1022800005460E4617462C46FFF700FF94F944001A
:10229000401C10B9002084F8440094F94500401C0B
:1022A00010B9002084F84500FFF71AFFA06B28B989
:1022B0003A46314604F1240000F0DCF82046FFF7EE
:1022C000F0FCBDE8F081000070B504460025D4B1F3
:1022D0001248006808B9012000E0002050B900BF92
:1022E000502080F31188BFF34F8FBFF36F8F00BF73
:1022F00000BFFEE700F028F900212046FFF72CF888
:1023000000F09CFE05463DB94FF08050044908603E
:10231000BFF34F8FBFF36F8F70BD000088000020A8
:1023200004ED00E070B50546FFF7B0FE15B9304882
:10233000006800E028460446201DFFF75DFE78B9DE
:10234000E06A00EB80002B4951F8200040B994F876
:102350002C100120884028490968814326480160E3
:10236000A06A18B104F11800FFF746FE2348006880
:10237000401C224908601E480068844209D1211D82
:102380001F48FFF777FE1F480068401C1D49086082
:1023900009E01D480068401E1B4908602046FFF701
:1023A0002DF9FFF7CFFBFFF79BFE18480068E8B157
:1023B0000F480068844219D11548006808B9012007
:1023C00000E0002050B900BF502080F31188BFF317
:1023D0004F8FBFF36F8F00BF00BFFEE74FF08050FD
:1023E0000C490860BFF34F8FBFF36F8F70BD0000C3
:1023F00050000020CC010020680000207C0000205C
:102400006C0200205C000020600000206C000020B6
:102410008800002004ED00E00349096801600349D9
:1024200009684160704700007800002064000020C7
:1024300001200149086070477400002070B504460F
:102440000D4654B900BF502080F31188BFF34F8F61
:10245000BFF36F8F00BF00BFFEE70548016818316A
:102460002046FFF7EDFD01212846FEF775FF70BD00
:102470005000002070B505460E46144655B900BF01
:10248000502080F31188BFF34F8FBFF36F8F00BFD1
:1024900000BFFEE70648016818312846FFF7EAFD4D
:1024A0000CB14FF0FF3621463046FEF755FF70BDA8
:1024B000500000201CB51D4800210B468222CDE9AA
:1024C00000101BA11C4800F01FFC0446012C02D187
:1024D00000F036FE0446012C15D100BF502080F3D9
:1024E0001188BFF34F8FBFF36F8F00BF4FF0FF30E6
:1024F0001249086001201249086000201149086053
:1025000000F070F810E0601C08B1012000E000202D
:1025100050B900BF502080F31188BFF34F8FBFF335
:102520006F8F00BF00BFFEE71CBD000084000020CD
:1025300049444C4500000000B5160008800000200A
:102540006C0000206400002002480068401C014923
:1025500008607047880000201D48006818B10120FD
:102560001C49086032E000201A4908601A480068D7
:10257000B0FA80F0C0F11F0101EB8100174A52F858
:10258000200008B1012000E0002050B900BF502019
:1025900080F31188BFF34F8FBFF36F8F00BF00BF71
:1025A000FEE701EB81020D4B03EB820042685268AB
:1025B000426000F108024368934202D142685268C7
:1025C00042604268D268064B1A6000BF7047000044
:1025D000880000207400002068000020CC0100204A
:1025E000500000201CB5524800685249884201D072
:1025F000012000E0002050B900BF502080F3118876
:10260000BFF34F8FBFF36F8F00BF00BFFEE7484897
:1026100000684849491E884201D0012000E000209E
:1026200050B900BF502080F31188BFF34F8FBFF324
:102630006F8F00BF00BFFEE73F490846007801905A
:10264000FF200A4610700846007800909DF80000B0
:1026500000F0F0009DF80020904201D1012000E040
:10266000002050B900BF502080F31188BFF34F8F76
:10267000BFF36F8F00BF00BFFEE79DF8000000F0C2
:1026800050002E4A107007202D4A106009E02C4897
:102690000068401E2A4A10609DF800004006000EA7
:1026A00000909DF8000000F080008028EFD02448C2
:1026B0000068C0F10700042801D1012000E00020DB
:1026C00050B900BF502080F31188BFF34F8FBFF384
:1026D0006F8F00BF00BFFEE7194800680002184A6C
:1026E00010601046008800F4E0601060124A019803
:1026F00010700F482030006840F470000C49203101
:1027000008600846006840F070400860FFF750FD20
:1027100000200C490860FDF7ADFD0B48006840F053
:10272000404009490860FDF791FD00201CBD0000F4
:1027300000ED00E071C20F4100E400E0BC000020A9
:10274000C0000020B800002034EF00E010B500BF4A
:10275000502080F31188BFF34F8FBFF36F8F00BFFE
:1027600000F018FB18B14FF080500449086000BF1A
:10277000002080F3118800BF10BD000004ED00E0D0
:102780002DE9F84305460E4690460DB1012000E0C4
:10279000002050B900BF502080F31188BFF34F8F45
:1027A000BFF36F8F00BF00BFFEE70EB9002701E047
:1027B00005FB06F707F15000FFF7B2FA04464CB1EB
:1027C000A14609F1500943464A463146284600943D
:1027D000FEF784FF2046BDE8F883000070B505468B
:1027E0000E462C4654B900BF502080F31188BFF329
:1027F0004F8FBFF36F8F00BF00BFFEE7FFF746FCB0
:10280000D4E90F12206801FB0200A0600020A06341
:1028100020686060E06B401E226C216800FB0211A2
:10282000E160FF2084F8440084F845009EB92069E7
:1028300008B9012000E00020A8B904F1100000F060
:10284000B1FB80B14FF0805009490860BFF34F8F52
:10285000BFF36F8F07E004F11000FFF7E1FB04F115
:102860002400FFF7DDFBFFF73BFC012070BD0000FB
:1028700004ED00E02DE9FF4383B0064688461D467F
:102880004FF00009344654B900BF502080F311883E
:10289000BFF34F8FBFF36F8F00BF00BFFEE7B8F1EC
:1028A000000F01D1206C08B9012000E0002050B9D0
:1028B00000BF502080F31188BFF34F8FBFF36F8F9D
:1028C00000BF00BFFEE7022D02D1E06B012801D15D
:1028D000012000E0002050B900BF502080F3118893
:1028E000BFF34F8FBFF36F8F00BF00BFFEE700F055
:1028F0003BFA08B9059808B9012000E0002050B95A
:1029000000BF502080F31188BFF34F8FBFF36F8F4C
:1029100000BF00BFFEE700BFFFF7B8FBA06BE16B95
:10292000884201D3022D28D12A4641462046FEF78F
:1029300026FE0746606A08B9012000E0002068B959
:1029400004F1240000F02EFB88B14FF08050324992
:102950000860BFF34F8FBFF36F8F08E03FB14FF0B8
:1029600080502D490860BFF34F8FBFF36F8FFFF783
:10297000B7FB012007B0BDE8F083059818B9FFF751
:10298000AFFB0020F6E7B9F1000F04D101A8FFF773
:1029900043FD4FF00109FFF7A3FBFFF7D5FDFFF75C
:1029A00075FB94F94400401C10B9002084F84400E1
:1029B00094F94500401C10B9002084F84500FFF749
:1029C0008FFB05A901A800F059F9F0B92046FEF7E0
:1029D0009AFFA0B104F110000599FFF72FFD2046E2
:1029E000FFF75FF900F02AFB002895D14FF08050E7
:1029F00009490860BFF34F8FBFF36F8F8CE7204604
:102A0000FFF74FF900F01AFB86E72046FFF749F978
:102A100000F014FB0020ADE704ED00E02DE9F05FCD
:102A200007468A4690461E463C4654B900BF502091
:102A300080F31188BFF34F8FBFF36F8F00BF00BFCC
:102A4000FEE7BAF1000F01D1206C08B9012000E0C7
:102A5000002050B900BF502080F31188BFF34F8F82
:102A6000BFF36F8F00BF00BFFEE7022E02D1E06B05
:102A7000012801D1012000E0002050B900BF502002
:102A800080F31188BFF34F8FBFF36F8F00BF00BF7C
:102A9000FEE7FFF7A1FB00BF5021EFF3118081F3A8
:102AA0001188BFF34F8FBFF36F8F00BF0546A06B38
:102AB000E16B884201D3022E23D194F945B032460E
:102AC00051462046FEF75BFD0BF1010088B9606AB4
:102AD00008B9012000E0002080B904F1240000F0D2
:102AE00061FA58B1B8F1000F08D00120C8F8000011
:102AF00004E00BF1010040B284F845004FF00109F9
:102B000001E04FF0000900BF85F3118800BF48467F
:102B1000BDE8F09F2DE9F74183B005460E464FF022
:102B200000082C4654B900BF502080F31188BFF331
:102B30004F8FBFF36F8F00BF00BFFEE70EB9206C51
:102B400008B9012000E0002050B900BF502080F3F8
:102B50001188BFF34F8FBFF36F8F00BF00BFFEE739
:102B600000F002F908B9059808B9012000E000203A
:102B700050B900BF502080F31188BFF34F8FBFF3CF
:102B80006F8F00BF00BFFEE700BFFFF77FFAA76BA4
:102B9000F7B131462046FEF7DDFC781EA0632069C0
:102BA00008B9012000E0002060B904F1100000F035
:102BB000F9F938B14FF080502F490860BFF34F8FBB
:102BC000BFF36F8FFFF78CFA012006B0BDE8F081EC
:102BD000059818B9FFF784FA0020F6E7B8F1000F5E
:102BE00004D101A8FFF718FC4FF00108FFF778FAAD
:102BF000FFF7AAFCFFF74AFA94F94400401C10B909
:102C0000002084F8440094F94500401C10B90020CD
:102C100084F84500FFF764FA05A901A800F02EF832
:102C2000F0B92046FEF762FEA0B104F12400059938
:102C3000FFF704FC2046FFF734F800F0FFF9002806
:102C4000A3D14FF080500C490860BFF34F8FBFF302
:102C50006F8F9AE72046FFF724F800F0EFF994E72A
:102C60002046FFF71EF800F0E9F92046FEF73EFE89
:102C700000288AD00020A8E704ED00E070B50546E2
:102C80000C4655B900BF502080F31188BFF34F8F19
:102C9000BFF36F8F00BF00BFFEE754B900BF5020E5
:102CA00080F31188BFF34F8FBFF36F8F00BF00BF5A
:102CB000FEE7FFF7EBF9124802686868131A20680C
:102CC000401C08B9002617E00E49286809688842A8
:102CD00004D06868904201D801260DE0206898422F
:102CE00007D92068C01A20602846FFF795FB002608
:102CF00002E0002020600126FFF7F2F9304670BDA7
:102D000064000020780000202DE9FF4F85B0804648
:102D100089461746DDE912ABB800FFF701F8064611
:102D200056B15820FEF7FCFF04460CB1266304E0C0
:102D30003046FFF7F3F900E000247CB10020CDE934
:102D400000ABCDE902403A4649464046089BFEF7B3
:102D5000DAFC2046FEF74CFB012501E04FF0FF3581
:102D6000284609B0BDE8F08F0549096809B9012076
:102D700005E00449096809B9022000E00020704715
:102D80006C0000208800002001490868704700009E
:102D9000640000202DE9F0414FF00008444800682D
:102DA000002877D143480068451C4248056015BBA0
:102DB00041480068006808B9012000E0002050B9CF
:102DC00000BF502080F31188BFF34F8FBFF36F8F88
:102DD00000BF00BFFEE7384807683848006836493A
:102DE00008603648076036480068401C344908606F
:102DF000FEF7A8FE00BF3348006885423CD300BF01
:102E00002D480068006808B9012000E0002020B1CA
:102E10004FF0FF302B4908602DE027480068C0685C
:102E2000C4686668B54202D22648066023E0201DC9
:102E3000FFF7E2F8A06A18B104F11800FFF7DCF818
:102E400094F82C10012088401F49096808431E4946
:102E50000860E16A01EB81011C4A02EB8100211D3F
:102E6000FFF708F91A49E06A0968C96A8842C7D3B6
:102E70004FF00108C4E700BF15480068C06A00EBC6
:102E80008000124951F82000012801D94FF00108B3
:102E900005E0FFE70F480068401C0E4908600E4837
:102EA000006808B14FF001084046BDE8F08100001D
:102EB00088000020640000205400002058000020FA
:102EC000780000208000002068000020CC01002055
:102ED00050000020700000207400002070B50546EE
:102EE0002C460026002D55D02B480068844201D185
:102EF000012000E0002050B900BF502080F311886D
:102F0000BFF34F8FBFF36F8F00BF00BFFEE7E06CD2
:102F100050B900BF502080F31188BFF34F8FBFF32B
:102F20006F8F00BF00BFFEE7E06C401EE064A16C45
:102F3000E06A88422ED0E06C60BB201DFFF75CF891
:102F400078B9E06A00EB8000144951F8200040B9DC
:102F500094F82C10012088401149096881431048D9
:102F60000160A06CE062E06AC0F10500A06194F825
:102F70002C10012088400A49096808430849086064
:102F8000E16A01EB8101054A02EB8100211DFFF797
:102F900071F80126304670BD50000020CC010020A1
:102FA0006800002070B50646F068C46854B900BFD8
:102FB000502080F31188BFF34F8FBFF36F8F00BF96
:102FC00000BFFEE704F11800FFF716F81548006887
:102FD000A8B9201DFFF710F894F82C1001208840A4
:102FE00011490968084310490860E16A01EB810151
:102FF0000E4A02EB8100211DFFF73CF804E004F1CA
:1030000018010B48FFF736F80A49E06A0968C96AEF
:10301000884204D9012501200749086000E0002505
:10302000284670BD8800002068000020CC010020E8
:1030300058020020500000207400002070B50024C9
:1030400000263648006850B900BF502080F3118830
:10305000BFF34F8FBFF36F8F00BF00BFFEE7FFF7D7
:1030600015F82E480068401E2C4908600846006884
:1030700000284FD12A48006800284BD024E0294876
:10308000C068C46804F11800FEF7B6FF201DFEF703
:10309000B3FF94F82C1001208840234909680843A5
:1030A00021490860E16A01EB8101204A02EB8100BD
:1030B000211DFEF7DFFF1E49E06A0968C96A8842E0
:1030C00002D301201B4908601648006808B9012096
:1030D00000E000200028D2D00CB1FEF733FD1648E6
:1030E000056865B100BFFFF755FE10B10120114919
:1030F00008606D1E002DF6D100200F4908600D48B4
:10310000006838B1012630070C490860BFF34F8FC3
:10311000BFF36F8FFEF7E4FF304670BD88000020DC
:10312000600000205802002068000020CC01002030
:1031300050000020740000207000002004ED00E02A
:103140001CB50024FEF7B0F90E48006858B10E48CF
:10315000022100234FF48272CDE900100BA10D482B
:10316000FFF7D2FD044654B900BF502080F3118808
:10317000BFF34F8FBFF36F8F00BF00BFFEE7204646
:103180001CBD00009400002098000020546D7220A7
:1031900053766300891C00082DE9FE4304460D4662
:1031A00016461F46DDF828804FF0000954B900BFCD
:1031B000502080F31188BFF34F8FBFF36F8F00BF94
:1031C00000BFFEE71448006810B300950196029412
:1031D000062D15DAFFF7C8FD022808D10023424664
:1031E00069460D480068FFF745FB814610E0002363
:1031F0001A46694608480068FFF73CFB814607E02D
:1032000000233A46694604480068FFF707FC8146F8
:103210004846BDE8FE830000940000204FF0407057
:10322000E1EE100A7047000048320008000000205C
:10323000C4000000C40100080C330008C4000020D2
:103240005C340100E00100080000000001020304FA
:103250000102030406070809000000000000000046
:10326000000000000000000000000000000000005E
:10327000007A030A000000000000000001020304BD
:10328000060708090000000000000000000001001F
:10329000000000000000000000000000000000002E
:1032A000000000000000000000000000000000001E
:1032B000000000000000000000000000000000000E
:1032C00000000000000000000000000000000000FE
:1032D00000000000000000000000000000000000EE
:1032E00000000000000000000000000000000000DE
:1032F00000000000000000000000000000000000CE
:0C330000AAAAAAAA000000000000000019
:040000050800018965
:00000001FF
